{
  "abi": [
    {
      "inputs": [
        {
          "internalType": "bytes32",
          "name": "_entityId",
          "type": "bytes32"
        },
        {
          "internalType": "bytes32",
          "name": "_tokenId",
          "type": "bytes32"
        }
      ],
      "name": "getLockedBalance",
      "outputs": [
        {
          "internalType": "uint256",
          "name": "amount",
          "type": "uint256"
        }
      ],
      "stateMutability": "view",
      "type": "function"
    },
    {
      "inputs": [
        {
          "internalType": "bytes32",
          "name": "ownerId",
          "type": "bytes32"
        },
        {
          "internalType": "bytes32",
          "name": "tokenId",
          "type": "bytes32"
        },
        {
          "internalType": "bytes32",
          "name": "dividendTokenId",
          "type": "bytes32"
        }
      ],
      "name": "getWithdrawableDividend",
      "outputs": [
        {
          "internalType": "uint256",
          "name": "",
          "type": "uint256"
        }
      ],
      "stateMutability": "view",
      "type": "function"
    },
    {
      "inputs": [
        {
          "internalType": "bytes32",
          "name": "ownerId",
          "type": "bytes32"
        },
        {
          "internalType": "bytes32",
          "name": "tokenId",
          "type": "bytes32"
        }
      ],
      "name": "internalBalanceOf",
      "outputs": [
        {
          "internalType": "uint256",
          "name": "",
          "type": "uint256"
        }
      ],
      "stateMutability": "view",
      "type": "function"
    },
    {
      "inputs": [
        {
          "internalType": "bytes32",
          "name": "from",
          "type": "bytes32"
        },
        {
          "internalType": "bytes32",
          "name": "tokenId",
          "type": "bytes32"
        },
        {
          "internalType": "uint256",
          "name": "amount",
          "type": "uint256"
        }
      ],
      "name": "internalBurn",
      "outputs": [],
      "stateMutability": "nonpayable",
      "type": "function"
    },
    {
      "inputs": [
        {
          "internalType": "bytes32",
          "name": "tokenId",
          "type": "bytes32"
        }
      ],
      "name": "internalTokenSupply",
      "outputs": [
        {
          "internalType": "uint256",
          "name": "",
          "type": "uint256"
        }
      ],
      "stateMutability": "view",
      "type": "function"
    },
    {
      "inputs": [
        {
          "internalType": "bytes32",
          "name": "to",
          "type": "bytes32"
        },
        {
          "internalType": "bytes32",
          "name": "tokenId",
          "type": "bytes32"
        },
        {
          "internalType": "uint256",
          "name": "amount",
          "type": "uint256"
        }
      ],
      "name": "internalTransferFromEntity",
      "outputs": [],
      "stateMutability": "nonpayable",
      "type": "function"
    },
    {
      "inputs": [
        {
          "internalType": "bytes32",
          "name": "guid",
          "type": "bytes32"
        },
        {
          "internalType": "uint256",
          "name": "amount",
          "type": "uint256"
        }
      ],
      "name": "payDividendFromEntity",
      "outputs": [],
      "stateMutability": "nonpayable",
      "type": "function"
    },
    {
      "inputs": [
        {
          "internalType": "bytes32",
          "name": "ownerId",
          "type": "bytes32"
        },
        {
          "internalType": "bytes32",
          "name": "tokenId",
          "type": "bytes32"
        }
      ],
      "name": "withdrawAllDividends",
      "outputs": [],
      "stateMutability": "nonpayable",
      "type": "function"
    },
    {
      "inputs": [
        {
          "internalType": "bytes32",
          "name": "ownerId",
          "type": "bytes32"
        },
        {
          "internalType": "bytes32",
          "name": "tokenId",
          "type": "bytes32"
        },
        {
          "internalType": "bytes32",
          "name": "dividendTokenId",
          "type": "bytes32"
        }
      ],
      "name": "withdrawDividend",
      "outputs": [],
      "stateMutability": "nonpayable",
      "type": "function"
    },
    {
      "inputs": [
        {
          "internalType": "bytes32",
          "name": "from",
          "type": "bytes32"
        },
        {
          "internalType": "bytes32",
          "name": "to",
          "type": "bytes32"
        },
        {
          "internalType": "bytes32",
          "name": "tokenId",
          "type": "bytes32"
        },
        {
          "internalType": "uint256",
          "name": "amount",
          "type": "uint256"
        }
      ],
      "name": "wrapperInternalTransferFrom",
      "outputs": [],
      "stateMutability": "nonpayable",
      "type": "function"
    }
  ],
  "bytecode": {
    "object": "0x608060405234801561001057600080fd5b50611d40806100206000396000f3fe608060405234801561001057600080fd5b506004361061009e5760003560e01c8063aa47d5cb11610066578063aa47d5cb14610116578063ad747f2f14610129578063c97875891461013c578063d588b1321461014f578063e208f10a1461016257600080fd5b80631ed7db65146100a357806333f6dfd8146100b85780635c923301146100cb5780637baa1dde146100f0578063a6cd857d14610103575b600080fd5b6100b66100b1366004611a1c565b610175565b005b6100b66100c6366004611a4e565b6102b1565b6100de6100d9366004611a7a565b6102f5565b60405190815260200160405180910390f35b6100de6100fe366004611a7a565b61030a565b6100b6610111366004611a4e565b610316565b6100b6610124366004611a7a565b610482565b6100b6610137366004611a7a565b6105f3565b6100b661014a366004611a4e565b610635565b6100de61015d366004611a4e565b6106f8565b6100de610170366004611a9c565b61070d565b6000356001600160e01b03191661018b81610718565b156101b15760405162461bcd60e51b81526004016101a890611ab5565b60405180910390fd5b60026101bb610756565b600301540361020c5760405162461bcd60e51b815260206004820152601f60248201527f5265656e7472616e637947756172643a207265656e7472616e742063616c6c0060448201526064016101a8565b6002610216610756565b600301558260006102268261077a565b945050505050806001600160a01b0316336001600160a01b03161461028d5760405162461bcd60e51b815260206004820152601a60248201527f6f6e6c7920777261707065722063616c6c7320616c6c6f77656400000000000060448201526064016101a8565b6102998787878761090e565b50505060016102a6610756565b600301555050505050565b6000356001600160e01b0319166102c781610718565b156102e45760405162461bcd60e51b81526004016101a890611ab5565b6102ef848484610b58565b50505050565b60006103018383610d41565b90505b92915050565b60006103018383610d6b565b6000356001600160e01b03191661032c81610718565b156103495760405162461bcd60e51b81526004016101a890611ab5565b6002610353610756565b60030154036103a45760405162461bcd60e51b815260206004820152601f60248201527f5265656e7472616e637947756172643a207265656e7472616e742063616c6c0060448201526064016101a8565b60026103ae610756565b600301556103bb33610d96565b61040d6103d96103c9610dc8565b60601b6001600160601b03191690565b826104086040518060400160405280600d81526020016c456e746974792041646d696e7360981b815250610e24565b610e2f565b6104525760405162461bcd60e51b81526020600482015260166024820152753737ba103a34329032b73a34ba3c93b99030b236b4b760511b60448201526064016101a8565b600061045d33610d96565b905061046b8187878761090e565b5050506001610478610756565b6003015550505050565b6000356001600160e01b03191661049881610718565b156104b55760405162461bcd60e51b81526004016101a890611ab5565b60006104c033610d96565b905060006104cd82610efc565b5190506105103360601b6001600160601b031916836104086040518060400160405280600d81526020016c456e746974792041646d696e7360981b815250610e24565b6105725760405162461bcd60e51b815260206004820152602d60248201527f7061794469766964656e6446726f6d456e746974793a206e6f7420746865206560448201526c373a34ba3c93b99030b236b4b760991b60648201526084016101a8565b8361057d8383610d41565b10156105df5760405162461bcd60e51b815260206004820152602b60248201527f7061794469766964656e6446726f6d456e746974793a20696e7375666669636960448201526a656e742062616c616e636560a81b60648201526084016101a8565b6105ec8583848488610f87565b5050505050565b6000356001600160e01b03191661060981610718565b156106265760405162461bcd60e51b81526004016101a890611ab5565b61063083836112ab565b505050565b6000356001600160e01b03191661064b81610718565b156106685760405162461bcd60e51b81526004016101a890611ab5565b6106ac6106766103c9610dc8565b61067e611357565b6104086040518060400160405280600d81526020016c53797374656d2041646d696e7360981b815250610e24565b6106ed5760405162461bcd60e51b81526020600482015260126024820152713737ba10309039bcb9ba32b69030b236b4b760711b60448201526064016101a8565b6102ef848484611385565b60006107058484846115b0565b949350505050565b60006103048261163a565b6001600160e01b03191660009081527f47f677dbe524b93b2c36e6f8027a75c4906479c31df070fdbea83211f1a26050602052604090205460ff1690565b7f1ab5ce5b595c6e94c5fba2e588bf4eafa8b384a4fb6e188b892768e695c1bfc790565b60008060608060008061078b610756565b6000888152600a82016020908152604080832054600b8501835281842054600c8601909352922080549299509097509192506107c690611ae1565b80601f01602080910402602001604051908101604052809291908181526020018280546107f290611ae1565b801561083f5780601f106108145761010080835404028352916020019161083f565b820191906000526020600020905b81548152906001019060200180831161082257829003601f168201915b50505060008a8152600d85016020526040902080549397509261086492509050611ae1565b80601f016020809104026020016040519081016040528092919081815260200182805461089090611ae1565b80156108dd5780601f106108b2576101008083540402835291602001916108dd565b820191906000526020600020905b8154815290600101906020018083116108c057829003601f168201915b5050506000998a525050600e90910160205260409096205494969395929492936001600160a01b0390931692915050565b600080610919610756565b600085815260158201602090815260408083208a84529091529020549091508311156109975760405162461bcd60e51b815260206004820152602760248201527f5f696e7465726e616c5472616e736665723a20696e73756666696369656e742060448201526662616c616e636560c81b60648201526084016101a8565b600086815260278201602090815260408083208784528252808320546015850183528184208a85529092529091205484916109d191611b31565b1015610a455760405162461bcd60e51b815260206004820152603f60248201527f5f696e7465726e616c5472616e736665723a20696e73756666696369656e742060448201527f62616c616e636520617661696c61626c652c2066756e6473206c6f636b65640060648201526084016101a8565b610a4f86856112ab565b6000848152601582016020908152604080832089845290915281208054859290610a7a908490611b31565b90915550506000848152601582016020908152604080832088845290915281208054859290610aaa908490611b44565b90915550610abe905086868686600061165a565b60008481526015820160209081526040808320898452909152908190205490518791600080516020611ceb83398151915291610afd9188913390611b57565b60405180910390a260008481526015820160209081526040808320888452909152908190205490518691600080516020611ceb83398151915291610b449188913390611b57565b60405180910390a250600195945050505050565b6000610b62610756565b90506000610b946040518060400160405280600d81526020016c4469766964656e642042616e6b60981b815250610e24565b60008581526015840160209081526040808320898452909152812054919250610bbc8661163a565b6000878152601b8601602090815260408083208984528252808320548a8452601c890183528184208a855283528184208c85529092528220549293509190610c068585858561182e565b90508015610d35576000898152601c8801602090815260408083208b845282528083208d845290915281208054839290610c41908490611b44565b90915550506000888152601588016020908152604080832089845290915281208054839290610c71908490611b31565b9091555050600088815260158801602090815260408083208d845290915281208054839290610ca1908490611b44565b909155505060008881526015880160209081526040808320898452909152908190205490518791600080516020611ceb83398151915291610ce5918c913390611b9f565b60405180910390a2600088815260158801602090815260408083208d8452909152908190205490518b91600080516020611ceb83398151915291610d2c918c913390611b9f565b60405180910390a25b50505050505050505050565b600080610d4c610756565b6000938452601501602090815260408085209585529490525050205490565b600080610d76610756565b600094855260270160209081526040808620948652939052505090205490565b600080610da1610756565b60609390931b6001600160601b0319166000908152600a9093016020525050604090205490565b6000303303610e1e57600080368080601f0160208091040260200160405190810160405280939291908181526020018383808284376000920191909152505050503601516001600160a01b03169150610e219050565b50335b90565b60006103048261187e565b600080610e3a610756565b6000868152601f8201602090815260408083208884529091529020549091508015801590610e8357506000818152601d83016020908152604080832087845290915290205460ff165b15610e915760019250610ef3565b6000868152601f83016020526040812081610eaa611357565b815260208101919091526040016000205490508015801590610ee757506000818152601d84016020908152604080832088845290915290205460ff165b15610ef157600193505b505b50509392505050565b6040805160a081018252600080825260208201819052918101829052606081018290526080810182905290610f2f610756565b60009384526011016020908152604093849020845160a081018652815481526001820154928101929092526002810154948201949094526003840154606082015260049093015460ff16151560808401525090919050565b60008111610fd75760405162461bcd60e51b815260206004820152601b60248201527f6469766964656e6420616d6f756e74206d757374206265203e2030000000000060448201526064016101a8565b610fe082611899565b61102c5760405162461bcd60e51b815260206004820181905260248201527f6d75737420626520737570706f72746564206469766964656e6420746f6b656e60448201526064016101a8565b611035856118d9565b156110955760405162461bcd60e51b815260206004820152602a60248201527f6e6f6e756e69717565206469766964656e6420646973747269627574696f6e2060448201526934b232b73a34b334b2b960b11b60648201526084016101a8565b600061109f610756565b905060006110d16040518060400160405280600d81526020016c4469766964656e642042616e6b60981b815250610e24565b90506110dc8561163a565b6000036110f5576110ef8686868661090e565b5061124f565b6111018682868661090e565b506000858152601b8301602090815260408083208784529091528120805485929061112d908490611b44565b90915550506000858152601983016020908152604080832087845290915290205460ff1615801561117957506000858152601a8301602090815260408083208380529091529020548414155b1561124f576111866118fc565b600086815260188401602052604090205460ff91909116116111ea5760405162461bcd60e51b815260206004820152601d60248201527f65786365656473206d6178206469762064656e6f6d696e6174696f6e7300000060448201526064016101a8565b6000858152601883016020818152604080842080546019880184528286208a87528452828620805460ff191660ff9283161790558a8652601a880184528286208254909116865283529084208890559181528154600181018355918352909120018490555b61125887611914565b60408051878152602081018790529081018590526060810184905287907f79c99b7b895cb77cf516bfda80c5416e57f9e3811cd24fa42b139bf7b9ab29679060800160405180910390a250505050505050565b60006112b5610756565b600083815260188201602090815260408083208054825181850281018501909352808352949550929390929183018282801561131057602002820191906000526020600020905b8154815260200190600101908083116112fc575b5050505050905060005b81518110156105ec57611347858584848151811061133a5761133a611be7565b6020026020010151610b58565b61135081611bfd565b905061131a565b60006113806040518060400160405280600681526020016553797374656d60d01b815250610e24565b905090565b600061138f610756565b600084815260158201602090815260408083208884529091529020549091508211156114095760405162461bcd60e51b815260206004820152602360248201527f5f696e7465726e616c4275726e3a20696e73756666696369656e742062616c616044820152626e636560e81b60648201526084016101a8565b6000848152602782016020908152604080832086845282528083205460158501835281842088855290925290912054839161144391611b31565b10156114b75760405162461bcd60e51b815260206004820152603b60248201527f5f696e7465726e616c4275726e3a20696e73756666696369656e742062616c6160448201527f6e636520617661696c61626c652c2066756e6473206c6f636b6564000000000060648201526084016101a8565b6114c184846112ab565b6000838152601682016020526040812080548492906114e1908490611b31565b90915550506000838152601582016020908152604080832087845290915281208054849290611511908490611b31565b909155505060008381526016820160205260409081902054905184917fb265507be3deb826a9f1ee89ff597f0214103a39d059c667755462fb004475509161155b91903390611c16565b60405180910390a260008381526015820160209081526040808320878452909152908190205490518591600080516020611ceb833981519152916115a29187913390611c60565b60405180910390a250505050565b6000806115bb610756565b600085815260158201602090815260408083208984529091528120549192506115e38661163a565b6000878152601b8501602090815260408083208984528252808320548a8452601c880183528184208a855283528184208c8552909252909120549192509061162d8484848461182e565b9998505050505050505050565b600080611645610756565b60009384526016016020525050604090205490565b6000611664610756565b905060006116718561163a565b60008681526018840160209081526040808320805482518185028101850190935280835294955092939092918301828280156116cc57602002820191906000526020600020905b8154815260200190600101908083116116b8575b5050505050905060005b81518110156118235760008282815181106116f3576116f3611be7565b60209081029190910181015160008a8152601b88018352604080822083835290935291822054909250906117298987848461182e565b60008b8152601c89016020908152604080832087845282528083208f8452909152812080549293508392909190611761908490611b44565b90915550508b156117a55760008a8152601c88016020908152604080832086845282528083208f84529091528120805483929061179f908490611b31565b90915550505b871561180f5760008a8152601b88016020908152604080832086845290915290205486906117d4908b90611cb1565b6117de9190611cc8565b60008b8152601b89016020908152604080832087845290915281208054909190611809908490611b44565b90915550505b5050508061181c90611bfd565b90506116d6565b505050505050505050565b60008061183b8685611cb1565b9050600085156118545761184f8683611cc8565b611857565b60005b9050808410156118705761186b8482611b31565b611873565b60005b979650505050505050565b6000815160000361189157506000919050565b506020015190565b6000806118a4610756565b90508060130160006118b5856119b7565b6001600160a01b0316815260208101919091526040016000205460ff169392505050565b6000806118e4610756565b60009384526009016020525050604090205460ff1690565b600080611907610756565b6017015460ff1692915050565b600061191e610756565b600083815260098201602052604090205490915060ff161561199b5760405162461bcd60e51b815260206004820152603060248201527f6f626a656374496420697320616c7265616479206265696e672075736564206260448201526f1e48185b9bdd1a195c881bd89a9958dd60821b60648201526084016101a8565b600091825260090160205260409020805460ff19166001179055565b60006bffffffffffffffffffffffff821615611a155760405162461bcd60e51b815260206004820152601e60248201527f496e76616c69642065787465726e616c20746f6b656e2061646472657373000060448201526064016101a8565b5060601c90565b60008060008060808587031215611a3257600080fd5b5050823594602084013594506040840135936060013592509050565b600080600060608486031215611a6357600080fd5b505081359360208301359350604090920135919050565b60008060408385031215611a8d57600080fd5b50508035926020909101359150565b600060208284031215611aae57600080fd5b5035919050565b602080825260129082015271199d5b98dd1a5bdb881a5cc81b1bd8dad95960721b604082015260600190565b600181811c90821680611af557607f821691505b602082108103611b1557634e487b7160e01b600052602260045260246000fd5b50919050565b634e487b7160e01b600052601160045260246000fd5b8181038181111561030457610304611b1b565b8082018082111561030457610304611b1b565b9283526020830191909152608060408301819052601190830152702fb4b73a32b93730b62a3930b739b332b960791b60a08301526001600160a01b0316606082015260c00190565b92835260208301919091526080604083018190526011908301527017ddda5d1a191c985dd11a5d9a59195b99607a1b60a08301526001600160a01b0316606082015260c00190565b634e487b7160e01b600052603260045260246000fd5b600060018201611c0f57611c0f611b1b565b5060010190565b828152606060208201526000611c4960608301600d81526c2fb4b73a32b93730b6213ab93760991b602082015260400190565b905060018060a01b03831660408301529392505050565b838152826020820152608060408201526000611c9960808301600d81526c2fb4b73a32b93730b6213ab93760991b602082015260400190565b905060018060a01b0383166060830152949350505050565b808202811582820484141761030457610304611b1b565b600082611ce557634e487b7160e01b600052601260045260246000fd5b50049056fe2a6b96e51c5252b8e3666030ed958aec041736a7af1773a4e5833bac27b47e3ba2646970667358221220ac1978b6fe4fd5759e1450bd380c6d55706f3d2e611aadc21daea3db86358fec64736f6c63430008110033",
    "linkReferences": {}
  },
  "methodIdentifiers": {
    "getLockedBalance(bytes32,bytes32)": "7baa1dde",
    "getWithdrawableDividend(bytes32,bytes32,bytes32)": "d588b132",
    "internalBalanceOf(bytes32,bytes32)": "5c923301",
    "internalBurn(bytes32,bytes32,uint256)": "c9787589",
    "internalTokenSupply(bytes32)": "e208f10a",
    "internalTransferFromEntity(bytes32,bytes32,uint256)": "a6cd857d",
    "payDividendFromEntity(bytes32,uint256)": "aa47d5cb",
    "withdrawAllDividends(bytes32,bytes32)": "ad747f2f",
    "withdrawDividend(bytes32,bytes32,bytes32)": "33f6dfd8",
    "wrapperInternalTransferFrom(bytes32,bytes32,bytes32,uint256)": "1ed7db65"
  },
  "id": 51
}