{
  "abi": [
    {
      "inputs": [],
      "name": "CannotSupportExternalTokenWithMoreThan18Decimals",
      "type": "error"
    },
    {
      "inputs": [
        {
          "internalType": "uint256",
          "name": "calculatedTotalBp",
          "type": "uint256"
        }
      ],
      "name": "PolicyCommissionsBasisPointsCannotBeGreaterThan10000",
      "type": "error"
    },
    {
      "inputs": [
        {
          "internalType": "address",
          "name": "_tokenAddress",
          "type": "address"
        }
      ],
      "name": "addSupportedExternalToken",
      "outputs": [],
      "stateMutability": "nonpayable",
      "type": "function"
    },
    {
      "inputs": [],
      "name": "getMaxDividendDenominations",
      "outputs": [
        {
          "internalType": "uint8",
          "name": "",
          "type": "uint8"
        }
      ],
      "stateMutability": "view",
      "type": "function"
    },
    {
      "inputs": [],
      "name": "getSupportedExternalTokens",
      "outputs": [
        {
          "internalType": "address[]",
          "name": "",
          "type": "address[]"
        }
      ],
      "stateMutability": "view",
      "type": "function"
    },
    {
      "inputs": [],
      "name": "getSystemId",
      "outputs": [
        {
          "internalType": "bytes32",
          "name": "",
          "type": "bytes32"
        }
      ],
      "stateMutability": "pure",
      "type": "function"
    },
    {
      "inputs": [
        {
          "internalType": "bytes4",
          "name": "functionSelector",
          "type": "bytes4"
        }
      ],
      "name": "isFunctionLocked",
      "outputs": [
        {
          "internalType": "bool",
          "name": "",
          "type": "bool"
        }
      ],
      "stateMutability": "view",
      "type": "function"
    },
    {
      "inputs": [
        {
          "internalType": "bytes32",
          "name": "_objectId",
          "type": "bytes32"
        }
      ],
      "name": "isObjectTokenizable",
      "outputs": [
        {
          "internalType": "bool",
          "name": "",
          "type": "bool"
        }
      ],
      "stateMutability": "view",
      "type": "function"
    },
    {
      "inputs": [
        {
          "internalType": "bytes32",
          "name": "_tokenId",
          "type": "bytes32"
        }
      ],
      "name": "isSupportedExternalToken",
      "outputs": [
        {
          "internalType": "bool",
          "name": "",
          "type": "bool"
        }
      ],
      "stateMutability": "view",
      "type": "function"
    },
    {
      "inputs": [],
      "name": "lockAllFundTransferFunctions",
      "outputs": [],
      "stateMutability": "nonpayable",
      "type": "function"
    },
    {
      "inputs": [
        {
          "internalType": "bytes4",
          "name": "functionSelector",
          "type": "bytes4"
        }
      ],
      "name": "lockFunction",
      "outputs": [],
      "stateMutability": "nonpayable",
      "type": "function"
    },
    {
      "inputs": [
        {
          "internalType": "uint8",
          "name": "_newMax",
          "type": "uint8"
        }
      ],
      "name": "setMaxDividendDenominations",
      "outputs": [],
      "stateMutability": "nonpayable",
      "type": "function"
    },
    {
      "inputs": [
        {
          "components": [
            {
              "internalType": "uint16",
              "name": "premiumCommissionNaymsLtdBP",
              "type": "uint16"
            },
            {
              "internalType": "uint16",
              "name": "premiumCommissionNDFBP",
              "type": "uint16"
            },
            {
              "internalType": "uint16",
              "name": "premiumCommissionSTMBP",
              "type": "uint16"
            }
          ],
          "internalType": "struct PolicyCommissionsBasisPoints",
          "name": "_policyCommissions",
          "type": "tuple"
        }
      ],
      "name": "setPolicyCommissionsBasisPoints",
      "outputs": [],
      "stateMutability": "nonpayable",
      "type": "function"
    },
    {
      "inputs": [
        {
          "components": [
            {
              "internalType": "uint16",
              "name": "tradingCommissionTotalBP",
              "type": "uint16"
            },
            {
              "internalType": "uint16",
              "name": "tradingCommissionNaymsLtdBP",
              "type": "uint16"
            },
            {
              "internalType": "uint16",
              "name": "tradingCommissionNDFBP",
              "type": "uint16"
            },
            {
              "internalType": "uint16",
              "name": "tradingCommissionSTMBP",
              "type": "uint16"
            },
            {
              "internalType": "uint16",
              "name": "tradingCommissionMakerBP",
              "type": "uint16"
            }
          ],
          "internalType": "struct TradingCommissionsBasisPoints",
          "name": "_tradingCommissions",
          "type": "tuple"
        }
      ],
      "name": "setTradingCommissionsBasisPoints",
      "outputs": [],
      "stateMutability": "nonpayable",
      "type": "function"
    },
    {
      "inputs": [
        {
          "internalType": "bytes4",
          "name": "functionSelector",
          "type": "bytes4"
        }
      ],
      "name": "unlockFunction",
      "outputs": [],
      "stateMutability": "nonpayable",
      "type": "function"
    }
  ],
  "bytecode": {
    "object": "0x608060405234801561001057600080fd5b5061183c806100206000396000f3fe608060405234801561001057600080fd5b50600436106100cf5760003560e01c8063a62caf821161008c578063d57af28f11610066578063d57af28f1461018d578063e6a19df2146101a0578063e9f0273c146101b3578063eb75c8e8146101e757600080fd5b8063a62caf8214610152578063bdd2620a14610165578063cb4295011461017a57600080fd5b806308a111ae146100d457806334531828146100e95780635c74d6a4146100fc5780637f09d0851461010f578063a006928914610122578063a246e7a81461014a575b600080fd5b6100e76100e2366004611558565b6101fd565b005b6100e76100f7366004611570565b61028c565b6100e761010a3660046115b0565b6102ea565b6100e761011d366004611570565b61031d565b6101356101303660046115cd565b61037a565b60405190151581526020015b60405180910390f35b6100e761038b565b6101356101603660046115cd565b6103bf565b61016d6103ca565b60405161014191906115e6565b6100e7610188366004611633565b6103d9565b6100e761019b36600461165c565b61040c565b6101356101ae366004611570565b61043f565b7f1ab5ce5b595c6e94c5fba2e588bf4eafa8b384a4fb6e188b892768e695c1bfde5460405160ff9091168152602001610141565b6101ef61046e565b604051908152602001610141565b61025b61022061020b610478565b60601b6bffffffffffffffffffffffff191690565b6102286104d4565b6102566040518060400160405280600d81526020016c53797374656d2041646d696e7360981b8152506104f9565b610504565b6102805760405162461bcd60e51b81526004016102779061166e565b60405180910390fd5b610289816105f0565b50565b61029a61022061020b610478565b6102b65760405162461bcd60e51b81526004016102779061166e565b6001600160e01b0319811660009081526000805160206117c783398151915260205260409020805460ff1916600117905550565b6102f861022061020b610478565b6103145760405162461bcd60e51b81526004016102779061166e565b61028981610838565b61032b61022061020b610478565b6103475760405162461bcd60e51b81526004016102779061166e565b610289816001600160e01b03191660009081526000805160206117c783398151915260205260409020805460ff19169055565b60006103858261092f565b92915050565b61039961022061020b610478565b6103b55760405162461bcd60e51b81526004016102779061166e565b6103bd61098f565b565b600061038582610f2a565b60606103d4610f7d565b905090565b6103e761022061020b610478565b6104035760405162461bcd60e51b81526004016102779061166e565b61028981610ff0565b61041a61022061020b610478565b6104365760405162461bcd60e51b81526004016102779061166e565b6102898161119d565b6001600160e01b0319811660009081526000805160206117c7833981519152602052604081205460ff16610385565b60006103d46104d4565b60003033036104ce57600080368080601f0160208091040260200160405190810160405280939291908181526020018383808284376000920191909152505050503601516001600160a01b031691506104d19050565b50335b90565b60006103d46040518060400160405280600681526020016553797374656d60d01b8152505b6000610385826112b1565b60008381527f1ab5ce5b595c6e94c5fba2e588bf4eafa8b384a4fb6e188b892768e695c1bfe6602090815260408083208584529091528120546000805160206117e783398151915290801580159061057757506000818152601d83016020908152604080832087845290915290205460ff165b1561058557600192506105e7565b6000868152601f8301602052604081208161059e6104d4565b8152602081019190915260400160002054905080158015906105db57506000818152601d84016020908152604080832088845290915290205460ff165b156105e557600193505b505b50509392505050565b6000805160206117e783398151915261060c602083018361169a565b61ffff166000108015610630575061271061062a602084018461169a565b61ffff16105b61067c5760405162461bcd60e51b815260206004820181905260248201527f696e76616c69642074726164696e6720636f6d6d697373696f6e20746f74616c6044820152606401610277565b61271061068f60a084016080850161169a565b61069f608085016060860161169a565b6106af606086016040870161169a565b6106bf604087016020880161169a565b6106c991906116be565b6106d391906116be565b6106dd91906116be565b61ffff16146107425760405162461bcd60e51b815260206004820152602b60248201527f74726164696e6720636f6d6d697373696f6e20425073206d7573742073756d2060448201526a0757020746f2031303030360ac1b6064820152608401610277565b61074f602083018361169a565b60268201805461ffff191661ffff92909216919091179055610777604083016020840161169a565b60268201805461ffff92909216620100000263ffff0000199092169190911790556107a8606083016040840161169a565b60268201805461ffff929092166401000000000265ffff00000000199092169190911790556107dd608083016060840161169a565b60268201805461ffff9290921666010000000000000267ffff0000000000001990921691909117905561081660a083016080840161169a565b8160260160086101000a81548161ffff021916908361ffff1602179055505050565b7f1ab5ce5b595c6e94c5fba2e588bf4eafa8b384a4fb6e188b892768e695c1bfde546000805160206117e78339815191529060ff908116908316116108d65760405162461bcd60e51b815260206004820152602e60248201527f5f7570646174654d61784469766964656e6444656e6f6d696e6174696f6e733a60448201526d2063616e6e6f742072656475636560901b6064820152608401610277565b60178101805460ff84811660ff1983168117909355604080519190921680825260208201939093527fe09b1c2d8d49f7249034d44d8dd27508c3f0a430a2df509300042437a4c46cf591015b60405180910390a1505050565b60006000805160206117e78339815191527f1ab5ce5b595c6e94c5fba2e588bf4eafa8b384a4fb6e188b892768e695c1bfda8261096b856112cc565b6001600160a01b0316815260208101919091526040016000205460ff169392505050565b6000805160206117c783398151915260208181527f1743a135ce53c05672f6ed0c770fed28c8645c3ce3ac33c9562c0f83f5791ce38054600160ff1991821681179092557fb0d7946bab2bcff712b0b8060e6339d4cd57d81112f27585f6a9c9f4c82c871880548216831790557f968f13724f2e05c1c6a36dba7f63d223a09c2392af2c888997c7e1e27449392780548216831790557fea11e08356013ee1b3687be68562968754c11bc893be36e9dcae00d20c17b9c280548216831790557f2ad254b5adf80a1139bb642a638337f98a7bc4dbea8c884c8adfa6f214db675c80548216831790557f38a8780df60d8c75479a519ad6d31e7fb3c7cc4c789a838dbd5e023dbe49908780548216831790557f1772caca7923025e0b39f6119286eed961d96ec0945382d8888b6aec6956872280548216831790557f2606e17099b55db6612fd5f37660368e2e72ddb19e5e0a2c291fbbf79b7a340180548216831790557f14acd49b0e3c7019614cfd8d410ac1d86dec14e7f2f17198a207c5fae23bd98c80548216831790557fd229f64f1d380ed8f77666b09e3e50b2fe8b17965c430a6e2c46b70a5dc1ec6380548216831790557ffe06b9dea9bf231645737f742acbe25d8178941a75627a5987c1ecc01bb0699980548216831790557f3fc186aee25899ae67e4d09af14fb24d828c543a090ada4762a6cb020525ea6e805482168317905563137b50cf60e31b60009081527fb683c65cbc6f7f7e4c663d24b2c53ab0e52136440fe2489b84d61963ffeea6b18054909216909217905560408051600e8082526101e08201909252919282016101c08036833701905050905063a2e4569b60e01b81600081518110610c0b57610c0b6116ee565b6001600160e01b0319909216602092830291909101909101528051633a2cfecf60e21b9082906001908110610c4257610c426116ee565b6001600160e01b0319909216602092830291909101909101528051637d29260560e01b9082906002908110610c7957610c796116ee565b6001600160e01b031990921660209283029190910190910152805162bae17360e01b9082906003908110610caf57610caf6116ee565b6001600160e01b031990921660209283029190910190910152805163ef706adf60e01b9082906004908110610ce657610ce66116ee565b6001600160e01b031990921660209283029190910190910152805163013be00960e71b9082906005908110610d1d57610d1d6116ee565b6001600160e01b031990921660209283029190910190910152805163a6cd857d60e01b9082906006908110610d5457610d546116ee565b6001600160e01b031990921660209283029190910190910152805163aa47d5cb60e01b9082906007908110610d8b57610d8b6116ee565b6001600160e01b031990921660209283029190910190910152805163c978758960e01b9082906008908110610dc257610dc26116ee565b6001600160e01b0319909216602092830291909101909101528051631ed7db6560e01b9082906009908110610df957610df96116ee565b6001600160e01b031990921660209283029190910190910152805163067edbfb60e31b908290600a908110610e3057610e306116ee565b6001600160e01b031990921660209283029190910190910152805163ad747f2f60e01b908290600b908110610e6757610e676116ee565b6001600160e01b031990921660209283029190910190910152805163aa47d5cb60e01b908290600c908110610e9e57610e9e6116ee565b6001600160e01b031990921660209283029190910190910152805163137b50cf60e31b908290600d908110610ed557610ed56116ee565b6001600160e01b0319909216602092830291909101909101526040517f1e02b6835506864ec2cb8a3ed28211eb5f3a59f5e01b27a38237e67175e8b05490610f1e908390611704565b60405180910390a15050565b60008181527f1ab5ce5b595c6e94c5fba2e588bf4eafa8b384a4fb6e188b892768e695c1bfd36020526040812080546000805160206117e78339815191529190610f7390611746565b1515949350505050565b606060006000805160206117e783398151915260148101805460408051602080840282018101909252828152939450830182828015610fe557602002820191906000526020600020905b81546001600160a01b03168152600190910190602001808311610fc7575b505050505091505090565b6012610ffb82611331565b60ff16111561101d57604051630f4051bd60e11b815260040160405180910390fd5b6001600160a01b03811660009081527f1ab5ce5b595c6e94c5fba2e588bf4eafa8b384a4fb6e188b892768e695c1bff260205260409020546000805160206117e783398151915290156110cd5760405162461bcd60e51b815260206004820152603260248201527f63616e6e6f74206164642070617274696369706174696f6e20746f6b656e20776044820152711c985c1c195c88185cc8195e1d195c9b985b60721b6064820152608401610277565b6001600160a01b038216600090815260138201602052604090205460ff1680611198576001600160a01b03831660009081526013830160205260409020805460ff191660011790556111366111318460601b6bffffffffffffffffffffffff191690565b611495565b60148201805460018101825560009182526020918290200180546001600160a01b0319166001600160a01b0386169081179091556040519081527fd1be2e90bd3d24839d9dd94ad871068e1f9688b02fa43f2a62c9975dfa9de2d79101610922565b505050565b6000805160206117e783398151915260006111be606084016040850161169a565b6111ce604085016020860161169a565b6111db602086018661169a565b6111e591906116be565b6111ef91906116be565b61ffff16905061271081111561121b57604051633b4c95fd60e01b815260048101829052602401610277565b611228602084018461169a565b60268301805461ffff92909216600160501b0261ffff60501b1990921691909117905561125b604084016020850161169a565b60268301805461ffff92909216600160601b0261ffff60601b1990921691909117905561128e606084016040850161169a565b82602601600e6101000a81548161ffff021916908361ffff160217905550505050565b600081516000036112c457506000919050565b506020015190565b60006bffffffffffffffffffffffff82161561132a5760405162461bcd60e51b815260206004820152601e60248201527f496e76616c69642065787465726e616c20746f6b656e206164647265737300006044820152606401610277565b5060601c90565b6000813b806113945760405162461bcd60e51b815260206004820152602960248201527f4c696245524332303a20455243323020746f6b656e206164647265737320686160448201526873206e6f20636f646560b81b6064820152608401610277565b60408051600481526024810182526020810180516001600160e01b031663313ce56760e01b179052905160009182916001600160a01b038716916113d79161177a565b6000604051808303816000865af19150503d8060008114611414576040519150601f19603f3d011682016040523d82523d6000602084013e611419565b606091505b50915091508115611441578080602001905181019061143891906117a9565b95945050505050565b60405162461bcd60e51b815260206004820152602360248201527f4c696245524332303a2063616c6c20746f20646563696d616c732829206661696044820152621b195960ea1b6064820152608401610277565b60008181527f1ab5ce5b595c6e94c5fba2e588bf4eafa8b384a4fb6e188b892768e695c1bfd060205260409020546000805160206117e78339815191529060ff161561153c5760405162461bcd60e51b815260206004820152603060248201527f6f626a656374496420697320616c7265616479206265696e672075736564206260448201526f1e48185b9bdd1a195c881bd89a9958dd60821b6064820152608401610277565b600091825260090160205260409020805460ff19166001179055565b600060a0828403121561156a57600080fd5b50919050565b60006020828403121561158257600080fd5b81356001600160e01b03198116811461159a57600080fd5b9392505050565b60ff8116811461028957600080fd5b6000602082840312156115c257600080fd5b813561159a816115a1565b6000602082840312156115df57600080fd5b5035919050565b6020808252825182820181905260009190848201906040850190845b818110156116275783516001600160a01b031683529284019291840191600101611602565b50909695505050505050565b60006020828403121561164557600080fd5b81356001600160a01b038116811461159a57600080fd5b60006060828403121561156a57600080fd5b6020808252601290820152713737ba10309039bcb9ba32b69030b236b4b760711b604082015260600190565b6000602082840312156116ac57600080fd5b813561ffff8116811461159a57600080fd5b61ffff8181168382160190808211156116e757634e487b7160e01b600052601160045260246000fd5b5092915050565b634e487b7160e01b600052603260045260246000fd5b6020808252825182820181905260009190848201906040850190845b818110156116275783516001600160e01b03191683529284019291840191600101611720565b600181811c9082168061175a57607f821691505b60208210810361156a57634e487b7160e01b600052602260045260246000fd5b6000825160005b8181101561179b5760208186018101518583015201611781565b506000920191825250919050565b6000602082840312156117bb57600080fd5b815161159a816115a156fe47f677dbe524b93b2c36e6f8027a75c4906479c31df070fdbea83211f1a260501ab5ce5b595c6e94c5fba2e588bf4eafa8b384a4fb6e188b892768e695c1bfc7a2646970667358221220586ca970974d793b143bbfb016c894ef8f04e32ef12ebe75ddf356abd732648e64736f6c63430008110033",
    "linkReferences": {}
  },
  "methodIdentifiers": {
    "addSupportedExternalToken(address)": "cb429501",
    "getMaxDividendDenominations()": "e9f0273c",
    "getSupportedExternalTokens()": "bdd2620a",
    "getSystemId()": "eb75c8e8",
    "isFunctionLocked(bytes4)": "e6a19df2",
    "isObjectTokenizable(bytes32)": "a62caf82",
    "isSupportedExternalToken(bytes32)": "a0069289",
    "lockAllFundTransferFunctions()": "a246e7a8",
    "lockFunction(bytes4)": "34531828",
    "setMaxDividendDenominations(uint8)": "5c74d6a4",
    "setPolicyCommissionsBasisPoints((uint16,uint16,uint16))": "d57af28f",
    "setTradingCommissionsBasisPoints((uint16,uint16,uint16,uint16,uint16))": "08a111ae",
    "unlockFunction(bytes4)": "7f09d085"
  },
  "id": 44
}