{
  "abi": [
    {
      "inputs": [
        {
          "internalType": "bytes32",
          "name": "_policyId",
          "type": "bytes32"
        }
      ],
      "name": "getFullInfo",
      "outputs": [
        {
          "components": [
            {
              "internalType": "uint256",
              "name": "startDate",
              "type": "uint256"
            },
            {
              "internalType": "uint256",
              "name": "maturationDate",
              "type": "uint256"
            },
            {
              "internalType": "bytes32",
              "name": "asset",
              "type": "bytes32"
            },
            {
              "internalType": "uint256",
              "name": "limit",
              "type": "uint256"
            },
            {
              "internalType": "bool",
              "name": "fundsLocked",
              "type": "bool"
            },
            {
              "internalType": "bool",
              "name": "cancelled",
              "type": "bool"
            },
            {
              "internalType": "uint256",
              "name": "claimsPaid",
              "type": "uint256"
            },
            {
              "internalType": "uint256",
              "name": "premiumsPaid",
              "type": "uint256"
            },
            {
              "internalType": "bytes32[]",
              "name": "commissionReceivers",
              "type": "bytes32[]"
            },
            {
              "internalType": "uint256[]",
              "name": "commissionBasisPoints",
              "type": "uint256[]"
            }
          ],
          "internalType": "struct SimplePolicy",
          "name": "",
          "type": "tuple"
        }
      ],
      "stateMutability": "nonpayable",
      "type": "function"
    },
    {
      "inputs": [
        {
          "internalType": "bytes32",
          "name": "_policyId",
          "type": "bytes32"
        },
        {
          "components": [
            {
              "internalType": "uint256",
              "name": "startDate",
              "type": "uint256"
            },
            {
              "internalType": "uint256",
              "name": "maturationDate",
              "type": "uint256"
            },
            {
              "internalType": "bytes32",
              "name": "asset",
              "type": "bytes32"
            },
            {
              "internalType": "uint256",
              "name": "limit",
              "type": "uint256"
            },
            {
              "internalType": "bool",
              "name": "fundsLocked",
              "type": "bool"
            },
            {
              "internalType": "bool",
              "name": "cancelled",
              "type": "bool"
            },
            {
              "internalType": "uint256",
              "name": "claimsPaid",
              "type": "uint256"
            },
            {
              "internalType": "uint256",
              "name": "premiumsPaid",
              "type": "uint256"
            },
            {
              "internalType": "bytes32[]",
              "name": "commissionReceivers",
              "type": "bytes32[]"
            },
            {
              "internalType": "uint256[]",
              "name": "commissionBasisPoints",
              "type": "uint256[]"
            }
          ],
          "internalType": "struct SimplePolicy",
          "name": "simplePolicy",
          "type": "tuple"
        }
      ],
      "name": "update",
      "outputs": [],
      "stateMutability": "nonpayable",
      "type": "function"
    }
  ],
  "bytecode": {
    "object": "0x608060405234801561001057600080fd5b506106b2806100206000396000f3fe608060405234801561001057600080fd5b50600436106100365760003560e01c806326bd9bef1461003b5780636676e00914610050575b600080fd5b61004e61004936600461047e565b610079565b005b61006361005e36600461057e565b610151565b60405161007091906105d2565b60405180910390f35b60007f1ab5ce5b595c6e94c5fba2e588bf4eafa8b384a4fb6e188b892768e695c1bfc760008481526012820160209081526040918290208551815585820151600182015591850151600283015560608501516003830155608085015160048301805460a088015161ffff1990911692151561ff00191692909217610100921515830217905560c0860151600584015560e086015160068401558501518051939450859361012c92600785019201906102d4565b5061012082015180516101499160088401916020909101906102d4565b505050505050565b61015961031f565b61016282610168565b92915050565b61017061031f565b60008281527f1ab5ce5b595c6e94c5fba2e588bf4eafa8b384a4fb6e188b892768e695c1bfd960209081526040918290208251610140810184528154815260018201548184015260028201548185015260038201546060820152600482015460ff808216151560808401526101009182900416151560a0830152600583015460c0830152600683015460e08301526007830180548651818702810187019097528087527f1ab5ce5b595c6e94c5fba2e588bf4eafa8b384a4fb6e188b892768e695c1bfc7969395928601939283018282801561026b57602002820191906000526020600020905b815481526020019060010190808311610257575b50505050508152602001600882018054806020026020016040519081016040528092919081815260200182805480156102c357602002820191906000526020600020905b8154815260200190600101908083116102af575b505050505081525050915050919050565b82805482825590600052602060002090810192821561030f579160200282015b8281111561030f5782518255916020019190600101906102f4565b5061031b929150610379565b5090565b60405180610140016040528060008152602001600081526020016000801916815260200160008152602001600015158152602001600015158152602001600081526020016000815260200160608152602001606081525090565b5b8082111561031b576000815560010161037a565b634e487b7160e01b600052604160045260246000fd5b604051610140810167ffffffffffffffff811182821017156103c8576103c861038e565b60405290565b803580151581146103de57600080fd5b919050565b600082601f8301126103f457600080fd5b8135602067ffffffffffffffff808311156104115761041161038e565b8260051b604051601f19603f830116810181811084821117156104365761043661038e565b60405293845285810183019383810192508785111561045457600080fd5b83870191505b848210156104735781358352918301919083019061045a565b979650505050505050565b6000806040838503121561049157600080fd5b82359150602083013567ffffffffffffffff808211156104b057600080fd5b9084019061014082870312156104c557600080fd5b6104cd6103a4565b823581526020830135602082015260408301356040820152606083013560608201526104fb608084016103ce565b608082015261050c60a084016103ce565b60a082015260c083013560c082015260e083013560e0820152610100808401358381111561053957600080fd5b610545898287016103e3565b828401525050610120808401358381111561055f57600080fd5b61056b898287016103e3565b8284015250508093505050509250929050565b60006020828403121561059057600080fd5b5035919050565b600081518084526020808501945080840160005b838110156105c7578151875295820195908201906001016105ab565b509495945050505050565b60208152815160208201526020820151604082015260408201516060820152606082015160808201526000608083015161061060a084018215159052565b5060a083015180151560c08401525060c083015160e083015260e08301516101008181850152808501519150506101406101208181860152610656610160860184610597565b90860151858203601f1901838701529092506106728382610597565b969550505050505056fea2646970667358221220bca3e867bd81b5eb73bf3eb96d51076d6d850d81fa868ce8c9d809112e9d3a7564736f6c63430008110033",
    "linkReferences": {}
  },
  "methodIdentifiers": {
    "getFullInfo(bytes32)": "6676e009",
    "update(bytes32,(uint256,uint256,bytes32,uint256,bool,bool,uint256,uint256,bytes32[],uint256[]))": "26bd9bef"
  },
  "id": 117
}