{
  "abi": [
    {
      "inputs": [],
      "name": "T",
      "type": "error"
    },
    {
      "inputs": [
        {
          "internalType": "uint160",
          "name": "sqrtPriceX96",
          "type": "uint160"
        }
      ],
      "name": "getPriceX96FromSqrtPriceX96",
      "outputs": [
        {
          "internalType": "uint256",
          "name": "priceX96",
          "type": "uint256"
        }
      ],
      "stateMutability": "pure",
      "type": "function"
    },
    {
      "inputs": [
        {
          "internalType": "address",
          "name": "uniswapV3Pool",
          "type": "address"
        },
        {
          "internalType": "uint32",
          "name": "twapInterval",
          "type": "uint32"
        }
      ],
      "name": "getSqrtTwapX96",
      "outputs": [
        {
          "internalType": "uint160",
          "name": "sqrtPriceX96",
          "type": "uint160"
        }
      ],
      "stateMutability": "view",
      "type": "function"
    },
    {
      "inputs": [],
      "name": "getTick",
      "outputs": [
        {
          "internalType": "int24",
          "name": "tick",
          "type": "int24"
        }
      ],
      "stateMutability": "view",
      "type": "function"
    },
    {
      "inputs": [],
      "name": "getTwap",
      "outputs": [
        {
          "internalType": "int24",
          "name": "",
          "type": "int24"
        }
      ],
      "stateMutability": "view",
      "type": "function"
    },
    {
      "inputs": [
        {
          "internalType": "int24",
          "name": "_baseThreshold",
          "type": "int24"
        },
        {
          "internalType": "int24",
          "name": "_limitThreshold",
          "type": "int24"
        },
        {
          "internalType": "int24",
          "name": "_maxTwapDeviation",
          "type": "int24"
        },
        {
          "internalType": "uint32",
          "name": "_twapInterval",
          "type": "uint32"
        }
      ],
      "name": "initNdf",
      "outputs": [],
      "stateMutability": "nonpayable",
      "type": "function"
    },
    {
      "inputs": [],
      "name": "rebalance",
      "outputs": [],
      "stateMutability": "nonpayable",
      "type": "function"
    },
    {
      "inputs": [
        {
          "internalType": "int24",
          "name": "_baseThreshold",
          "type": "int24"
        }
      ],
      "name": "setBaseThreshold",
      "outputs": [],
      "stateMutability": "nonpayable",
      "type": "function"
    },
    {
      "inputs": [
        {
          "internalType": "int24",
          "name": "_limitThreshold",
          "type": "int24"
        }
      ],
      "name": "setLimitThreshold",
      "outputs": [],
      "stateMutability": "nonpayable",
      "type": "function"
    },
    {
      "inputs": [
        {
          "internalType": "address",
          "name": "poolAddress",
          "type": "address"
        }
      ],
      "name": "setLiquidityPool",
      "outputs": [],
      "stateMutability": "nonpayable",
      "type": "function"
    },
    {
      "inputs": [
        {
          "internalType": "int24",
          "name": "_maxTwapDeviation",
          "type": "int24"
        }
      ],
      "name": "setMaxTwapDeviation",
      "outputs": [],
      "stateMutability": "nonpayable",
      "type": "function"
    },
    {
      "inputs": [
        {
          "internalType": "address",
          "name": "token0",
          "type": "address"
        },
        {
          "internalType": "address",
          "name": "uniswapPool",
          "type": "address"
        }
      ],
      "name": "setPool",
      "outputs": [],
      "stateMutability": "nonpayable",
      "type": "function"
    },
    {
      "inputs": [
        {
          "internalType": "uint32",
          "name": "_twapInterval",
          "type": "uint32"
        }
      ],
      "name": "settwapInterval",
      "outputs": [],
      "stateMutability": "nonpayable",
      "type": "function"
    }
  ],
  "bytecode": {
    "object": "0x608060405234801561001057600080fd5b506117ce806100206000396000f3fe608060405234801561001057600080fd5b50600436106100b45760003560e01c80634e847fc7116100715780634e847fc7146101945780635d752a9a146101ef5780637d7c2a1c1461020a578063a632935514610212578063af79448014610225578063df8ad8141461023857600080fd5b806301877020146100b957806318b520d51461010a5780633cbff3fe1461011d57806347628f6014610130578063498e8279146101605780634e09a61014610173575b600080fd5b6101086100c7366004611172565b7f1ab5ce5b595c6e94c5fba2e588bf4eafa8b384a4fb6e188b892768e695c1bff580546001600160a01b0319166001600160a01b0392909216919091179055565b005b6101086101183660046111b7565b610240565b61010861012b366004611211565b610482565b61014361013e36600461122e565b6104d7565b6040516001600160a01b0390911681526020015b60405180910390f35b61010861016e366004611263565b6106ac565b610186610181366004611172565b610725565b604051908152602001610157565b6101086101a236600461127e565b6001600160a01b0391821660009081527f1ab5ce5b595c6e94c5fba2e588bf4eafa8b384a4fb6e188b892768e695c1bff66020526040902080546001600160a01b03191691909216179055565b6101f761073f565b60405160029190910b8152602001610157565b6101086108c0565b610108610220366004611211565b610aaf565b610108610233366004611211565b610b02565b6101f7610b58565b7f1ab5ce5b595c6e94c5fba2e588bf4eafa8b384a4fb6e188b892768e695c1bff554604080516334324e9f60e21b81529051600080516020611759833981519152926000926001600160a01b039091169163d0c93a7c916004808201926020929091908290030181865afa1580156102bc573d6000803e3d6000fd5b505050506040513d601f19601f820116820180604052508101906102e091906112b7565b60378301805462ffffff83811665ffffffffffff199092169190911763010000008a831602176bffffffffffff0000000000001916600160301b8983160262ffffff60481b191617600160481b918816919091021763ffffffff60601b1916600160601b63ffffffff871602179055905061035b8682610c05565b6103658582610c05565b60008460020b136103915760405162461bcd60e51b8152600401610388906112d4565b60405180910390fd5b60008363ffffffff16116103d65760405162461bcd60e51b815260206004820152600c60248201526b1d1dd85c125b9d195c9d985b60a21b6044820152606401610388565b81602e0160009054906101000a90046001600160a01b03166001600160a01b0316633850c7bd6040518163ffffffff1660e01b815260040160e060405180830381865afa15801561042b573d6000803e3d6000fd5b505050506040513d601f19601f8201168201806040525081019061044f9190611310565b5050506037909501805462ffffff909316600160801b0262ffffff60801b19909316929092179091555050505050505050565b60008160020b136104a55760405162461bcd60e51b8152600401610388906112d4565b600080516020611779833981519152805462ffffff92909216600160481b0262ffffff60481b19909216919091179055565b60008163ffffffff1660000361055857826001600160a01b0316633850c7bd6040518163ffffffff1660e01b815260040160e060405180830381865afa158015610525573d6000803e3d6000fd5b505050506040513d601f19601f820116820180604052508101906105499190611310565b509495506106a6945050505050565b604080516002808252606082018352600092602083019080368337019050509050828160008151811061058d5761058d6113c3565b602002602001019063ffffffff16908163ffffffff16815250506000816001815181106105bc576105bc6113c3565b63ffffffff9092166020928302919091019091015260405163883bdbfd60e01b81526000906001600160a01b0386169063883bdbfd906106009085906004016113d9565b600060405180830381865afa15801561061d573d6000803e3d6000fd5b505050506040513d6000823e601f3d908101601f1916820160405261064591908101906114ec565b5090506106a18463ffffffff1682600081518110610665576106656113c3565b602002602001015183600181518110610680576106806113c3565b602002602001015161069291906115ce565b61069c9190611611565b610cfd565b925050505b92915050565b60008163ffffffff16116106f15760405162461bcd60e51b815260206004820152600c60248201526b1d1dd85c125b9d195c9d985b60a21b6044820152606401610388565b600080516020611779833981519152805463ffffffff92909216600160601b0263ffffffff60601b19909216919091179055565b60006106a66001600160a01b03831680600160601b611020565b6000805160206117798339815191525460408051600280825260608201835260009360008051602061175983398151915293600160601b90910463ffffffff16928592909160208301908036833701905050905081816000815181106107a7576107a76113c3565b602002602001019063ffffffff16908163ffffffff16815250506000816001815181106107d6576107d66113c3565b63ffffffff90921660209283029190910190910152602e83015460405163883bdbfd60e01b81526000916001600160a01b03169063883bdbfd9061081e9085906004016113d9565b600060405180830381865afa15801561083b573d6000803e3d6000fd5b505050506040513d6000823e601f3d908101601f1916820160405261086391908101906114ec565b5090508263ffffffff1681600081518110610880576108806113c3565b60200260200101518260018151811061089b5761089b6113c3565b60200260200101516108ad91906115ce565b6108b79190611611565b94505050505090565b600080516020611779833981519152546000805160206117598339815191529063010000008104600290810b91600160301b9004900b6000610900610b58565b905060008260020b8460020b136109175782610919565b835b603786015490915060020b61093282620d89e71961164f565b61093c919061164f565b60020b8260020b1361097f5760405162461bcd60e51b815260206004820152600c60248201526b7469636b20746f6f206c6f7760a01b6044820152606401610388565b603785015460020b81610995620d89e719611674565b61099f9190611696565b6109a99190611696565b60020b8260020b126109ed5760405162461bcd60e51b815260206004820152600d60248201526c0e8d2c6d640e8dede40d0d2ced609b1b6044820152606401610388565b60006109f761073f565b905060008160020b8460020b13610a1757610a128483611696565b610a21565b610a218285611696565b6037880154909150600160481b9004600290810b9082900b1315610a575760405162461bcd60e51b8152600401610388906112d4565b6000610a62856110d3565b6037890154909150600090610a7a9060020b8361164f565b50504260388901555050506037909401805462ffffff909216600160801b0262ffffff60801b19909216919091179055505050565b6000805160206117798339815191525460008051602061175983398151915290610add90839060020b610c05565b603701805462ffffff90921663010000000265ffffff00000019909216919091179055565b6000805160206117798339815191525460008051602061175983398151915290610b3090839060020b610c05565b603701805462ffffff909216600160301b0268ffffff00000000000019909216919091179055565b7f1ab5ce5b595c6e94c5fba2e588bf4eafa8b384a4fb6e188b892768e695c1bff55460408051633850c7bd60e01b81529051600092600080516020611759833981519152926001600160a01b0390911691633850c7bd9160048082019260e0929091908290030181865afa158015610bd4573d6000803e3d6000fd5b505050506040513d601f19601f82011682018060405250810190610bf89190611310565b5093979650505050505050565b60008260020b13610c485760405162461bcd60e51b815260206004820152600d60248201526c07468726573686f6c64203e203609c1b6044820152606401610388565b610c55620d89e719611674565b60020b8260020b1315610c9f5760405162461bcd60e51b81526020600482015260126024820152710e8d0e4cae6d0ded8c840e8dede40d0d2ced60731b6044820152606401610388565b610ca981836116bb565b60020b15610cf95760405162461bcd60e51b815260206004820152601760248201527f7468726573686f6c642025207469636b53706163696e670000000000000000006044820152606401610388565b5050565b60008060008360020b12610d14578260020b610d1c565b8260020b6000035b9050620d89e8811115610d42576040516315e4079d60e11b815260040160405180910390fd5b600081600116600003610d5957600160801b610d6b565b6ffffcb933bd6fad37aa2d162d1a5940015b70ffffffffffffffffffffffffffffffffff1690506002821615610d9f576ffff97272373d413259a46990580e213a0260801c5b6004821615610dbe576ffff2e50f5f656932ef12357cf3c7fdcc0260801c5b6008821615610ddd576fffe5caca7e10e4e61c3624eaa0941cd00260801c5b6010821615610dfc576fffcb9843d60f6159c9db58835c9266440260801c5b6020821615610e1b576fff973b41fa98c081472e6896dfb254c00260801c5b6040821615610e3a576fff2ea16466c96a3843ec78b326b528610260801c5b6080821615610e59576ffe5dee046a99a2a811c461f1969c30530260801c5b610100821615610e79576ffcbe86c7900a88aedcffc83b479aa3a40260801c5b610200821615610e99576ff987a7253ac413176f2b074cf7815e540260801c5b610400821615610eb9576ff3392b0822b70005940c7a398e4b70f30260801c5b610800821615610ed9576fe7159475a2c29b7443b29c7fa6e889d90260801c5b611000821615610ef9576fd097f3bdfd2022b8845ad8f792aa58250260801c5b612000821615610f19576fa9f746462d870fdf8a65dc1f90e061e50260801c5b614000821615610f39576f70d869a156d2a1b890bb3df62baf32f70260801c5b618000821615610f59576f31be135f97d08fd981231505542fcfa60260801c5b62010000821615610f7a576f09aa508b5b7a84e1c677de54f3e99bc90260801c5b62020000821615610f9a576e5d6af8dedb81196699c329225ee6040260801c5b62040000821615610fb9576d2216e584f5fa1ea926041bedfe980260801c5b62080000821615610fd6576b048a170391f7dc42444e8fa20260801c5b60008460020b1315610ff7578060001981610ff357610ff36115fb565b0490505b64010000000081061561100b57600161100e565b60005b60ff16602082901c0192505050919050565b6000808060001985870985870292508281108382030391505080600003611059576000841161104e57600080fd5b5082900490506110cc565b80841161106557600080fd5b6000848688096000868103871696879004966002600389028118808a02820302808a02820302808a02820302808a02820302808a02820302808a02909103029181900381900460010186841190950394909402919094039290920491909117919091029150505b9392505050565b600080516020611779833981519152546000906000805160206117598339815191529082906111059060020b856116dd565b905060008460020b12801561112d575060378201546111279060020b856116bb565b60020b15155b15611140578061113c8161170e565b9150505b60378201546111529060020b82611731565b949350505050565b6001600160a01b038116811461116f57600080fd5b50565b60006020828403121561118457600080fd5b81356110cc8161115a565b8060020b811461116f57600080fd5b803563ffffffff811681146111b257600080fd5b919050565b600080600080608085870312156111cd57600080fd5b84356111d88161118f565b935060208501356111e88161118f565b925060408501356111f88161118f565b91506112066060860161119e565b905092959194509250565b60006020828403121561122357600080fd5b81356110cc8161118f565b6000806040838503121561124157600080fd5b823561124c8161115a565b915061125a6020840161119e565b90509250929050565b60006020828403121561127557600080fd5b6110cc8261119e565b6000806040838503121561129157600080fd5b823561129c8161115a565b915060208301356112ac8161115a565b809150509250929050565b6000602082840312156112c957600080fd5b81516110cc8161118f565b60208082526010908201526f36b0bc2a3bb0b82232bb34b0ba34b7b760811b604082015260600190565b805161ffff811681146111b257600080fd5b600080600080600080600060e0888a03121561132b57600080fd5b87516113368161115a565b60208901519097506113478161118f565b9550611355604089016112fe565b9450611363606089016112fe565b9350611371608089016112fe565b925060a088015160ff8116811461138757600080fd5b60c0890151909250801515811461139d57600080fd5b8091505092959891949750929550565b634e487b7160e01b600052604160045260246000fd5b634e487b7160e01b600052603260045260246000fd5b6020808252825182820181905260009190848201906040850190845b8181101561141757835163ffffffff16835292840192918401916001016113f5565b50909695505050505050565b604051601f8201601f1916810167ffffffffffffffff8111828210171561144c5761144c6113ad565b604052919050565b600067ffffffffffffffff82111561146e5761146e6113ad565b5060051b60200190565b600082601f83011261148957600080fd5b8151602061149e61149983611454565b611423565b82815260059290921b840181019181810190868411156114bd57600080fd5b8286015b848110156114e15780516114d48161115a565b83529183019183016114c1565b509695505050505050565b600080604083850312156114ff57600080fd5b825167ffffffffffffffff8082111561151757600080fd5b818501915085601f83011261152b57600080fd5b8151602061153b61149983611454565b82815260059290921b8401810191818101908984111561155a57600080fd5b948201945b838610156115885785518060060b81146115795760008081fd5b8252948201949082019061155f565b918801519196509093505050808211156115a157600080fd5b506115ae85828601611478565b9150509250929050565b634e487b7160e01b600052601160045260246000fd5b600682810b9082900b03667fffffffffffff198112667fffffffffffff821317156106a6576106a66115b8565b634e487b7160e01b600052601260045260246000fd5b60008160060b8360060b80611628576116286115fb565b667fffffffffffff19821460001982141615611646576116466115b8565b90059392505050565b600281810b9083900b01627fffff8113627fffff19821217156106a6576106a66115b8565b60008160020b627fffff19810361168d5761168d6115b8565b60000392915050565b600282810b9082900b03627fffff198112627fffff821317156106a6576106a66115b8565b60008260020b806116ce576116ce6115fb565b808360020b0791505092915050565b60008160020b8360020b806116f4576116f46115fb565b627fffff19821460001982141615611646576116466115b8565b60008160020b627fffff198103611727576117276115b8565b6000190192915050565b60008260020b8260020b028060020b9150808214611751576117516115b8565b509291505056fe1ab5ce5b595c6e94c5fba2e588bf4eafa8b384a4fb6e188b892768e695c1bfc71ab5ce5b595c6e94c5fba2e588bf4eafa8b384a4fb6e188b892768e695c1bffea264697066735822122070083b2c5bbfb97889d5b585c36ad2e395960bcec93e8514a396e6bfee91f51764736f6c63430008110033",
    "linkReferences": {}
  },
  "methodIdentifiers": {
    "getPriceX96FromSqrtPriceX96(uint160)": "4e09a610",
    "getSqrtTwapX96(address,uint32)": "47628f60",
    "getTick()": "df8ad814",
    "getTwap()": "5d752a9a",
    "initNdf(int24,int24,int24,uint32)": "18b520d5",
    "rebalance()": "7d7c2a1c",
    "setBaseThreshold(int24)": "a6329355",
    "setLimitThreshold(int24)": "af794480",
    "setLiquidityPool(address)": "01877020",
    "setMaxTwapDeviation(int24)": "3cbff3fe",
    "setPool(address,address)": "4e847fc7",
    "settwapInterval(uint32)": "498e8279"
  },
  "id": 81
}