{
  "abi": [
    {
      "inputs": [
        {
          "internalType": "address",
          "name": "addr",
          "type": "address"
        }
      ],
      "name": "balanceOf",
      "outputs": [
        {
          "internalType": "uint256",
          "name": "",
          "type": "uint256"
        }
      ],
      "stateMutability": "view",
      "type": "function"
    },
    {
      "inputs": [],
      "name": "totalSupply",
      "outputs": [
        {
          "internalType": "uint256",
          "name": "",
          "type": "uint256"
        }
      ],
      "stateMutability": "view",
      "type": "function"
    }
  ],
  "bytecode": {
    "object": "0x608060405234801561001057600080fd5b50610126806100206000396000f3fe6080604052348015600f57600080fd5b506004361060325760003560e01c806318160ddd14603757806370a0823114604f575b600080fd5b603d6094565b60405190815260200160405180910390f35b603d605a36600460c2565b6001600160a01b031660009081527f1ab5ce5b595c6e94c5fba2e588bf4eafa8b384a4fb6e188b892768e695c1bfcf602052604090205490565b600060bd7f1ab5ce5b595c6e94c5fba2e588bf4eafa8b384a4fb6e188b892768e695c1bfcd5490565b905090565b60006020828403121560d357600080fd5b81356001600160a01b038116811460e957600080fd5b939250505056fea264697066735822122015caaba8afeebf016b04075e436b78cb188b8d16aff84183ef72fdce5c272bde64736f6c63430008110033",
    "linkReferences": {}
  },
  "methodIdentifiers": {
    "balanceOf(address)": "70a08231",
    "totalSupply()": "18160ddd"
  },
  "id": 48
}