{
  "abi": [
    {
      "inputs": [],
      "name": "ExternalDepositAmountCannotBeZero",
      "type": "error"
    },
    {
      "inputs": [
        {
          "internalType": "bytes32",
          "name": "_to",
          "type": "bytes32"
        },
        {
          "internalType": "address",
          "name": "_externalTokenAddress",
          "type": "address"
        },
        {
          "internalType": "uint256",
          "name": "_amount",
          "type": "uint256"
        }
      ],
      "name": "externalDepositDirect",
      "outputs": [],
      "stateMutability": "nonpayable",
      "type": "function"
    }
  ],
  "bytecode": {
    "object": "0x608060405234801561001057600080fd5b50610b28806100206000396000f3fe608060405234801561001057600080fd5b506004361061002b5760003560e01c806357ebebe214610030575b600080fd5b61004361003e3660046108b5565b610045565b005b6001600160a01b03821660009081527f1ab5ce5b595c6e94c5fba2e588bf4eafa8b384a4fb6e188b892768e695c1bfda602052604090205460ff166100d15760405162461bcd60e51b815260206004820152601f60248201527f6578744465706f7369743a20696e76616c696420455243323020746f6b656e0060448201526064015b60405180910390fd5b6100dc8383836100e1565b505050565b806000036101025760405163806daf1160e01b815260040160405180910390fd5b6bffffffffffffffffffffffff19606083901b1660006101228430610160565b90506101308433308661029e565b600061013c8530610160565b9050600061014a838361090f565b9050610157878583610372565b50505050505050565b6000823b806101815760405162461bcd60e51b81526004016100c890610922565b604080516001600160a01b0385811660248084019190915283518084039091018152604490920183526020820180516001600160e01b03166370a0823160e01b17905291516000928392908816916101d9919061096b565b6000604051808303816000865af19150503d8060008114610216576040519150601f19603f3d011682016040523d82523d6000602084013e61021b565b606091505b50915091508115610244578080602001905181019061023a919061099a565b9350505050610298565b60405162461bcd60e51b8152602060048201526024808201527f4c696245524332303a2063616c6c20746f2062616c616e63654f6628292066616044820152631a5b195960e21b60648201526084016100c8565b92915050565b833b806102bd5760405162461bcd60e51b81526004016100c890610922565b604080516001600160a01b0386811660248301528581166044830152606480830186905283518084039091018152608490920183526020820180516001600160e01b03166323b872dd60e01b1790529151600092839290891691610321919061096b565b6000604051808303816000865af19150503d806000811461035e576040519150601f19603f3d011682016040523d82523d6000602084013e610363565b606091505b5091509150610157828261054f565b826000036103ce5760405162461bcd60e51b815260206004820152602360248201527f5f696e7465726e616c4d696e743a206d696e7420746f207a65726f206164647260448201526265737360e81b60648201526084016100c8565b6000811161041e5760405162461bcd60e51b815260206004820152601f60248201527f5f696e7465726e616c4d696e743a206d696e74207a65726f20746f6b656e730060448201526064016100c8565b7f1ab5ce5b595c6e94c5fba2e588bf4eafa8b384a4fb6e188b892768e695c1bfc761044e60008585856001610645565b60008381526016820160205260408120805484929061046e9084906109b3565b9091555050600083815260158201602090815260408083208784529091528120805484929061049e9084906109b3565b909155505060008381526016820160205260409081902054905184917fb265507be3deb826a9f1ee89ff597f0214103a39d059c667755462fb00447550916104e8919033906109c6565b60405180910390a2600083815260158201602090815260408083208784529091529081902054905185917f2a6b96e51c5252b8e3666030ed958aec041736a7af1773a4e5833bac27b47e3b916105419187913390610a10565b60405180910390a250505050565b81156105da578051156105d657808060200190518101906105709190610a61565b6105d65760405162461bcd60e51b815260206004820152603160248201527f4c696245524332303a207472616e73666572206f72207472616e7366657246726044820152706f6d2072657475726e65642066616c736560781b60648201526084016100c8565b5050565b8051156105e957805181602001fd5b60405162461bcd60e51b815260206004820152602b60248201527f4c696245524332303a207472616e73666572206f72207472616e73666572467260448201526a1bdb481c995d995c9d195960aa1b60648201526084016100c8565b60008381527f1ab5ce5b595c6e94c5fba2e588bf4eafa8b384a4fb6e188b892768e695c1bfdd60209081526040808320547f1ab5ce5b595c6e94c5fba2e588bf4eafa8b384a4fb6e188b892768e695c1bfdf835281842080548351818602810186019094528084527f1ab5ce5b595c6e94c5fba2e588bf4eafa8b384a4fb6e188b892768e695c1bfc795929492939283018282801561070357602002820191906000526020600020905b8154815260200190600101908083116106ef575b5050505050905060005b815181101561085a57600082828151811061072a5761072a610a8a565b60209081029190910181015160008a8152601b880183526040808220838352909352918220549092509061076089878484610865565b60008b8152601c89016020908152604080832087845282528083208f84529091528120805492935083929091906107989084906109b3565b90915550508b156107dc5760008a8152601c88016020908152604080832086845282528083208f8452909152812080548392906107d690849061090f565b90915550505b87156108465760008a8152601b880160209081526040808320868452909152902054869061080b908b90610aa0565b6108159190610ab7565b60008b8152601b890160209081526040808320878452909152812080549091906108409084906109b3565b90915550505b5050508061085390610ad9565b905061070d565b505050505050505050565b6000806108728685610aa0565b90506000851561088b576108868683610ab7565b61088e565b60005b9050808410156108a7576108a2848261090f565b6108aa565b60005b979650505050505050565b6000806000606084860312156108ca57600080fd5b8335925060208401356001600160a01b03811681146108e857600080fd5b929592945050506040919091013590565b634e487b7160e01b600052601160045260246000fd5b81810381811115610298576102986108f9565b60208082526029908201527f4c696245524332303a20455243323020746f6b656e206164647265737320686160408201526873206e6f20636f646560b81b606082015260800190565b6000825160005b8181101561098c5760208186018101518583015201610972565b506000920191825250919050565b6000602082840312156109ac57600080fd5b5051919050565b80820180821115610298576102986108f9565b8281526060602082015260006109f960608301600d81526c17da5b9d195c9b985b135a5b9d609a1b602082015260400190565b905060018060a01b03831660408301529392505050565b838152826020820152608060408201526000610a4960808301600d81526c17da5b9d195c9b985b135a5b9d609a1b602082015260400190565b905060018060a01b0383166060830152949350505050565b600060208284031215610a7357600080fd5b81518015158114610a8357600080fd5b9392505050565b634e487b7160e01b600052603260045260246000fd5b8082028115828204841417610298576102986108f9565b600082610ad457634e487b7160e01b600052601260045260246000fd5b500490565b600060018201610aeb57610aeb6108f9565b506001019056fea2646970667358221220ce683b47e303e211518e728cc31354e32b1a5cb2288c3bb4685bac9adb5b3dd364736f6c63430008110033",
    "linkReferences": {}
  },
  "methodIdentifiers": {
    "externalDepositDirect(bytes32,address,uint256)": "57ebebe2"
  },
  "id": 118
}