{
  "abi": [
    {
      "inputs": [],
      "name": "getCommissionsConfig",
      "outputs": [
        {
          "components": [
            {
              "internalType": "uint16",
              "name": "tradingCommissionTotalBP",
              "type": "uint16"
            },
            {
              "internalType": "uint16",
              "name": "tradingCommissionNaymsLtdBP",
              "type": "uint16"
            },
            {
              "internalType": "uint16",
              "name": "tradingCommissionNDFBP",
              "type": "uint16"
            },
            {
              "internalType": "uint16",
              "name": "tradingCommissionSTMBP",
              "type": "uint16"
            },
            {
              "internalType": "uint16",
              "name": "tradingCommissionMakerBP",
              "type": "uint16"
            }
          ],
          "internalType": "struct TradingCommissionsConfig",
          "name": "config_",
          "type": "tuple"
        }
      ],
      "stateMutability": "nonpayable",
      "type": "function"
    }
  ],
  "bytecode": {
    "object": "0x608060405234801561001057600080fd5b50610167806100206000396000f3fe608060405234801561001057600080fd5b506004361061002b5760003560e01c8063c5ff2cd314610030575b600080fd5b6100de6040805160a0810182526000808252602082018190529181018290526060810182905260808101829052907f1ab5ce5b595c6e94c5fba2e588bf4eafa8b384a4fb6e188b892768e695c1bfc76040805160a08101825260269092015461ffff8082168452620100008204811660208501526401000000008204811692840192909252660100000000000081048216606084015268010000000000000000900416608082015292915050565b6040516101289190815161ffff9081168252602080840151821690830152604080840151821690830152606080840151821690830152608092830151169181019190915260a00190565b60405180910390f3fea2646970667358221220521320e1c552bba47b1e3bade21aad02f4a8e8bbd4b9eb6992108e23c3a69bd364736f6c63430008110033",
    "linkReferences": {}
  },
  "methodIdentifiers": {
    "getCommissionsConfig()": "c5ff2cd3"
  },
  "id": 119
}