{
  "abi": [
    {
      "inputs": [],
      "stateMutability": "nonpayable",
      "type": "constructor"
    },
    {
      "inputs": [
        {
          "internalType": "uint32[]",
          "name": "secondsAgos",
          "type": "uint32[]"
        }
      ],
      "name": "observe",
      "outputs": [
        {
          "internalType": "int56[]",
          "name": "tickCumulatives",
          "type": "int56[]"
        },
        {
          "internalType": "uint160[]",
          "name": "secondsPerLiquidityCumulativeX128s",
          "type": "uint160[]"
        }
      ],
      "stateMutability": "view",
      "type": "function"
    },
    {
      "inputs": [
        {
          "internalType": "uint160",
          "name": "sqrtPriceX96",
          "type": "uint160"
        }
      ],
      "name": "setSqrtPriceX96",
      "outputs": [],
      "stateMutability": "nonpayable",
      "type": "function"
    },
    {
      "inputs": [],
      "name": "slot0",
      "outputs": [
        {
          "internalType": "uint160",
          "name": "sqrtPriceX96",
          "type": "uint160"
        },
        {
          "internalType": "int24",
          "name": "tick",
          "type": "int24"
        },
        {
          "internalType": "uint16",
          "name": "observationIndex",
          "type": "uint16"
        },
        {
          "internalType": "uint16",
          "name": "observationCardinality",
          "type": "uint16"
        },
        {
          "internalType": "uint16",
          "name": "observationCardinalityNext",
          "type": "uint16"
        },
        {
          "internalType": "uint8",
          "name": "feeProtocol",
          "type": "uint8"
        },
        {
          "internalType": "bool",
          "name": "unlocked",
          "type": "bool"
        }
      ],
      "stateMutability": "view",
      "type": "function"
    }
  ],
  "bytecode": {
    "object": "0x60a060405234801561001057600080fd5b50336080526080516103a561003060003960006101ae01526103a56000f3fe608060405234801561001057600080fd5b50600436106100415760003560e01c80633850c7bd14610046578063883bdbfd146100f0578063c9c32f2a14610111575b600080fd5b60005461009a906001600160a01b03811690600160a01b810460020b9061ffff600160b81b8204811691600160c81b8104821691600160d81b8204169060ff600160e81b8204811691600160f01b90041687565b604080516001600160a01b03909816885260029690960b602088015261ffff94851695870195909552918316606086015291909116608084015260ff1660a0830152151560c082015260e0015b60405180910390f35b6101036100fe36600461022d565b610126565b6040516100e79291906102a2565b61012461011f366004610329565b6101a3565b005b60408051600280825260608083018452928392919060208301908036833701905050915060018260008151811061015f5761015f610359565b602002602001019060060b908160060b8152505060028260018151811061018857610188610359565b602002602001019060060b908160060b815250509250929050565b336001600160a01b037f0000000000000000000000000000000000000000000000000000000000000000161461020b5760405162461bcd60e51b81526020600482015260096024820152683737ba1030b236b4b760b91b604482015260640160405180910390fd5b600080546001600160a01b0319166001600160a01b0392909216919091179055565b6000806020838503121561024057600080fd5b823567ffffffffffffffff8082111561025857600080fd5b818501915085601f83011261026c57600080fd5b81358181111561027b57600080fd5b8660208260051b850101111561029057600080fd5b60209290920196919550909350505050565b604080825283519082018190526000906020906060840190828701845b828110156102de57815160060b845292840192908401906001016102bf565b5050508381038285015284518082528583019183019060005b8181101561031c5783516001600160a01b0316835292840192918401916001016102f7565b5090979650505050505050565b60006020828403121561033b57600080fd5b81356001600160a01b038116811461035257600080fd5b9392505050565b634e487b7160e01b600052603260045260246000fdfea2646970667358221220fc6106ffbafacfa04e8d20749a06a81d743199781e27786f09c179d88936fb0164736f6c63430008110033",
    "linkReferences": {}
  },
  "methodIdentifiers": {
    "observe(uint32[])": "883bdbfd",
    "setSqrtPriceX96(uint160)": "c9c32f2a",
    "slot0()": "3850c7bd"
  },
  "id": 120
}