{
  "abi": [
    {
      "inputs": [
        {
          "internalType": "bytes32",
          "name": "_tokenId",
          "type": "bytes32"
        }
      ],
      "stateMutability": "nonpayable",
      "type": "constructor"
    },
    {
      "anonymous": false,
      "inputs": [
        {
          "indexed": true,
          "internalType": "address",
          "name": "owner",
          "type": "address"
        },
        {
          "indexed": true,
          "internalType": "address",
          "name": "spender",
          "type": "address"
        },
        {
          "indexed": false,
          "internalType": "uint256",
          "name": "value",
          "type": "uint256"
        }
      ],
      "name": "Approval",
      "type": "event"
    },
    {
      "anonymous": false,
      "inputs": [
        {
          "indexed": true,
          "internalType": "address",
          "name": "from",
          "type": "address"
        },
        {
          "indexed": true,
          "internalType": "address",
          "name": "to",
          "type": "address"
        },
        {
          "indexed": false,
          "internalType": "uint256",
          "name": "value",
          "type": "uint256"
        }
      ],
      "name": "Transfer",
      "type": "event"
    },
    {
      "inputs": [],
      "name": "DOMAIN_SEPARATOR",
      "outputs": [
        {
          "internalType": "bytes32",
          "name": "",
          "type": "bytes32"
        }
      ],
      "stateMutability": "view",
      "type": "function"
    },
    {
      "inputs": [
        {
          "internalType": "address",
          "name": "owner",
          "type": "address"
        },
        {
          "internalType": "address",
          "name": "spender",
          "type": "address"
        }
      ],
      "name": "allowance",
      "outputs": [
        {
          "internalType": "uint256",
          "name": "",
          "type": "uint256"
        }
      ],
      "stateMutability": "view",
      "type": "function"
    },
    {
      "inputs": [
        {
          "internalType": "address",
          "name": "",
          "type": "address"
        },
        {
          "internalType": "address",
          "name": "",
          "type": "address"
        }
      ],
      "name": "allowances",
      "outputs": [
        {
          "internalType": "uint256",
          "name": "",
          "type": "uint256"
        }
      ],
      "stateMutability": "view",
      "type": "function"
    },
    {
      "inputs": [
        {
          "internalType": "address",
          "name": "spender",
          "type": "address"
        },
        {
          "internalType": "uint256",
          "name": "value",
          "type": "uint256"
        }
      ],
      "name": "approve",
      "outputs": [
        {
          "internalType": "bool",
          "name": "",
          "type": "bool"
        }
      ],
      "stateMutability": "nonpayable",
      "type": "function"
    },
    {
      "inputs": [
        {
          "internalType": "address",
          "name": "who",
          "type": "address"
        }
      ],
      "name": "balanceOf",
      "outputs": [
        {
          "internalType": "uint256",
          "name": "",
          "type": "uint256"
        }
      ],
      "stateMutability": "view",
      "type": "function"
    },
    {
      "inputs": [],
      "name": "decimals",
      "outputs": [
        {
          "internalType": "uint8",
          "name": "",
          "type": "uint8"
        }
      ],
      "stateMutability": "pure",
      "type": "function"
    },
    {
      "inputs": [
        {
          "internalType": "address",
          "name": "spender",
          "type": "address"
        },
        {
          "internalType": "uint256",
          "name": "subtractedValue",
          "type": "uint256"
        }
      ],
      "name": "decreaseAllowance",
      "outputs": [
        {
          "internalType": "bool",
          "name": "",
          "type": "bool"
        }
      ],
      "stateMutability": "nonpayable",
      "type": "function"
    },
    {
      "inputs": [
        {
          "internalType": "address",
          "name": "spender",
          "type": "address"
        },
        {
          "internalType": "uint256",
          "name": "addedValue",
          "type": "uint256"
        }
      ],
      "name": "increaseAllowance",
      "outputs": [
        {
          "internalType": "bool",
          "name": "",
          "type": "bool"
        }
      ],
      "stateMutability": "nonpayable",
      "type": "function"
    },
    {
      "inputs": [],
      "name": "name",
      "outputs": [
        {
          "internalType": "string",
          "name": "",
          "type": "string"
        }
      ],
      "stateMutability": "view",
      "type": "function"
    },
    {
      "inputs": [
        {
          "internalType": "address",
          "name": "",
          "type": "address"
        }
      ],
      "name": "nonces",
      "outputs": [
        {
          "internalType": "uint256",
          "name": "",
          "type": "uint256"
        }
      ],
      "stateMutability": "view",
      "type": "function"
    },
    {
      "inputs": [
        {
          "internalType": "address",
          "name": "owner",
          "type": "address"
        },
        {
          "internalType": "address",
          "name": "spender",
          "type": "address"
        },
        {
          "internalType": "uint256",
          "name": "value",
          "type": "uint256"
        },
        {
          "internalType": "uint256",
          "name": "deadline",
          "type": "uint256"
        },
        {
          "internalType": "uint8",
          "name": "v",
          "type": "uint8"
        },
        {
          "internalType": "bytes32",
          "name": "r",
          "type": "bytes32"
        },
        {
          "internalType": "bytes32",
          "name": "s",
          "type": "bytes32"
        }
      ],
      "name": "permit",
      "outputs": [],
      "stateMutability": "nonpayable",
      "type": "function"
    },
    {
      "inputs": [],
      "name": "symbol",
      "outputs": [
        {
          "internalType": "string",
          "name": "",
          "type": "string"
        }
      ],
      "stateMutability": "view",
      "type": "function"
    },
    {
      "inputs": [],
      "name": "totalSupply",
      "outputs": [
        {
          "internalType": "uint256",
          "name": "",
          "type": "uint256"
        }
      ],
      "stateMutability": "view",
      "type": "function"
    },
    {
      "inputs": [
        {
          "internalType": "address",
          "name": "to",
          "type": "address"
        },
        {
          "internalType": "uint256",
          "name": "value",
          "type": "uint256"
        }
      ],
      "name": "transfer",
      "outputs": [
        {
          "internalType": "bool",
          "name": "",
          "type": "bool"
        }
      ],
      "stateMutability": "nonpayable",
      "type": "function"
    },
    {
      "inputs": [
        {
          "internalType": "address",
          "name": "from",
          "type": "address"
        },
        {
          "internalType": "address",
          "name": "to",
          "type": "address"
        },
        {
          "internalType": "uint256",
          "name": "value",
          "type": "uint256"
        }
      ],
      "name": "transferFrom",
      "outputs": [
        {
          "internalType": "bool",
          "name": "",
          "type": "bool"
        }
      ],
      "stateMutability": "nonpayable",
      "type": "function"
    }
  ],
  "bytecode": {
    "object": "0x6101006040523480156200001257600080fd5b5060405162001596380380620015968339810160408190526200003591620002a2565b3360a081905260405163531657c160e11b81526004810183905263a62caf82906024016020604051808303816000875af115801562000078573d6000803e3d6000fd5b505050506040513d601f19601f820116820180604052508101906200009e9190620002bc565b620000f05760405162461bcd60e51b815260206004820152601360248201527f6d75737420626520746f6b656e697a61626c650000000000000000000000000060448201526064015b60405180910390fd5b60a0516040516310b4955d60e01b8152600481018390526001600160a01b03909116906310b4955d90602401602060405180830381865afa1580156200013a573d6000803e3d6000fd5b505050506040513d601f19601f82011682018060405250810190620001609190620002bc565b15620001af5760405162461bcd60e51b815260206004820152601b60248201527f6d757374206e6f74206265207772617070656420616c726561647900000000006044820152606401620000e7565b60808190524660c052620001c2620001cc565b60e05250620002e7565b60007f8b73c3c69bb8fe3d512ecc4cf759cc79239f7b179b0ffacaa9a75d522b39400f620002076080516200027160201b62000dd71760201c565b80516020918201206040805192830193909352918101919091527fc89efdaa54c0f20c7adf612882df0950f5a951637e0307cdcb4c672f298b8bc660608201524660808201523060a082015260c00160405160208183030381529060405280519060200120905090565b6040805160208082528183019092526060916000919060208201818036833750505060208101939093525090919050565b600060208284031215620002b557600080fd5b5051919050565b600060208284031215620002cf57600080fd5b81518015158114620002e057600080fd5b9392505050565b60805160a05160c05160e0516112286200036e60003960006106bd0152600061068d0152600081816102a601528181610384015281816105ea015281816107910152818161089b0152610afd0152600081816102720152818161035b015281816105bd015281816107f00152818161086701528181610ad00152610e3001526112286000f3fe608060405234801561001057600080fd5b50600436106100f55760003560e01c806355b6ed5c11610097578063a457c2d711610066578063a457c2d7146101f1578063a9059cbb14610204578063d505accf14610217578063dd62ed3e1461022c57600080fd5b806355b6ed5c1461018e57806370a08231146101b65780637ecebe00146101c957806395d89b41146101e957600080fd5b806323b872dd116100d357806323b872dd14610151578063313ce567146101645780633644e51514610173578063395093511461017b57600080fd5b806306fdde03146100fa578063095ea7b31461011857806318160ddd1461013b575b600080fd5b610102610263565b60405161010f9190610ee2565b60405180910390f35b61012b610126366004610f2d565b61031f565b604051901515815260200161010f565b61014361034c565b60405190815260200161010f565b61012b61015f366004610f59565b6103fc565b6040516012815260200161010f565b610143610689565b61012b610189366004610f2d565b6106df565b61014361019c366004610f9a565b600060208181529281526040808220909352908152205481565b6101436101c4366004610fd3565b61078d565b6101436101d7366004610fd3565b60016020526000908152604090205481565b610102610858565b61012b6101ff366004610f2d565b610915565b61012b610212366004610f2d565b6109c7565b61022a610225366004610ff7565b610b9a565b005b61014361023a366004610f9a565b6001600160a01b0391821660009081526020818152604080832093909416825291909152205490565b60405163678667cf60e11b81527f000000000000000000000000000000000000000000000000000000000000000060048201526060906000906001600160a01b037f0000000000000000000000000000000000000000000000000000000000000000169063cf0ccf9e90602401600060405180830381865afa1580156102ed573d6000803e3d6000fd5b505050506040513d6000823e601f3d908101601f19168201604052610315919081019061110c565b5095945050505050565b336000908152602081815260408083206001600160a01b0386168452909152902081905560015b92915050565b604051637104788560e11b81527f000000000000000000000000000000000000000000000000000000000000000060048201526000907f00000000000000000000000000000000000000000000000000000000000000006001600160a01b03169063e208f10a90602401602060405180830381865afa1580156103d3573d6000803e3d6000fd5b505050506040513d601f19601f820116820180604052508101906103f79190611198565b905090565b6000805160206111d383398151915254600090600119016104645760405162461bcd60e51b815260206004820152601f60248201527f5265656e7472616e637947756172643a207265656e7472616e742063616c6c0060448201526064015b60405180910390fd5b60026000805160206111d383398151915255600082900361048457600080fd5b6001600160a01b038416600090815260208181526040808320338452909152902054828110156104ed5760405162461bcd60e51b81526020600482015260146024820152736e6f7420656e6f75676820616c6c6f77616e636560601b604482015260640161045b565b60001981146105235761050083826111b1565b6001600160a01b0386166000908152602081815260408083203384529091529020555b60006105398660601b6001600160601b03191690565b905060006105518660601b6001600160601b03191690565b9050856001600160a01b0316876001600160a01b03167fddf252ad1be2c89b69c2b068fc378daa952ba7f163c4a11628f55a4df523b3ef8760405161059891815260200190565b60405180910390a3604051631ed7db6560e01b815260048101839052602481018290527f00000000000000000000000000000000000000000000000000000000000000006044820152606481018690527f00000000000000000000000000000000000000000000000000000000000000006001600160a01b031690631ed7db6590608401600060405180830381600087803b15801561063657600080fd5b505af115801561064a573d6000803e3d6000fd5b5050505060019350505050600161067e7f1ab5ce5b595c6e94c5fba2e588bf4eafa8b384a4fb6e188b892768e695c1bfc790565b600301559392505050565b60007f000000000000000000000000000000000000000000000000000000000000000046146106ba576103f7610e08565b507f000000000000000000000000000000000000000000000000000000000000000090565b336000908152602081815260408083206001600160a01b0386168452909152812054829061070f906000196111b1565b101561075d5760405162461bcd60e51b815260206004820152601960248201527f45524332303a20616c6c6f77616e6365206f766572666c6f7700000000000000604482015260640161045b565b50336000908152602081815260408083206001600160a01b03861684529091529020805482019055600192915050565b60007f00000000000000000000000000000000000000000000000000000000000000006001600160a01b0316635c9233016107d28460601b6001600160601b03191690565b6040516001600160e01b031960e084901b16815260048101919091527f00000000000000000000000000000000000000000000000000000000000000006024820152604401602060405180830381865afa158015610834573d6000803e3d6000fd5b505050506040513d601f19601f820116820180604052508101906103469190611198565b60405163678667cf60e11b81527f000000000000000000000000000000000000000000000000000000000000000060048201526060906000906001600160a01b037f0000000000000000000000000000000000000000000000000000000000000000169063cf0ccf9e90602401600060405180830381865afa1580156108e2573d6000803e3d6000fd5b505050506040513d6000823e601f3d908101601f1916820160405261090a919081019061110c565b509095945050505050565b336000908152602081815260408083206001600160a01b0386168452909152812054828110156109955760405162461bcd60e51b815260206004820152602560248201527f45524332303a2064656372656173656420616c6c6f77616e63652062656c6f77604482015264207a65726f60d81b606482015260840161045b565b5050336000908152602081815260408083206001600160a01b0386168452909152902080548290039055600192915050565b6000805160206111d38339815191525460009060011901610a2a5760405162461bcd60e51b815260206004820152601f60248201527f5265656e7472616e637947756172643a207265656e7472616e742063616c6c00604482015260640161045b565b60026000805160206111d38339815191525560003360601b6001600160601b03191690506000610a648560601b6001600160601b03191690565b9050846001600160a01b0316336001600160a01b03167fddf252ad1be2c89b69c2b068fc378daa952ba7f163c4a11628f55a4df523b3ef86604051610aab91815260200190565b60405180910390a3604051631ed7db6560e01b815260048101839052602481018290527f00000000000000000000000000000000000000000000000000000000000000006044820152606481018590527f00000000000000000000000000000000000000000000000000000000000000006001600160a01b031690631ed7db6590608401600060405180830381600087803b158015610b4957600080fd5b505af1158015610b5d573d6000803e3d6000fd5b505050506001925050506001610b907f1ab5ce5b595c6e94c5fba2e588bf4eafa8b384a4fb6e188b892768e695c1bfc790565b6003015592915050565b42841015610bea5760405162461bcd60e51b815260206004820152601760248201527f5045524d49545f444541444c494e455f45585049524544000000000000000000604482015260640161045b565b60006001610bf6610689565b6001600160a01b038a81166000818152600160208181526040928390208054928301905582517f6e71edae12b1b97f4d1f60370fef10105fa2faae0126114a169c64845d6126c98183015280840194909452938d166060840152608083018c905260a083015260c08083018b90528151808403909101815260e08301909152805192019190912061190160f01b6101008301526101028201929092526101228101919091526101420160408051601f198184030181528282528051602091820120600084529083018083525260ff871690820152606081018590526080810184905260a0016020604051602081039080840390855afa158015610cfd573d6000803e3d6000fd5b5050604051601f1901519150506001600160a01b03811615801590610d335750876001600160a01b0316816001600160a01b0316145b610d705760405162461bcd60e51b815260206004820152600e60248201526d24a72b20a624a22fa9a4a3a722a960911b604482015260640161045b565b6001600160a01b039081166000908152602081815260408083208a8516808552908352928190208990555188815291928a16917f8c5be1e5ebec7d5bd14f71427d1e84f3dd0314c0f7b2291e5b200ac8c7c3b925910160405180910390a350505050505050565b6040805160208082528183019092526060916000919060208201818036833750505060208101939093525090919050565b60007f8b73c3c69bb8fe3d512ecc4cf759cc79239f7b179b0ffacaa9a75d522b39400f610e547f0000000000000000000000000000000000000000000000000000000000000000610dd7565b80516020918201206040805192830193909352918101919091527fc89efdaa54c0f20c7adf612882df0950f5a951637e0307cdcb4c672f298b8bc660608201524660808201523060a082015260c00160405160208183030381529060405280519060200120905090565b60005b83811015610ed9578181015183820152602001610ec1565b50506000910152565b6020815260008251806020840152610f01816040850160208701610ebe565b601f01601f19169190910160400192915050565b6001600160a01b0381168114610f2a57600080fd5b50565b60008060408385031215610f4057600080fd5b8235610f4b81610f15565b946020939093013593505050565b600080600060608486031215610f6e57600080fd5b8335610f7981610f15565b92506020840135610f8981610f15565b929592945050506040919091013590565b60008060408385031215610fad57600080fd5b8235610fb881610f15565b91506020830135610fc881610f15565b809150509250929050565b600060208284031215610fe557600080fd5b8135610ff081610f15565b9392505050565b600080600080600080600060e0888a03121561101257600080fd5b873561101d81610f15565b9650602088013561102d81610f15565b95506040880135945060608801359350608088013560ff8116811461105157600080fd5b9699959850939692959460a0840135945060c09093013592915050565b634e487b7160e01b600052604160045260246000fd5b600082601f83011261109557600080fd5b815167ffffffffffffffff808211156110b0576110b061106e565b604051601f8301601f19908116603f011681019082821181831017156110d8576110d861106e565b816040528381528660208588010111156110f157600080fd5b611102846020830160208901610ebe565b9695505050505050565b600080600080600060a0868803121561112457600080fd5b8551945060208601519350604086015167ffffffffffffffff8082111561114a57600080fd5b61115689838a01611084565b9450606088015191508082111561116c57600080fd5b5061117988828901611084565b925050608086015161118a81610f15565b809150509295509295909350565b6000602082840312156111aa57600080fd5b5051919050565b8181038181111561034657634e487b7160e01b600052601160045260246000fdfe1ab5ce5b595c6e94c5fba2e588bf4eafa8b384a4fb6e188b892768e695c1bfcaa2646970667358221220bfd09363d8cc3f2390298f784784015006d0e7273230cb7f39b190ebcdd08a5d64736f6c63430008110033",
    "linkReferences": {}
  },
  "methodIdentifiers": {
    "DOMAIN_SEPARATOR()": "3644e515",
    "allowance(address,address)": "dd62ed3e",
    "allowances(address,address)": "55b6ed5c",
    "approve(address,uint256)": "095ea7b3",
    "balanceOf(address)": "70a08231",
    "decimals()": "313ce567",
    "decreaseAllowance(address,uint256)": "a457c2d7",
    "increaseAllowance(address,uint256)": "39509351",
    "name()": "06fdde03",
    "nonces(address)": "7ecebe00",
    "permit(address,address,uint256,uint256,uint8,bytes32,bytes32)": "d505accf",
    "symbol()": "95d89b41",
    "totalSupply()": "18160ddd",
    "transfer(address,uint256)": "a9059cbb",
    "transferFrom(address,address,uint256)": "23b872dd"
  },
  "id": 91
}