{
  "abi": [
    {
      "inputs": [
        {
          "internalType": "uint256",
          "name": "buyAmount",
          "type": "uint256"
        }
      ],
      "name": "calculateTradingCommissions",
      "outputs": [
        {
          "components": [
            {
              "internalType": "uint256",
              "name": "roughCommissionPaid",
              "type": "uint256"
            },
            {
              "internalType": "uint256",
              "name": "commissionNaymsLtd",
              "type": "uint256"
            },
            {
              "internalType": "uint256",
              "name": "commissionNDF",
              "type": "uint256"
            },
            {
              "internalType": "uint256",
              "name": "commissionSTM",
              "type": "uint256"
            },
            {
              "internalType": "uint256",
              "name": "commissionMaker",
              "type": "uint256"
            },
            {
              "internalType": "uint256",
              "name": "totalCommissions",
              "type": "uint256"
            }
          ],
          "internalType": "struct TradingCommissions",
          "name": "tc",
          "type": "tuple"
        }
      ],
      "stateMutability": "view",
      "type": "function"
    },
    {
      "inputs": [
        {
          "internalType": "uint256",
          "name": "_offerId",
          "type": "uint256"
        }
      ],
      "name": "cancelOffer",
      "outputs": [],
      "stateMutability": "nonpayable",
      "type": "function"
    },
    {
      "inputs": [
        {
          "internalType": "bytes32",
          "name": "_sellToken",
          "type": "bytes32"
        },
        {
          "internalType": "uint256",
          "name": "_sellAmount",
          "type": "uint256"
        },
        {
          "internalType": "bytes32",
          "name": "_buyToken",
          "type": "bytes32"
        },
        {
          "internalType": "uint256",
          "name": "_buyAmount",
          "type": "uint256"
        }
      ],
      "name": "executeLimitOffer",
      "outputs": [
        {
          "internalType": "uint256",
          "name": "offerId_",
          "type": "uint256"
        },
        {
          "internalType": "uint256",
          "name": "buyTokenCommissionsPaid_",
          "type": "uint256"
        },
        {
          "internalType": "uint256",
          "name": "sellTokenCommissionsPaid_",
          "type": "uint256"
        }
      ],
      "stateMutability": "nonpayable",
      "type": "function"
    },
    {
      "inputs": [
        {
          "internalType": "bytes32",
          "name": "_sellToken",
          "type": "bytes32"
        },
        {
          "internalType": "bytes32",
          "name": "_buyToken",
          "type": "bytes32"
        }
      ],
      "name": "getBestOfferId",
      "outputs": [
        {
          "internalType": "uint256",
          "name": "",
          "type": "uint256"
        }
      ],
      "stateMutability": "view",
      "type": "function"
    },
    {
      "inputs": [],
      "name": "getLastOfferId",
      "outputs": [
        {
          "internalType": "uint256",
          "name": "",
          "type": "uint256"
        }
      ],
      "stateMutability": "view",
      "type": "function"
    },
    {
      "inputs": [
        {
          "internalType": "uint256",
          "name": "_offerId",
          "type": "uint256"
        }
      ],
      "name": "getOffer",
      "outputs": [
        {
          "components": [
            {
              "internalType": "bytes32",
              "name": "creator",
              "type": "bytes32"
            },
            {
              "internalType": "bytes32",
              "name": "sellToken",
              "type": "bytes32"
            },
            {
              "internalType": "uint256",
              "name": "sellAmount",
              "type": "uint256"
            },
            {
              "internalType": "uint256",
              "name": "sellAmountInitial",
              "type": "uint256"
            },
            {
              "internalType": "bytes32",
              "name": "buyToken",
              "type": "bytes32"
            },
            {
              "internalType": "uint256",
              "name": "buyAmount",
              "type": "uint256"
            },
            {
              "internalType": "uint256",
              "name": "buyAmountInitial",
              "type": "uint256"
            },
            {
              "internalType": "uint256",
              "name": "feeSchedule",
              "type": "uint256"
            },
            {
              "internalType": "uint256",
              "name": "state",
              "type": "uint256"
            },
            {
              "internalType": "uint256",
              "name": "rankNext",
              "type": "uint256"
            },
            {
              "internalType": "uint256",
              "name": "rankPrev",
              "type": "uint256"
            }
          ],
          "internalType": "struct MarketInfo",
          "name": "_offerState",
          "type": "tuple"
        }
      ],
      "stateMutability": "view",
      "type": "function"
    },
    {
      "inputs": [],
      "name": "getTradingCommissionsBasisPoints",
      "outputs": [
        {
          "components": [
            {
              "internalType": "uint16",
              "name": "tradingCommissionTotalBP",
              "type": "uint16"
            },
            {
              "internalType": "uint16",
              "name": "tradingCommissionNaymsLtdBP",
              "type": "uint16"
            },
            {
              "internalType": "uint16",
              "name": "tradingCommissionNDFBP",
              "type": "uint16"
            },
            {
              "internalType": "uint16",
              "name": "tradingCommissionSTMBP",
              "type": "uint16"
            },
            {
              "internalType": "uint16",
              "name": "tradingCommissionMakerBP",
              "type": "uint16"
            }
          ],
          "internalType": "struct TradingCommissionsBasisPoints",
          "name": "bp",
          "type": "tuple"
        }
      ],
      "stateMutability": "view",
      "type": "function"
    },
    {
      "inputs": [
        {
          "internalType": "uint256",
          "name": "_offerId",
          "type": "uint256"
        }
      ],
      "name": "isActiveOffer",
      "outputs": [
        {
          "internalType": "bool",
          "name": "",
          "type": "bool"
        }
      ],
      "stateMutability": "view",
      "type": "function"
    }
  ],
  "bytecode": {
    "object": "0x608060405234801561001057600080fd5b506129ef806100206000396000f3fe608060405234801561001057600080fd5b50600436106100885760003560e01c80639df004801161005b5780639df004801461017a578063eb3f5926146101a8578063ed7364ae14610207578063ef706adf1461025957600080fd5b80634579268a1461008d5780634c8198dc1461012e57806359e148fc1461014f5780638d81a1d314610157575b600080fd5b6100a061009b3660046127bf565b61026e565b6040516101259190600061016082019050825182526020830151602083015260408301516040830152606083015160608301526080830151608083015260a083015160a083015260c083015160c083015260e083015160e083015261010080840151818401525061012080840151818401525061014080840151818401525092915050565b60405180910390f35b61014161013c3660046127d8565b610285565b604051908152602001610125565b610141610298565b61016a6101653660046127bf565b6102a7565b6040519015158152602001610125565b61018d6101883660046127fa565b6102b2565b60408051938452602084019290925290820152606001610125565b6101bb6101b63660046127bf565b6103bb565b6040516101259190600060c082019050825182526020830151602083015260408301516040830152606083015160608301526080830151608083015260a083015160a083015292915050565b61020f6103fd565b6040516101259190815161ffff9081168252602080840151821690830152604080840151821690830152606080840151821690830152608092830151169181019190915260a00190565b61026c6102673660046127bf565b610430565b005b61027661275c565b61027f826105d4565b92915050565b60006102918383610679565b9392505050565b60006102a26106a4565b905090565b600061027f826106b9565b600080600080356001600160e01b0319166102cc816106df565b156103135760405162461bcd60e51b8152602060048201526012602482015271199d5b98dd1a5bdb881a5cc81b1bd8dad95960721b60448201526064015b60405180910390fd5b600261031d61071d565b600301540361036e5760405162461bcd60e51b815260206004820152601f60248201527f5265656e7472616e637947756172643a207265656e7472616e742063616c6c00604482015260640161030a565b600261037861071d565b60030155600061038733610741565b9050610398818a8a8a8a6001610778565b9450945094505060016103a961071d565b60030181905550509450945094915050565b6103f46040518060c001604052806000815260200160008152602001600081526020016000815260200160008152602001600081525090565b61027f82610804565b6040805160a0810182526000808252602082018190529181018290526060810182905260808101919091526102a261095f565b6000356001600160e01b031916610446816106df565b156104885760405162461bcd60e51b8152602060048201526012602482015271199d5b98dd1a5bdb881a5cc81b1bd8dad95960721b604482015260640161030a565b600261049261071d565b60030154036104e35760405162461bcd60e51b815260206004820152601f60248201527f5265656e7472616e637947756172643a207265656e7472616e742063616c6c00604482015260640161030a565b60026104ed61071d565b6003015560016104fc836105d4565b6101000151146105415760405162461bcd60e51b815260206004820152601060248201526f6f66666572206e6f742061637469766560801b604482015260640161030a565b600061054c836105d4565b5190508061056b3360601b6bffffffffffffffffffffffff19166109da565b146105b85760405162461bcd60e51b815260206004820181905260248201527f6f6e6c79206d656d626572206f6620656e746974792063616e2063616e63656c604482015260640161030a565b6105c1836109fa565b5060016105cc61071d565b600301555050565b6105dc61275c565b60006105e661071d565b60009384526021016020908152604093849020845161016081018652815481526001820154928101929092526002810154948201949094526003840154606082015260048401546080820152600584015460a0820152600684015460c0820152600784015460e082015260088401546101008201526009840154610120820152600a909301546101408401525090919050565b60008061068461071d565b600094855260220160209081526040808620948652939052505090205490565b6000806106af61071d565b6020015492915050565b6000806106c461071d565b60009384526021016020525050604090206008015460011490565b6001600160e01b03191660009081527f47f677dbe524b93b2c36e6f8027a75c4906479c31df070fdbea83211f1a26050602052604090205460ff1690565b7f1ab5ce5b595c6e94c5fba2e588bf4eafa8b384a4fb6e188b892768e695c1bfc790565b60008061074c61071d565b60609390931b6bffffffffffffffffffffffff19166000908152600a9093016020525050604090205490565b600080600061078b898989898989610b5d565b600061079a8a8a8a8a8a610f53565b905080604001519250806060015191506107c28a8a83602001518b8b86600001518c8c6111de565b935060006107ce61071d565b6000868152602182016020526040902060080154909150600019016107f6576107f6856113a4565b505096509650969350505050565b61083d6040518060c001604052806000815260200160008152602001600081526020016000815260200160008152602001600081525090565b600061084761071d565b60268101549091506127109061086290859061ffff16612842565b61086c9190612859565b80835260268201546127109161088b9162010000900461ffff16612842565b6108959190612859565b602083015281516026820154612710916108ba91640100000000900461ffff16612842565b6108c49190612859565b604083015281516026820154612710916108e891600160301b900461ffff16612842565b6108f29190612859565b6060830152815160268201546127109161091691600160401b900461ffff16612842565b6109209190612859565b60808301819052606083015160408401516020850151610940919061287b565b61094a919061287b565b610954919061287b565b60a083015250919050565b6040805160a08101825260008082526020820181905291810182905260608101829052608081018290529061099261071d565b6026015461ffff808216845262010000820481166020850152640100000000820481166040850152600160301b820481166060850152600160401b9091041660808301525090565b6000806109e561071d565b6000938452600a016020525050604090205490565b6000610a0461071d565b9050610a0f82611529565b15610a1d57610a1d826115be565b60008281526021820160209081526040918290208251610160810184528154815260018201549281019290925260028101549282018390526003810154606083015260048101546080830152600581015460a0830152600681015460c0830152600781015460e083015260088101546101008301526009810154610120830152600a01546101408201529015610af55760408082015160008581526021850160209081528382208054835260278701825284832060019091015483529052918220805491929091610aef90849061288e565b90915550505b600381610100015114610b58576000838152602183016020908152604091829020600260089091015582518382015192519283529185917fc5ccc63c607b224c3650887a47d3852b5acbc0d610aa5ee44c108c042cce8631910160405180910390a35b505050565b6000610b6761071d565b90508615801590610b8857506000878152600f8201602052604090205460ff165b610be55760405162461bcd60e51b815260206004820152602860248201527f6f66666572206d757374206265206d61646520627920616e206578697374696e6044820152676720656e7469747960c01b606482015260840161030a565b6000868152600f8201602052604081205460ff16906013830181610c088a611854565b6001600160a01b031681526020808201929092526040908101600090812054898252600f87019093529081205460ff9283169350909116906013850181610c4e8a611854565b6001600160a01b0316815260208101919091526040016000205460ff169050610c7789886118b9565b8380610c805750825b610ccc5760405162461bcd60e51b815260206004820152601860248201527f73656c6c20746f6b656e206d7573742062652076616c69640000000000000000604482015260640161030a565b8180610cd55750805b610d215760405162461bcd60e51b815260206004820152601760248201527f62757920746f6b656e206d7573742062652076616c6964000000000000000000604482015260640161030a565b878a03610d705760405162461bcd60e51b815260206004820152601e60248201527f63616e6e6f742073656c6c20616e64206275792073616d6520746f6b656e0000604482015260640161030a565b838015610d7a5750805b80610d8a5750828015610d8a5750815b610df55760405162461bcd60e51b815260206004820152603660248201527f6d757374206265206f6e652070617274696369706174696f6e20746f6b656e2060448201527530b7321037b7329032bc3a32b93730b6103a37b5b2b760511b606482015260840161030a565b60008a815260158601602090815260408083208e8452909152902054891115610e575760405162461bcd60e51b8152602060048201526014602482015273696e73756666696369656e742062616c616e636560601b604482015260640161030a565b60008b815260278601602090815260408083208d84528252808320546015890183528184208f8552909252909120548a91610e919161288e565b1015610ef45760405162461bcd60e51b815260206004820152602c60248201527f696e73756666696369656e742062616c616e636520617661696c61626c652c2060448201526b199d5b991cc81b1bd8dad95960a21b606482015260840161030a565b6002861480610f035750600186145b610f465760405162461bcd60e51b8152602060048201526014602482015273199959481cd8da19591d5b19481a5b9d985b1a5960621b604482015260640161030a565b5050505050505050505050565b610f7e6040518060800160405280600081526020016000815260200160008152602001600081525090565b6000610f8861071d565b83835260208301869052905060006013820181610fa487611854565b6001600160a01b0316815260208101919091526040016000205460ff1690505b602083015115801590610fde57508080610fde5750825115155b156111d357600085815260228301602090815260408083208a84529091528120549081900361100d57506111d3565b6000818152602184016020908152604090912060058101546002909101549186015190919061103c9082612842565b86516110489084612842565b1115611056575050506111d3565b600080851561110057602080890151600087815260218a019092526040909120600501541061108957876020015161109e565b60008581526021880160205260409020600501545b600086815260218901602052604090206005810154600290910154919350906110c79084612842565b6110d19190612859565b905060006110e2868f84868b611a06565b905080896040018181516110f6919061287b565b9052506111949050565b8751600086815260218901602052604090206002015410611122578751611137565b60008581526021880160205260409020600201545b600086815260218901602052604090206002810154600590910154919250906111609083612842565b61116a9190612859565b9150600061117b868f84868b611a06565b9050808960600181815161118f919061287b565b905250505b81886020018181516111a6919061288e565b905250875181116111c35787516111be90829061288e565b6111c6565b60005b885250610fc49350505050565b505095945050505050565b6000806111e961071d565b9050600081602001600081546111fe906128a1565b9182905550905061120d61275c565b8b8152602081018b9052604081018a9052606081018990526080810188905260a0810187905260c0810186905260e081018590526001871080611250575060018a105b1561126257600361010082015261129b565b600161010082015260008c815260278401602090815260408083208e8452909152812080548c929061129590849061287b565b90915550505b80836021016000848152602001908152602001600020600082015181600001556020820151816001015560408201518160020155606082015181600301556080820151816004015560a0820151816005015560c0820151816006015560e082015181600701556101008201518160080155610120820151816009015561014082015181600a01559050508a8160000151837fb5cf98fe77c5b4c06e3bb6a62e9589418ff5d382b8da474d04cdc38e223a18d18d8d8d8d8d89610100015160405161138d96959493929190958652602086019490945260408501929092526060840152608083015260a082015260c00190565b60405180910390a4509a9950505050505050505050565b60006113ae61071d565b90506113b982611529565b156114065760405162461bcd60e51b815260206004820152601c60248201527f6f6666657220616c726561647920696e20736f72746564206c69737400000000604482015260640161030a565b60008281526021820160209081526040808320600181015460049091015481855260228601845282852081865290935290832054909290815b811580159061145357506114538783611be0565b15611473575060008181526021860160205260409020600a01549061143f565b8080156114a6576000818152602188016020526040808220600a018054908b90558a8352912060090182905593506114ca565b60008681526022880160209081526040808320888452909152902080549089905593505b83156114f35760008481526021880160205260408082206009018a90558982529020600a018490555b60008681526023880160209081526040808320888452909152812080549161151a836128a1565b91905055505050505050505050565b60008061153461071d565b6000848152602182016020526040902060018101546004909101549192509084158015906115b557506000858152602184016020526040902060090154151580611590575060008581526021840160205260409020600a015415155b806115b557506000828152602284016020908152604080832084845290915290205485145b95945050505050565b60006115c861071d565b90506115d382611529565b61161f5760405162461bcd60e51b815260206004820152601860248201527f6f66666572206e6f7420696e20736f72746564206c6973740000000000000000604482015260640161030a565b60008281526021820160209081526040808320600181015460049091015481855260238601845282852081865290935292205461169e5760405162461bcd60e51b815260206004820152601e60248201527f746f6b656e2070616972206c69737420646f6573206e6f742065786973740000604482015260640161030a565b600082815260228401602090815260408083208484529091529020548414611743576000848152602184016020526040808220600901548083529120600a015485146117205760405162461bcd60e51b81526020600482015260116024820152701cdbdc9d0818da1958dac819985a5b1959607a1b604482015260640161030a565b6000858152602185016020526040808220600a9081015493835291200155611771565b60008481526021840160209081526040808320600a0154858452602287018352818420858552909252909120555b60008481526021840160205260409020600a015415611809576000848152602184016020526040808220600a015480835291206009015485146117ea5760405162461bcd60e51b81526020600482015260116024820152701cdbdc9d0818da1958dac819985a5b1959607a1b604482015260640161030a565b6000858152602185016020526040808220600990810154938352912001555b6000848152602184016020908152604080832060098101849055600a018390558483526023860182528083208484529091528120805491611849836128ba565b919050555050505050565b60006bffffffffffffffffffffffff8216156118b25760405162461bcd60e51b815260206004820152601e60248201527f496e76616c69642065787465726e616c20746f6b656e20616464726573730000604482015260640161030a565b5060601c90565b6001600160801b0382111561191a5760405162461bcd60e51b815260206004820152602160248201527f73656c6c20616d6f756e7420657863656564732075696e74313238206c696d696044820152601d60fa1b606482015260840161030a565b6001600160801b038111156119715760405162461bcd60e51b815260206004820181905260248201527f62757920616d6f756e7420657863656564732075696e74313238206c696d6974604482015260640161030a565b600082116119ba5760405162461bcd60e51b8152602060048201526016602482015275073656c6c20616d6f756e74206d757374206265203e360541b604482015260640161030a565b60008111611a025760405162461bcd60e51b8152602060048201526015602482015274062757920616d6f756e74206d757374206265203e3605c1b604482015260640161030a565b5050565b600080611a1161071d565b9050611a1e878686611c40565b600087815260218201602052604090206007015460001901611a94578215611a6c57600087815260218201602052604090208054600190910154611a659190889088611d65565b9150611a94565b600087815260218201602052604090208054600490910154611a919190889087611d65565b91505b6000878152602182016020908152604080832080548452602785018352818420600190910154845290915281208054879290611ad190849061288e565b9091555050600087815260218201602052604090208054600190910154611afb9190889088611f96565b50600087815260218201602052604090208054600490910154611b2091889187611f96565b50600087815260218201602052604090206002015460011115611b5e57600087815260218201602052604090206003600890910155611b5e876109fa565b6000878152602182016020908152604091829020600181015460028201546004830154600584015460089094015486519283529482015293840191909152606083019190915290879089907ff6cd95e7491084abac93a47460beaee4f922948104ea1fe7e3fc7e4481c3fce49060800160405180910390a45095945050505050565b600080611beb61071d565b600085815260218201602052604080822060028082015460059283015489865293909420908101549101549394509192909190611c288482612842565b611c328385612842565b101598975050505050505050565b6000611c4a61071d565b9050600080611c58866121e0565b91509150611c6685856118b9565b8060200151841115611cba5760405162461bcd60e51b815260206004820152601e60248201527f7265717565737465642062757920616d6f756e7420746f6f206c617267650000604482015260640161030a565b8160200151851115611d0e5760405162461bcd60e51b815260206004820181905260248201527f63616c63756c617465642073656c6c20616d6f756e7420746f6f206c61726765604482015260640161030a565b848260200151611d1e919061288e565b6000878152602185016020908152604090912060020191909155810151611d4690859061288e565b6000968752602190930160205250506040909320600501929092555050565b600080611d7061071d565b602681015490915061271061ffff9091161115611dd95760405162461bcd60e51b815260206004820152602160248201527f636f6d6d697373696f6e20746f74616c206d7573742062653c3d3130303030626044820152600760fc1b606482015260840161030a565b60268101546127109061ffff600160401b8204811691600160301b8104821691611e1591640100000000810482169162010000909104166128d1565b611e1f91906128d1565b611e2991906128d1565b61ffff161115611e7b5760405162461bcd60e51b815260206004820152601d60248201527f636f6d6d697373696f6e732073756d206f766572203130303030206270000000604482015260640161030a565b6000611e8684610804565b9050611ec186611eb66040518060400160405280600981526020016813985e5b5cc8131d1960ba1b815250612256565b878460200151611f96565b50611ef586611eea6040518060400160405280600381526020016227222360e91b815250612256565b878460400151611f96565b50611f3786611f2c604051806040016040528060118152602001705374616b696e67204d656368616e69736d60781b815250612256565b878460600151611f96565b50611f488688878460800151611f96565b5060a0810151604080518781526020810183905291945087917f8b95974c6b09572b97a218c031984bc5fea45144a012bb6e7fcf5a45f278d532910160405180910390a25050949350505050565b600080611fa161071d565b600085815260158201602090815260408083208a845290915290205490915083111561201f5760405162461bcd60e51b815260206004820152602760248201527f5f696e7465726e616c5472616e736665723a20696e73756666696369656e742060448201526662616c616e636560c81b606482015260840161030a565b600086815260278201602090815260408083208784528252808320546015850183528184208a85529092529091205484916120599161288e565b10156120cd5760405162461bcd60e51b815260206004820152603f60248201527f5f696e7465726e616c5472616e736665723a20696e73756666696369656e742060448201527f62616c616e636520617661696c61626c652c2066756e6473206c6f636b656400606482015260840161030a565b6120d78685612261565b600084815260158201602090815260408083208984529091528120805485929061210290849061288e565b9091555050600084815260158201602090815260408083208884529091528120805485929061213290849061287b565b909155506121469050868686866000612314565b6000848152601582016020908152604080832089845290915290819020549051879160008051602061299a8339815191529161218591889133906128f3565b60405180910390a26000848152601582016020908152604080832088845290915290819020549051869160008051602061299a833981519152916121cc91889133906128f3565b60405180910390a250600195945050505050565b60408051808201909152600080825260208201526040805180820190915260008082526020820152600061221261071d565b600085815260219091016020818152604083206001810154875260028101548783015260048101548652969092528152600590940154938201939093529092909150565b600061027f826124e8565b600061226b61071d565b60008381526018820160209081526040808320805482518185028101850190935280835294955092939092918301828280156122c657602002820191906000526020600020905b8154815260200190600101908083116122b2575b5050505050905060005b815181101561230d576122fd85858484815181106122f0576122f061293b565b6020026020010151612503565b612306816128a1565b90506122d0565b5050505050565b600061231e61071d565b9050600061232b856126ec565b600086815260188401602090815260408083208054825181850281018501909352808352949550929390929183018282801561238657602002820191906000526020600020905b815481526020019060010190808311612372575b5050505050905060005b81518110156124dd5760008282815181106123ad576123ad61293b565b60209081029190910181015160008a8152601b88018352604080822083835290935291822054909250906123e38987848461270c565b60008b8152601c89016020908152604080832087845282528083208f845290915281208054929350839290919061241b90849061287b565b90915550508b1561245f5760008a8152601c88016020908152604080832086845282528083208f84529091528120805483929061245990849061288e565b90915550505b87156124c95760008a8152601b880160209081526040808320868452909152902054869061248e908b90612842565b6124989190612859565b60008b8152601b890160209081526040808320878452909152812080549091906124c390849061287b565b90915550505b505050806124d6906128a1565b9050612390565b505050505050505050565b600081516000036124fb57506000919050565b506020015190565b600061250d61071d565b9050600061253f6040518060400160405280600d81526020016c4469766964656e642042616e6b60981b815250612256565b60008581526015840160209081526040808320898452909152812054919250612567866126ec565b6000878152601b8601602090815260408083208984528252808320548a8452601c890183528184208a855283528184208c855290925282205492935091906125b18585858561270c565b905080156126e0576000898152601c8801602090815260408083208b845282528083208d8452909152812080548392906125ec90849061287b565b9091555050600088815260158801602090815260408083208984529091528120805483929061261c90849061288e565b9091555050600088815260158801602090815260408083208d84529091528120805483929061264c90849061287b565b90915550506000888152601588016020908152604080832089845290915290819020549051879160008051602061299a83398151915291612690918c913390612951565b60405180910390a2600088815260158801602090815260408083208d8452909152908190205490518b9160008051602061299a833981519152916126d7918c913390612951565b60405180910390a25b50505050505050505050565b6000806126f761071d565b60009384526016016020525050604090205490565b6000806127198685612842565b9050600085156127325761272d8683612859565b612735565b60005b90508084101561274e57612749848261288e565b612751565b60005b979650505050505050565b60405180610160016040528060008019168152602001600080191681526020016000815260200160008152602001600080191681526020016000815260200160008152602001600081526020016000815260200160008152602001600081525090565b6000602082840312156127d157600080fd5b5035919050565b600080604083850312156127eb57600080fd5b50508035926020909101359150565b6000806000806080858703121561281057600080fd5b5050823594602084013594506040840135936060013592509050565b634e487b7160e01b600052601160045260246000fd5b808202811582820484141761027f5761027f61282c565b60008261287657634e487b7160e01b600052601260045260246000fd5b500490565b8082018082111561027f5761027f61282c565b8181038181111561027f5761027f61282c565b6000600182016128b3576128b361282c565b5060010190565b6000816128c9576128c961282c565b506000190190565b61ffff8181168382160190808211156128ec576128ec61282c565b5092915050565b9283526020830191909152608060408301819052601190830152702fb4b73a32b93730b62a3930b739b332b960791b60a08301526001600160a01b0316606082015260c00190565b634e487b7160e01b600052603260045260246000fd5b92835260208301919091526080604083018190526011908301527017ddda5d1a191c985dd11a5d9a59195b99607a1b60a08301526001600160a01b0316606082015260c0019056fe2a6b96e51c5252b8e3666030ed958aec041736a7af1773a4e5833bac27b47e3ba264697066735822122028de60a608e1ec5a772bba05e55ad5b02a435cbd6ca21c1644d825a70888b58d64736f6c63430008110033",
    "linkReferences": {}
  },
  "methodIdentifiers": {
    "calculateTradingCommissions(uint256)": "eb3f5926",
    "cancelOffer(uint256)": "ef706adf",
    "executeLimitOffer(bytes32,uint256,bytes32,uint256)": "9df00480",
    "getBestOfferId(bytes32,bytes32)": "4c8198dc",
    "getLastOfferId()": "59e148fc",
    "getOffer(uint256)": "4579268a",
    "getTradingCommissionsBasisPoints()": "ed7364ae",
    "isActiveOffer(uint256)": "8d81a1d3"
  },
  "id": 47
}