{
  "abi": [
    {
      "anonymous": false,
      "inputs": [
        {
          "indexed": false,
          "internalType": "bytes32",
          "name": "id",
          "type": "bytes32"
        },
        {
          "indexed": false,
          "internalType": "address",
          "name": "who",
          "type": "address"
        }
      ],
      "name": "CreateUpgrade",
      "type": "event"
    },
    {
      "anonymous": false,
      "inputs": [
        {
          "indexed": false,
          "internalType": "uint256",
          "name": "duration",
          "type": "uint256"
        }
      ],
      "name": "UpdateUpgradeExpiration",
      "type": "event"
    },
    {
      "anonymous": false,
      "inputs": [
        {
          "indexed": false,
          "internalType": "bytes32",
          "name": "id",
          "type": "bytes32"
        },
        {
          "indexed": false,
          "internalType": "address",
          "name": "who",
          "type": "address"
        }
      ],
      "name": "UpgradeCancelled",
      "type": "event"
    },
    {
      "inputs": [
        {
          "internalType": "bytes32",
          "name": "id",
          "type": "bytes32"
        }
      ],
      "name": "cancelUpgrade",
      "outputs": [],
      "stateMutability": "nonpayable",
      "type": "function"
    },
    {
      "inputs": [
        {
          "internalType": "bytes32",
          "name": "id",
          "type": "bytes32"
        }
      ],
      "name": "createUpgrade",
      "outputs": [],
      "stateMutability": "nonpayable",
      "type": "function"
    },
    {
      "inputs": [
        {
          "internalType": "bytes32",
          "name": "id",
          "type": "bytes32"
        }
      ],
      "name": "getUpgrade",
      "outputs": [
        {
          "internalType": "uint256",
          "name": "expiry",
          "type": "uint256"
        }
      ],
      "stateMutability": "view",
      "type": "function"
    },
    {
      "inputs": [],
      "name": "getUpgradeExpiration",
      "outputs": [
        {
          "internalType": "uint256",
          "name": "upgradeExpiration",
          "type": "uint256"
        }
      ],
      "stateMutability": "view",
      "type": "function"
    },
    {
      "inputs": [],
      "name": "isDiamondInitialized",
      "outputs": [
        {
          "internalType": "bool",
          "name": "",
          "type": "bool"
        }
      ],
      "stateMutability": "view",
      "type": "function"
    },
    {
      "inputs": [
        {
          "internalType": "uint256",
          "name": "duration",
          "type": "uint256"
        }
      ],
      "name": "updateUpgradeExpiration",
      "outputs": [],
      "stateMutability": "nonpayable",
      "type": "function"
    }
  ],
  "bytecode": {
    "object": "0x608060405234801561001057600080fd5b506106e8806100206000396000f3fe608060405234801561001057600080fd5b50600436106100625760003560e01c806310a2bbed146100675780631d5102171461008f57806322f153db146100a4578063337781ea146100f1578063371d624414610104578063e13b9b1414610117575b600080fd5b6000805160206106938339815191525460ff1660405190151581526020015b60405180910390f35b6100a261009d36600461062c565b61013e565b005b6100e36100b236600461062c565b60009081527f1ab5ce5b595c6e94c5fba2e588bf4eafa8b384a4fb6e188b892768e695c1bfef602052604090205490565b604051908152602001610086565b6100a26100ff36600461062c565b6102bd565b6100a261011236600461062c565b6103b2565b7f1ab5ce5b595c6e94c5fba2e588bf4eafa8b384a4fb6e188b892768e695c1bff0546100e3565b61019c61016161014c61048a565b60601b6bffffffffffffffffffffffff191690565b6101696104e6565b6101976040518060400160405280600d81526020016c53797374656d2041646d696e7360981b815250610514565b610525565b6101c15760405162461bcd60e51b81526004016101b890610645565b60405180910390fd5b60008181527f1ab5ce5b595c6e94c5fba2e588bf4eafa8b384a4fb6e188b892768e695c1bfef6020526040902054600080516020610693833981519152904210156102595760405162461bcd60e51b815260206004820152602260248201527f557067726164652068617320616c7265616479206265656e207363686564756c604482015261195960f21b60648201526084016101b8565b60298101546102689042610671565b600083815260288301602090815260409182902092909255805184815233928101929092527f3a44e179d9e19e4401346b6bded52859fff9aa9543bff59d04f48cd5c86056a191015b60405180910390a15050565b6102cb61016161014c61048a565b6102e75760405162461bcd60e51b81526004016101b890610645565b60008181527f1ab5ce5b595c6e94c5fba2e588bf4eafa8b384a4fb6e188b892768e695c1bfef6020526040902054600080516020610693833981519152906103665760405162461bcd60e51b81526020600482015260126024820152711a5b9d985b1a59081d5c19dc98591948125160721b60448201526064016101b8565b6000828152602882016020908152604080832092909255815184815233918101919091527f01a336412585b8675d19f339f8e31aca56990a1a2f0b4526aa86e2bcfa3660a391016102b1565b6103c061016161014c61048a565b6103dc5760405162461bcd60e51b81526004016101b890610645565b600080516020610693833981519152603c821180156103fd575062093a8082105b6104535760405162461bcd60e51b815260206004820152602160248201527f696e76616c696420757067726164652065787069726174696f6e20706572696f6044820152601960fa1b60648201526084016101b8565b602981018290556040518281527f8f6d4287e1a643ad848fe5c460fdac7c1294b9ca04b7022b055e7f664cf9efdf906020016102b1565b60003033036104e057600080368080601f0160208091040260200160405190810160405280939291908181526020018383808284376000920191909152505050503601516001600160a01b031691506104e39050565b50335b90565b600061050f6040518060400160405280600681526020016553797374656d60d01b815250610514565b905090565b600061051f82610611565b92915050565b60008381527f1ab5ce5b595c6e94c5fba2e588bf4eafa8b384a4fb6e188b892768e695c1bfe66020908152604080832085845290915281205460008051602061069383398151915290801580159061059857506000818152601d83016020908152604080832087845290915290205460ff165b156105a65760019250610608565b6000868152601f830160205260408120816105bf6104e6565b8152602081019190915260400160002054905080158015906105fc57506000818152601d84016020908152604080832088845290915290205460ff165b1561060657600193505b505b50509392505050565b6000815160000361062457506000919050565b506020015190565b60006020828403121561063e57600080fd5b5035919050565b6020808252601290820152713737ba10309039bcb9ba32b69030b236b4b760711b604082015260600190565b8082018082111561051f57634e487b7160e01b600052601160045260246000fdfe1ab5ce5b595c6e94c5fba2e588bf4eafa8b384a4fb6e188b892768e695c1bfc7a2646970667358221220b143a8018751ae406e6edae8bbfb4cb56673b5b596941b8149adae12e2fe314164736f6c63430008110033",
    "linkReferences": {}
  },
  "methodIdentifiers": {
    "cancelUpgrade(bytes32)": "337781ea",
    "createUpgrade(bytes32)": "1d510217",
    "getUpgrade(bytes32)": "22f153db",
    "getUpgradeExpiration()": "e13b9b14",
    "isDiamondInitialized()": "10a2bbed",
    "updateUpgradeExpiration(uint256)": "371d6244"
  },
  "id": 46
}