{
  "abi": [
    {
      "inputs": [
        {
          "internalType": "uint256",
          "name": "buyAmount",
          "type": "uint256"
        }
      ],
      "name": "calculateTradingCommissionsFixture",
      "outputs": [
        {
          "components": [
            {
              "internalType": "uint256",
              "name": "roughCommissionPaid",
              "type": "uint256"
            },
            {
              "internalType": "uint256",
              "name": "commissionNaymsLtd",
              "type": "uint256"
            },
            {
              "internalType": "uint256",
              "name": "commissionNDF",
              "type": "uint256"
            },
            {
              "internalType": "uint256",
              "name": "commissionSTM",
              "type": "uint256"
            },
            {
              "internalType": "uint256",
              "name": "commissionMaker",
              "type": "uint256"
            },
            {
              "internalType": "uint256",
              "name": "totalCommissions",
              "type": "uint256"
            }
          ],
          "internalType": "struct TradingCommissions",
          "name": "tc",
          "type": "tuple"
        }
      ],
      "stateMutability": "view",
      "type": "function"
    },
    {
      "inputs": [],
      "name": "getPremiumCommissionBasisPointsFixture",
      "outputs": [
        {
          "components": [
            {
              "internalType": "uint16",
              "name": "premiumCommissionNaymsLtdBP",
              "type": "uint16"
            },
            {
              "internalType": "uint16",
              "name": "premiumCommissionNDFBP",
              "type": "uint16"
            },
            {
              "internalType": "uint16",
              "name": "premiumCommissionSTMBP",
              "type": "uint16"
            }
          ],
          "internalType": "struct PolicyCommissionsBasisPoints",
          "name": "bp",
          "type": "tuple"
        }
      ],
      "stateMutability": "view",
      "type": "function"
    },
    {
      "inputs": [],
      "name": "getTradingCommissionsBasisPointsFixture",
      "outputs": [
        {
          "components": [
            {
              "internalType": "uint16",
              "name": "tradingCommissionTotalBP",
              "type": "uint16"
            },
            {
              "internalType": "uint16",
              "name": "tradingCommissionNaymsLtdBP",
              "type": "uint16"
            },
            {
              "internalType": "uint16",
              "name": "tradingCommissionNDFBP",
              "type": "uint16"
            },
            {
              "internalType": "uint16",
              "name": "tradingCommissionSTMBP",
              "type": "uint16"
            },
            {
              "internalType": "uint16",
              "name": "tradingCommissionMakerBP",
              "type": "uint16"
            }
          ],
          "internalType": "struct TradingCommissionsBasisPoints",
          "name": "bp",
          "type": "tuple"
        }
      ],
      "stateMutability": "view",
      "type": "function"
    },
    {
      "inputs": [
        {
          "internalType": "bytes32",
          "name": "_policyId",
          "type": "bytes32"
        },
        {
          "internalType": "uint256",
          "name": "_premiumPaid",
          "type": "uint256"
        }
      ],
      "name": "payPremiumCommissions",
      "outputs": [],
      "stateMutability": "nonpayable",
      "type": "function"
    },
    {
      "inputs": [
        {
          "internalType": "bytes32",
          "name": "_makerId",
          "type": "bytes32"
        },
        {
          "internalType": "bytes32",
          "name": "_takerId",
          "type": "bytes32"
        },
        {
          "internalType": "bytes32",
          "name": "_tokenId",
          "type": "bytes32"
        },
        {
          "internalType": "uint256",
          "name": "_requestedBuyAmount",
          "type": "uint256"
        }
      ],
      "name": "payTradingCommissions",
      "outputs": [
        {
          "internalType": "uint256",
          "name": "commissionPaid_",
          "type": "uint256"
        }
      ],
      "stateMutability": "nonpayable",
      "type": "function"
    }
  ],
  "bytecode": {
    "object": "0x608060405234801561001057600080fd5b50611319806100206000396000f3fe608060405234801561001057600080fd5b50600436106100575760003560e01c80632313d5191461005c578063328c180c1461008257806339931810146100d45780639e08b665146100e9578063db6048a21461011e575b600080fd5b61006f61006a3660046110c0565b61017d565b6040519081526020015b60405180910390f35b61008a610194565b6040516100799190815161ffff9081168252602080840151821690830152604080840151821690830152606080840151821690830152608092830151169181019190915260a00190565b6100e76100e23660046110f2565b610227565b005b6100f1610235565b60408051825161ffff90811682526020808501518216908301529282015190921690820152606001610079565b61013161012c366004611114565b61029f565b6040516100799190600060c082019050825182526020830151602083015260408301516040830152606083015160608301526080830151608083015260a083015160a083015292915050565b600061018b858585856102e7565b95945050505050565b6040805160a0810182526000808252602082018190529181018290526060810182905260808101919091526102226040805160a0810182526000805160206112848339815191525461ffff8082168352620100008204811660208401526401000000008204811693830193909352600160301b810483166060830152600160401b9004909116608082015290565b905090565b610231828261052d565b5050565b60408051606081018252600080825260208201819052918101919091526102226040805160608101825260008051602061128483398151915254600160501b810461ffff9081168352600160601b820481166020840152600160701b909104169181019190915290565b6102d86040518060c001604052806000815260200160008152602001600081526020016000815260200160008152602001600081525090565b6102e182610795565b92915050565b600080516020611284833981519152546000906000805160206112a48339815191529061271061ffff90911611156103705760405162461bcd60e51b815260206004820152602160248201527f636f6d6d697373696f6e20746f74616c206d7573742062653c3d3130303030626044820152600760fc1b60648201526084015b60405180910390fd5b60268101546127109061ffff600160401b8204811691600160301b81048216916103ac9164010000000081048216916201000090910416611143565b6103b69190611143565b6103c09190611143565b61ffff1611156104125760405162461bcd60e51b815260206004820152601d60248201527f636f6d6d697373696f6e732073756d206f7665722031303030302062700000006044820152606401610367565b600061041d84610795565b90506104588661044d6040518060400160405280600981526020016813985e5b5cc8131d1960ba1b8152506108fe565b878460200151610909565b5061048c866104816040518060400160405280600381526020016227222360e91b8152506108fe565b878460400151610909565b506104ce866104c3604051806040016040528060118152602001705374616b696e67204d656368616e69736d60781b8152506108fe565b878460600151610909565b506104df8688878460800151610909565b5060a0810151604080518781526020810183905291945087917f8b95974c6b09572b97a218c031984bc5fea45144a012bb6e7fcf5a45f278d532910160405180910390a25050949350505050565b60008281527f1ab5ce5b595c6e94c5fba2e588bf4eafa8b384a4fb6e188b892768e695c1bfd9602090815260408083208151610140810183528154815260018201548185015260028201548184015260038201546060820152600482015460ff808216151560808401526101009182900416151560a0830152600583015460c0830152600683015460e08301526007830180548551818802810188019096528086526000805160206112a4833981519152979693959286019383018282801561061557602002820191906000526020600020905b815481526020019060010190808311610601575b505050505081526020016008820180548060200260200160405190810160405280929190818152602001828054801561066d57602002820191906000526020600020905b815481526020019060010190808311610659575b505050505081525050905060006106af8560009081527f1ab5ce5b595c6e94c5fba2e588bf4eafa8b384a4fb6e188b892768e695c1bfd1602052604090205490565b61010083015151909150600090815b8181101561075057600061271086610120015183815181106106e2576106e2611165565b6020026020010151896106f5919061117b565b6106ff9190611192565b905061072f85876101000151848151811061071c5761071c611165565b6020026020010151886040015184610909565b5061073a81856111b4565b9350508080610748906111c7565b9150506106be565b5082877f38ae91bc7a2dd078082b137e8adf55878f8d04124a618905f49398cc80be24828460405161078491815260200190565b60405180910390a350505050505050565b6107ce6040518060c001604052806000815260200160008152602001600081526020016000815260200160008152602001600081525090565b600080516020611284833981519152546000805160206112a4833981519152906127109061080190859061ffff1661117b565b61080b9190611192565b80835260268201546127109161082a9162010000900461ffff1661117b565b6108349190611192565b6020830152815160268201546127109161085991640100000000900461ffff1661117b565b6108639190611192565b6040830152815160268201546127109161088791600160301b900461ffff1661117b565b6108919190611192565b606083015281516026820154612710916108b591600160401b900461ffff1661117b565b6108bf9190611192565b608083018190526060830151604084015160208501516108df91906111b4565b6108e991906111b4565b6108f391906111b4565b60a083015250919050565b60006102e182610b72565b60008281527f1ab5ce5b595c6e94c5fba2e588bf4eafa8b384a4fb6e188b892768e695c1bfdc602090815260408083208784529091528120546000805160206112a4833981519152908311156109b15760405162461bcd60e51b815260206004820152602760248201527f5f696e7465726e616c5472616e736665723a20696e73756666696369656e742060448201526662616c616e636560c81b6064820152608401610367565b600086815260278201602090815260408083208784528252808320546015850183528184208a85529092529091205484916109eb916111e0565b1015610a5f5760405162461bcd60e51b815260206004820152603f60248201527f5f696e7465726e616c5472616e736665723a20696e73756666696369656e742060448201527f62616c616e636520617661696c61626c652c2066756e6473206c6f636b6564006064820152608401610367565b610a698685610b8d565b6000848152601582016020908152604080832089845290915281208054859290610a949084906111e0565b90915550506000848152601582016020908152604080832088845290915281208054859290610ac49084906111b4565b90915550610ad89050868686866000610c5c565b600084815260158201602090815260408083208984529091529081902054905187916000805160206112c483398151915291610b1791889133906111f3565b60405180910390a2600084815260158201602090815260408083208884529091529081902054905186916000805160206112c483398151915291610b5e91889133906111f3565b60405180910390a250600195945050505050565b60008151600003610b8557506000919050565b506020015190565b60008181527f1ab5ce5b595c6e94c5fba2e588bf4eafa8b384a4fb6e188b892768e695c1bfdf6020908152604080832080548251818502810185019093528083526000805160206112a48339815191529493830182828015610c0e57602002820191906000526020600020905b815481526020019060010190808311610bfa575b5050505050905060005b8151811015610c5557610c458585848481518110610c3857610c38611165565b6020026020010151610e6a565b610c4e816111c7565b9050610c18565b5050505050565b60008381527f1ab5ce5b595c6e94c5fba2e588bf4eafa8b384a4fb6e188b892768e695c1bfdd60209081526040808320547f1ab5ce5b595c6e94c5fba2e588bf4eafa8b384a4fb6e188b892768e695c1bfdf835281842080548351818602810186019094528084526000805160206112a4833981519152959294929392830182828015610d0857602002820191906000526020600020905b815481526020019060010190808311610cf4575b5050505050905060005b8151811015610e5f576000828281518110610d2f57610d2f611165565b60209081029190910181015160008a8152601b8801835260408082208383529093529182205490925090610d6589878484611070565b60008b8152601c89016020908152604080832087845282528083208f8452909152812080549293508392909190610d9d9084906111b4565b90915550508b15610de15760008a8152601c88016020908152604080832086845282528083208f845290915281208054839290610ddb9084906111e0565b90915550505b8715610e4b5760008a8152601b8801602090815260408083208684529091529020548690610e10908b9061117b565b610e1a9190611192565b60008b8152601b89016020908152604080832087845290915281208054909190610e459084906111b4565b90915550505b50505080610e58906111c7565b9050610d12565b505050505050505050565b60006000805160206112a483398151915290506000610ead6040518060400160405280600d81526020016c4469766964656e642042616e6b60981b8152506108fe565b600085815260158401602090815260408083208984528252808320548884527f1ab5ce5b595c6e94c5fba2e588bf4eafa8b384a4fb6e188b892768e695c1bfdd835281842054601b880184528285208986528452828520548a8652601c890185528386208a875285528386208c875290945291842054949550939092610f3585858585611070565b90508015611064576000898152601c8801602090815260408083208b845282528083208d845290915281208054839290610f709084906111b4565b90915550506000888152601588016020908152604080832089845290915281208054839290610fa09084906111e0565b9091555050600088815260158801602090815260408083208d845290915281208054839290610fd09084906111b4565b9091555050600088815260158801602090815260408083208984529091529081902054905187916000805160206112c483398151915291611014918c91339061123b565b60405180910390a2600088815260158801602090815260408083208d8452909152908190205490518b916000805160206112c48339815191529161105b918c91339061123b565b60405180910390a25b50505050505050505050565b60008061107d868561117b565b905060008515611096576110918683611192565b611099565b60005b9050808410156110b2576110ad84826111e0565b6110b5565b60005b979650505050505050565b600080600080608085870312156110d657600080fd5b5050823594602084013594506040840135936060013592509050565b6000806040838503121561110557600080fd5b50508035926020909101359150565b60006020828403121561112657600080fd5b5035919050565b634e487b7160e01b600052601160045260246000fd5b61ffff81811683821601908082111561115e5761115e61112d565b5092915050565b634e487b7160e01b600052603260045260246000fd5b80820281158282048414176102e1576102e161112d565b6000826111af57634e487b7160e01b600052601260045260246000fd5b500490565b808201808211156102e1576102e161112d565b6000600182016111d9576111d961112d565b5060010190565b818103818111156102e1576102e161112d565b9283526020830191909152608060408301819052601190830152702fb4b73a32b93730b62a3930b739b332b960791b60a08301526001600160a01b0316606082015260c00190565b92835260208301919091526080604083018190526011908301527017ddda5d1a191c985dd11a5d9a59195b99607a1b60a08301526001600160a01b0316606082015260c0019056fe1ab5ce5b595c6e94c5fba2e588bf4eafa8b384a4fb6e188b892768e695c1bfed1ab5ce5b595c6e94c5fba2e588bf4eafa8b384a4fb6e188b892768e695c1bfc72a6b96e51c5252b8e3666030ed958aec041736a7af1773a4e5833bac27b47e3ba26469706673582212209c545ad92ad199431f817dd1d8d3e5cb309130696eefdde1f4f8eb0ffb3f1aab64736f6c63430008110033",
    "linkReferences": {}
  },
  "methodIdentifiers": {
    "calculateTradingCommissionsFixture(uint256)": "db6048a2",
    "getPremiumCommissionBasisPointsFixture()": "9e08b665",
    "getTradingCommissionsBasisPointsFixture()": "328c180c",
    "payPremiumCommissions(bytes32,uint256)": "39931810",
    "payTradingCommissions(bytes32,bytes32,bytes32,uint256)": "2313d519"
  },
  "id": 116
}