{
  "abi": [
    {
      "inputs": [
        {
          "internalType": "bytes32",
          "name": "salt",
          "type": "bytes32"
        },
        {
          "internalType": "bytes",
          "name": "creationCode",
          "type": "bytes"
        },
        {
          "internalType": "uint256",
          "name": "value",
          "type": "uint256"
        }
      ],
      "name": "deployContract",
      "outputs": [
        {
          "internalType": "address",
          "name": "deployed",
          "type": "address"
        }
      ],
      "stateMutability": "nonpayable",
      "type": "function"
    },
    {
      "inputs": [
        {
          "internalType": "bytes32",
          "name": "salt",
          "type": "bytes32"
        }
      ],
      "name": "getDeployed",
      "outputs": [
        {
          "internalType": "address",
          "name": "deployed",
          "type": "address"
        }
      ],
      "stateMutability": "view",
      "type": "function"
    }
  ],
  "bytecode": {
    "object": "0x608060405234801561001057600080fd5b50610441806100206000396000f3fe608060405234801561001057600080fd5b50600436106100365760003560e01c8063c7f637a61461003b578063df20e2521461006a575b600080fd5b61004e6100493660046102ff565b61007d565b6040516001600160a01b03909116815260200160405180910390f35b61004e6100783660046103c3565b610092565b600061008a8484846100a3565b949350505050565b600061009d826101fe565b92915050565b6000806040518060400160405280601081526020016f67363d3d37363d34f03d5260086018f360801b81525090506000858251602084016000f590506001600160a01b03811661012e5760405162461bcd60e51b81526020600482015260116024820152701111541313d65351539517d19052531151607a1b60448201526064015b60405180910390fd5b610137866101fe565b92506000816001600160a01b0316858760405161015491906103dc565b60006040518083038185875af1925050503d8060008114610191576040519150601f19603f3d011682016040523d82523d6000602084013e610196565b606091505b505090508080156101b057506001600160a01b0384163b15155b6101f45760405162461bcd60e51b815260206004820152601560248201527412539255125053125690551253d397d19052531151605a1b6044820152606401610125565b5050509392505050565b604080518082018252601081526f67363d3d37363d34f03d5260086018f360801b60209182015290516001600160f81b0319918101919091526bffffffffffffffffffffffff193060601b166021820152603581018290527f21c35dbe1b344a2488cf3321d6ce542f8e9f305544ff09e4993a62319a497c1f605582015260009081906102a2906075015b6040516020818303038152906040528051906020012090565b6040516135a560f21b60208201526bffffffffffffffffffffffff19606083901b166022820152600160f81b60368201529091506102e290603701610289565b9392505050565b634e487b7160e01b600052604160045260246000fd5b60008060006060848603121561031457600080fd5b83359250602084013567ffffffffffffffff8082111561033357600080fd5b818601915086601f83011261034757600080fd5b813581811115610359576103596102e9565b604051601f8201601f19908116603f01168101908382118183101715610381576103816102e9565b8160405282815289602084870101111561039a57600080fd5b826020860160208301376000602084830101528096505050505050604084013590509250925092565b6000602082840312156103d557600080fd5b5035919050565b6000825160005b818110156103fd57602081860181015185830152016103e3565b50600092019182525091905056fea2646970667358221220781e2fac978b40c13d6412173504920cfc52b15d2f5a3d88482dfddb50fcfbd064736f6c63430008110033",
    "linkReferences": {}
  },
  "methodIdentifiers": {
    "deployContract(bytes32,bytes,uint256)": "c7f637a6",
    "getDeployed(bytes32)": "df20e252"
  },
  "id": 94
}