{
  "abi": [
    {
      "inputs": [
        {
          "internalType": "address",
          "name": "token0",
          "type": "address"
        },
        {
          "internalType": "address",
          "name": "token1",
          "type": "address"
        },
        {
          "internalType": "uint256",
          "name": "amount0",
          "type": "uint256"
        },
        {
          "internalType": "uint256",
          "name": "amount1",
          "type": "uint256"
        }
      ],
      "name": "createPool",
      "outputs": [
        {
          "internalType": "address",
          "name": "newPoolAddress",
          "type": "address"
        }
      ],
      "stateMutability": "nonpayable",
      "type": "function"
    },
    {
      "inputs": [],
      "name": "deployTokensAndCreateLP",
      "outputs": [
        {
          "internalType": "address",
          "name": "newPoolAddress",
          "type": "address"
        }
      ],
      "stateMutability": "nonpayable",
      "type": "function"
    },
    {
      "inputs": [],
      "name": "factory",
      "outputs": [
        {
          "internalType": "contract IUniswapV3Factory",
          "name": "",
          "type": "address"
        }
      ],
      "stateMutability": "view",
      "type": "function"
    },
    {
      "inputs": [],
      "name": "nft",
      "outputs": [
        {
          "internalType": "contract INonfungiblePositionManager",
          "name": "",
          "type": "address"
        }
      ],
      "stateMutability": "view",
      "type": "function"
    },
    {
      "inputs": [],
      "name": "nftDescriptor",
      "outputs": [
        {
          "internalType": "contract INonfungibleTokenPositionDescriptor",
          "name": "",
          "type": "address"
        }
      ],
      "stateMutability": "view",
      "type": "function"
    }
  ],
  "bytecode": {
    "object": "0x608060405234801561001057600080fd5b50611b9f806100206000396000f3fe60806040523480156200001157600080fd5b50600436106200005e5760003560e01c80633cf8d979146200006357806344267570146200008957806347ccca02146200009d578063884db06314620000b1578063c45a015514620000c8575b600080fd5b6200006d620000dc565b6040516001600160a01b03909116815260200160405180910390f35b6002546200006d906001600160a01b031681565b6001546200006d906001600160a01b031681565b6200006d620000c23660046200085a565b620003bc565b6000546200006d906001600160a01b031681565b6000806012604051620000ef9062000833565b6060808252600590820181905264546573743160d81b608083015260a06020830181905282015264544553543160d81b60c082015260ff909116604082015260e001604051809103906000f0801580156200014e573d6000803e3d6000fd5b506040516340c10f1960e01b815233600482015269152d02c7e14af680000060248201529091506001600160a01b038216906340c10f1990604401600060405180830381600087803b158015620001a457600080fd5b505af1158015620001b9573d6000803e3d6000fd5b505060015460405163095ea7b360e01b81526001600160a01b03918216600482015269021e19e0c9bab24000006024820152908416925063095ea7b391506044016020604051808303816000875af11580156200021a573d6000803e3d6000fd5b505050506040513d601f19601f82011682018060405250810190620002409190620008a5565b5060006012604051620002539062000833565b60608082526005908201819052642a32b9ba1960d91b608083015260a060208301819052820152642a22a9aa1960d91b60c082015260ff909116604082015260e001604051809103906000f080158015620002b2573d6000803e3d6000fd5b506040516340c10f1960e01b815233600482015269152d02c7e14af680000060248201529091506001600160a01b038216906340c10f1990604401600060405180830381600087803b1580156200030857600080fd5b505af11580156200031d573d6000803e3d6000fd5b505060015460405163095ea7b360e01b81526001600160a01b03918216600482015269021e19e0c9bab24000006024820152908416925063095ea7b391506044016020604051808303816000875af11580156200037e573d6000803e3d6000fd5b505050506040513d601f19601f82011682018060405250810190620003a49190620008a5565b50620003b582826103e880620003bc565b9250505090565b6000836001600160a01b0316856001600160a01b03161115620003dd579293925b600180546001600160a01b0316906313ead5629087908790610bb890620004059080620005c8565b6040516001600160e01b031960e087901b1681526001600160a01b039485166004820152928416602484015262ffffff90911660448301529190911660648201526084016020604051808303816000875af115801562000469573d6000803e3d6000fd5b505050506040513d601f19601f820116820180604052508101906200048f9190620008d0565b90506000604051806101600160405280876001600160a01b03168152602001866001600160a01b03168152602001610bb862ffffff168152602001620004d6603c62000607565b60020b8152602001620004ea603c62000626565b60020b8152620f42406020820152620186a0604082015260006060820181905260808201523360a082015260c0016200052542600a62000906565b905290506200053686838662000645565b6200054385838562000645565b600154604051634418b22b60e11b81526001600160a01b0390911690638831645690620005759084906004016200091c565b6080604051808303816000875af115801562000595573d6000803e3d6000fd5b505050506040513d601f19601f82011682018060405250810190620005bb9190620009e5565b5050505050949350505050565b6000620005fe82600160601b620005e0818762000a3a565b620005ec919062000a3a565b620005f8919062000a6a565b62000752565b90505b92915050565b6000816200061a81620d89e71962000a81565b62000601919062000ac1565b6000818062000639620d89e71962000aeb565b6200061a919062000a81565b604080516001600160a01b038481166024830152604480830185905283518084039091018152606490920183526020820180516001600160e01b031663095ea7b360e01b1790529151600092839290871691620006a3919062000b10565b6000604051808303816000865af19150503d8060008114620006e2576040519150601f19603f3d011682016040523d82523d6000602084013e620006e7565b606091505b50915091508180156200071557508051158062000715575080806020019051810190620007159190620008a5565b6200074b5760405162461bcd60e51b8152602060048201526002602482015261534160f01b604482015260640160405180910390fd5b5050505050565b600181600160801b81106200076c5760409190911b9060801c5b680100000000000000008110620007885760209190911b9060401c5b6401000000008110620007a05760109190911b9060201c5b620100008110620007b65760089190911b9060101c5b6101008110620007cb5760049190911b9060081c5b60108110620007df5760029190911b9060041c5b60088110620007ef578160011b91505b5080820401600190811c80830401811c80830401811c80830401811c80830401811c80830401811c80830401901c808204818110156200082d578091505b50919050565b6110288062000b4283390190565b6001600160a01b03811681146200085757600080fd5b50565b600080600080608085870312156200087157600080fd5b84356200087e8162000841565b93506020850135620008908162000841565b93969395505050506040820135916060013590565b600060208284031215620008b857600080fd5b81518015158114620008c957600080fd5b9392505050565b600060208284031215620008e357600080fd5b8151620008c98162000841565b634e487b7160e01b600052601160045260246000fd5b80820180821115620006015762000601620008f0565b81516001600160a01b03168152610160810160208301516200094960208401826001600160a01b03169052565b50604083015162000961604084018262ffffff169052565b50606083015162000977606084018260020b9052565b5060808301516200098d608084018260020b9052565b5060a083015160a083015260c083015160c083015260e083015160e083015261010080840151818401525061012080840151620009d4828501826001600160a01b03169052565b505061014092830151919092015290565b60008060008060808587031215620009fc57600080fd5b8451935060208501516fffffffffffffffffffffffffffffffff8116811462000a2457600080fd5b6040860151606090960151949790965092505050565b8082028115828204841417620006015762000601620008f0565b634e487b7160e01b600052601260045260246000fd5b60008262000a7c5762000a7c62000a54565b500490565b60008160020b8360020b8062000a9b5762000a9b62000a54565b627fffff1982146000198214161562000ab85762000ab8620008f0565b90059392505050565b60008260020b8260020b028060020b915080821462000ae45762000ae4620008f0565b5092915050565b60008160020b627fffff19810362000b075762000b07620008f0565b60000392915050565b6000825160005b8181101562000b33576020818601810151858301520162000b17565b50600092019182525091905056fe60e06040523480156200001157600080fd5b5060405162001028380380620010288339810160408190526200003491620001db565b8282826000620000458482620002ef565b506001620000548382620002ef565b5060ff81166080524660a0526200006a6200007a565b60c0525062000439945050505050565b60007f8b73c3c69bb8fe3d512ecc4cf759cc79239f7b179b0ffacaa9a75d522b39400f6000604051620000ae9190620003bb565b6040805191829003822060208301939093528101919091527fc89efdaa54c0f20c7adf612882df0950f5a951637e0307cdcb4c672f298b8bc660608201524660808201523060a082015260c00160405160208183030381529060405280519060200120905090565b634e487b7160e01b600052604160045260246000fd5b600082601f8301126200013e57600080fd5b81516001600160401b03808211156200015b576200015b62000116565b604051601f8301601f19908116603f0116810190828211818310171562000186576200018662000116565b81604052838152602092508683858801011115620001a357600080fd5b600091505b83821015620001c75785820183015181830184015290820190620001a8565b600093810190920192909252949350505050565b600080600060608486031215620001f157600080fd5b83516001600160401b03808211156200020957600080fd5b62000217878388016200012c565b945060208601519150808211156200022e57600080fd5b506200023d868287016200012c565b925050604084015160ff811681146200025557600080fd5b809150509250925092565b600181811c908216806200027557607f821691505b6020821081036200029657634e487b7160e01b600052602260045260246000fd5b50919050565b601f821115620002ea57600081815260208120601f850160051c81016020861015620002c55750805b601f850160051c820191505b81811015620002e657828155600101620002d1565b5050505b505050565b81516001600160401b038111156200030b576200030b62000116565b62000323816200031c845462000260565b846200029c565b602080601f8311600181146200035b5760008415620003425750858301515b600019600386901b1c1916600185901b178555620002e6565b600085815260208120601f198616915b828110156200038c578886015182559484019460019091019084016200036b565b5085821015620003ab5787850151600019600388901b60f8161c191681555b5050505050600190811b01905550565b6000808354620003cb8162000260565b60018281168015620003e65760018114620003fc576200042d565b60ff19841687528215158302870194506200042d565b8760005260208060002060005b85811015620004245781548a82015290840190820162000409565b50505082870194505b50929695505050505050565b60805160a05160c051610bbf6200046960003960006104700152600061043b0152600061015f0152610bbf6000f3fe608060405234801561001057600080fd5b50600436106100ea5760003560e01c806370a082311161008c5780639dc29fac116100665780639dc29fac146101f8578063a9059cbb1461020b578063d505accf1461021e578063dd62ed3e1461023157600080fd5b806370a08231146101b05780637ecebe00146101d057806395d89b41146101f057600080fd5b806323b872dd116100c857806323b872dd14610147578063313ce5671461015a5780633644e5151461019357806340c10f191461019b57600080fd5b806306fdde03146100ef578063095ea7b31461010d57806318160ddd14610130575b600080fd5b6100f761025c565b60405161010491906108bc565b60405180910390f35b61012061011b366004610926565b6102ea565b6040519015158152602001610104565b61013960025481565b604051908152602001610104565b610120610155366004610950565b610357565b6101817f000000000000000000000000000000000000000000000000000000000000000081565b60405160ff9091168152602001610104565b610139610437565b6101ae6101a9366004610926565b610492565b005b6101396101be36600461098c565b60036020526000908152604090205481565b6101396101de36600461098c565b60056020526000908152604090205481565b6100f76104a0565b6101ae610206366004610926565b6104ad565b610120610219366004610926565b6104b7565b6101ae61022c3660046109ae565b61051d565b61013961023f366004610a21565b600460209081526000928352604080842090915290825290205481565b6000805461026990610a54565b80601f016020809104026020016040519081016040528092919081815260200182805461029590610a54565b80156102e25780601f106102b7576101008083540402835291602001916102e2565b820191906000526020600020905b8154815290600101906020018083116102c557829003601f168201915b505050505081565b3360008181526004602090815260408083206001600160a01b038716808552925280832085905551919290917f8c5be1e5ebec7d5bd14f71427d1e84f3dd0314c0f7b2291e5b200ac8c7c3b925906103459086815260200190565b60405180910390a35060015b92915050565b6001600160a01b038316600090815260046020908152604080832033845290915281205460001981146103b35761038e8382610aa4565b6001600160a01b03861660009081526004602090815260408083203384529091529020555b6001600160a01b038516600090815260036020526040812080548592906103db908490610aa4565b90915550506001600160a01b0380851660008181526003602052604090819020805487019055519091871690600080516020610b6a833981519152906104249087815260200190565b60405180910390a3506001949350505050565b60007f0000000000000000000000000000000000000000000000000000000000000000461461046d57610468610766565b905090565b507f000000000000000000000000000000000000000000000000000000000000000090565b61049c8282610800565b5050565b6001805461026990610a54565b61049c828261085a565b336000908152600360205260408120805483919083906104d8908490610aa4565b90915550506001600160a01b03831660008181526003602052604090819020805485019055513390600080516020610b6a833981519152906103459086815260200190565b428410156105725760405162461bcd60e51b815260206004820152601760248201527f5045524d49545f444541444c494e455f4558504952454400000000000000000060448201526064015b60405180910390fd5b6000600161057e610437565b6001600160a01b038a811660008181526005602090815260409182902080546001810190915582517f6e71edae12b1b97f4d1f60370fef10105fa2faae0126114a169c64845d6126c98184015280840194909452938d166060840152608083018c905260a083019390935260c08083018b90528151808403909101815260e08301909152805192019190912061190160f01b6101008301526101028201929092526101228101919091526101420160408051601f198184030181528282528051602091820120600084529083018083525260ff871690820152606081018590526080810184905260a0016020604051602081039080840390855afa15801561068a573d6000803e3d6000fd5b5050604051601f1901519150506001600160a01b038116158015906106c05750876001600160a01b0316816001600160a01b0316145b6106fd5760405162461bcd60e51b815260206004820152600e60248201526d24a72b20a624a22fa9a4a3a722a960911b6044820152606401610569565b6001600160a01b0390811660009081526004602090815260408083208a8516808552908352928190208990555188815291928a16917f8c5be1e5ebec7d5bd14f71427d1e84f3dd0314c0f7b2291e5b200ac8c7c3b925910160405180910390a350505050505050565b60007f8b73c3c69bb8fe3d512ecc4cf759cc79239f7b179b0ffacaa9a75d522b39400f60006040516107989190610ab7565b6040805191829003822060208301939093528101919091527fc89efdaa54c0f20c7adf612882df0950f5a951637e0307cdcb4c672f298b8bc660608201524660808201523060a082015260c00160405160208183030381529060405280519060200120905090565b80600260008282546108129190610b56565b90915550506001600160a01b038216600081815260036020908152604080832080548601905551848152600080516020610b6a83398151915291015b60405180910390a35050565b6001600160a01b03821660009081526003602052604081208054839290610882908490610aa4565b90915550506002805482900390556040518181526000906001600160a01b03841690600080516020610b6a8339815191529060200161084e565b600060208083528351808285015260005b818110156108e9578581018301518582016040015282016108cd565b506000604082860101526040601f19601f8301168501019250505092915050565b80356001600160a01b038116811461092157600080fd5b919050565b6000806040838503121561093957600080fd5b6109428361090a565b946020939093013593505050565b60008060006060848603121561096557600080fd5b61096e8461090a565b925061097c6020850161090a565b9150604084013590509250925092565b60006020828403121561099e57600080fd5b6109a78261090a565b9392505050565b600080600080600080600060e0888a0312156109c957600080fd5b6109d28861090a565b96506109e06020890161090a565b95506040880135945060608801359350608088013560ff81168114610a0457600080fd5b9699959850939692959460a0840135945060c09093013592915050565b60008060408385031215610a3457600080fd5b610a3d8361090a565b9150610a4b6020840161090a565b90509250929050565b600181811c90821680610a6857607f821691505b602082108103610a8857634e487b7160e01b600052602260045260246000fd5b50919050565b634e487b7160e01b600052601160045260246000fd5b8181038181111561035157610351610a8e565b600080835481600182811c915080831680610ad357607f831692505b60208084108203610af257634e487b7160e01b86526022600452602486fd5b818015610b065760018114610b1b57610b48565b60ff1986168952841515850289019650610b48565b60008a81526020902060005b86811015610b405781548b820152908501908301610b27565b505084890196505b509498975050505050505050565b8082018082111561035157610351610a8e56feddf252ad1be2c89b69c2b068fc378daa952ba7f163c4a11628f55a4df523b3efa26469706673582212203be78d59e976617119d3ba8a33b83b1a3ae9fd86023b7b88295b9e369fc9129a64736f6c63430008110033a2646970667358221220a1d9644be5353e2a0fc03375e83540dafc2822f797ceae59287500977ed61e5464736f6c63430008110033",
    "linkReferences": {}
  },
  "methodIdentifiers": {
    "createPool(address,address,uint256,uint256)": "884db063",
    "deployTokensAndCreateLP()": "3cf8d979",
    "factory()": "c45a0155",
    "nft()": "47ccca02",
    "nftDescriptor()": "44267570"
  },
  "id": 118
}