{
  "abi": [
    {
      "inputs": [],
      "name": "AssignerGroupIsMissing",
      "type": "error"
    },
    {
      "inputs": [],
      "name": "OwnerCannotBeSystemAdmin",
      "type": "error"
    },
    {
      "inputs": [],
      "name": "RoleIsMissing",
      "type": "error"
    },
    {
      "inputs": [
        {
          "internalType": "bytes32",
          "name": "_objectId",
          "type": "bytes32"
        },
        {
          "internalType": "bytes32",
          "name": "_contextId",
          "type": "bytes32"
        },
        {
          "internalType": "string",
          "name": "_role",
          "type": "string"
        }
      ],
      "name": "assignRole",
      "outputs": [],
      "stateMutability": "nonpayable",
      "type": "function"
    },
    {
      "inputs": [
        {
          "internalType": "bytes32",
          "name": "_assignerId",
          "type": "bytes32"
        },
        {
          "internalType": "bytes32",
          "name": "_objectId",
          "type": "bytes32"
        },
        {
          "internalType": "bytes32",
          "name": "_contextId",
          "type": "bytes32"
        },
        {
          "internalType": "string",
          "name": "_role",
          "type": "string"
        }
      ],
      "name": "canAssign",
      "outputs": [
        {
          "internalType": "bool",
          "name": "",
          "type": "bool"
        }
      ],
      "stateMutability": "view",
      "type": "function"
    },
    {
      "inputs": [
        {
          "internalType": "string",
          "name": "role",
          "type": "string"
        },
        {
          "internalType": "string",
          "name": "group",
          "type": "string"
        }
      ],
      "name": "canGroupAssignRole",
      "outputs": [
        {
          "internalType": "bool",
          "name": "",
          "type": "bool"
        }
      ],
      "stateMutability": "view",
      "type": "function"
    },
    {
      "inputs": [
        {
          "internalType": "bytes32",
          "name": "objectId",
          "type": "bytes32"
        },
        {
          "internalType": "bytes32",
          "name": "contextId",
          "type": "bytes32"
        }
      ],
      "name": "getRoleInContext",
      "outputs": [
        {
          "internalType": "bytes32",
          "name": "",
          "type": "bytes32"
        }
      ],
      "stateMutability": "view",
      "type": "function"
    },
    {
      "inputs": [
        {
          "internalType": "bytes32",
          "name": "_objectId",
          "type": "bytes32"
        },
        {
          "internalType": "bytes32",
          "name": "_contextId",
          "type": "bytes32"
        },
        {
          "internalType": "string",
          "name": "_group",
          "type": "string"
        }
      ],
      "name": "isInGroup",
      "outputs": [
        {
          "internalType": "bool",
          "name": "",
          "type": "bool"
        }
      ],
      "stateMutability": "view",
      "type": "function"
    },
    {
      "inputs": [
        {
          "internalType": "bytes32",
          "name": "_objectId",
          "type": "bytes32"
        },
        {
          "internalType": "bytes32",
          "name": "_contextId",
          "type": "bytes32"
        },
        {
          "internalType": "string",
          "name": "_group",
          "type": "string"
        }
      ],
      "name": "isParentInGroup",
      "outputs": [
        {
          "internalType": "bool",
          "name": "",
          "type": "bool"
        }
      ],
      "stateMutability": "view",
      "type": "function"
    },
    {
      "inputs": [
        {
          "internalType": "string",
          "name": "role",
          "type": "string"
        },
        {
          "internalType": "string",
          "name": "group",
          "type": "string"
        }
      ],
      "name": "isRoleInGroup",
      "outputs": [
        {
          "internalType": "bool",
          "name": "",
          "type": "bool"
        }
      ],
      "stateMutability": "view",
      "type": "function"
    },
    {
      "inputs": [
        {
          "internalType": "bytes32",
          "name": "_objectId",
          "type": "bytes32"
        },
        {
          "internalType": "bytes32",
          "name": "_contextId",
          "type": "bytes32"
        }
      ],
      "name": "unassignRole",
      "outputs": [],
      "stateMutability": "nonpayable",
      "type": "function"
    },
    {
      "inputs": [
        {
          "internalType": "string",
          "name": "_role",
          "type": "string"
        },
        {
          "internalType": "string",
          "name": "_assignerGroup",
          "type": "string"
        }
      ],
      "name": "updateRoleAssigner",
      "outputs": [],
      "stateMutability": "nonpayable",
      "type": "function"
    },
    {
      "inputs": [
        {
          "internalType": "string",
          "name": "_role",
          "type": "string"
        },
        {
          "internalType": "string",
          "name": "_group",
          "type": "string"
        },
        {
          "internalType": "bool",
          "name": "_roleInGroup",
          "type": "bool"
        }
      ],
      "name": "updateRoleGroup",
      "outputs": [],
      "stateMutability": "nonpayable",
      "type": "function"
    }
  ],
  "bytecode": {
    "object": "0x608060405234801561001057600080fd5b50611264806100206000396000f3fe608060405234801561001057600080fd5b506004361061009e5760003560e01c8063af76f04611610066578063af76f04614610127578063c1b2bc961461013a578063c84224021461014d578063d774b4e314610160578063ff3406ce1461017357600080fd5b80631219dee2146100a357806347c07483146100cb5780635e1ac8fa146100ec5780636362aeb4146101015780637273e79614610114575b600080fd5b6100b66100b1366004610f0e565b610186565b60405190151581526020015b60405180910390f35b6100de6100d9366004610f68565b6101a5565b6040519081526020016100c2565b6100ff6100fa366004610f8a565b6101d4565b005b6100ff61010f366004610fda565b610254565b6100b6610122366004610fda565b6102fc565b6100b6610135366004610fda565b610308565b6100ff610148366004610f68565b610314565b6100b661015b366004610f8a565b6103a4565b6100b661016e366004610f8a565b6103c1565b6100ff61018136600461103e565b6103d1565b600061019c858585610197866104ba565b6104cb565b95945050505050565b600082815260008051602061120f833981519152602090815260408083208484529091528120545b9392505050565b6001600160601b03193360601b166101f1818585610197866104ba565b61023b5760405162461bcd60e51b815260206004820152601660248201527506e6f7420696e2061737369676e6572732067726f75760541b60448201526064015b60405180910390fd5b61024e8484610249856104ba565b6105a0565b50505050565b6102ad61027261026261083a565b60601b6001600160601b03191690565b61027a610896565b6102a86040518060400160405280600d81526020016c53797374656d2041646d696e7360981b8152506104ba565b6108c4565b6102ee5760405162461bcd60e51b81526020600482015260126024820152713737ba10309039bcb9ba32b69030b236b4b760711b6044820152606401610232565b6102f8828261099e565b5050565b60006101cd8383610a67565b60006101cd8383610ad8565b600082815260008051602061120f833981519152602090815260408083208484529091529020543360601b6001600160601b031916610355818585856104cb565b61039a5760405162461bcd60e51b815260206004820152601660248201527506e6f7420696e2061737369676e6572732067726f75760541b6044820152606401610232565b61024e8484610b1a565b60006103b984846103b4856104ba565b610c69565b949350505050565b60006103b984846102a8856104ba565b6103df61027261026261083a565b6104205760405162461bcd60e51b81526020600482015260126024820152713737ba10309039bcb9ba32b69030b236b4b760711b6044820152606401610232565b61044f826040518060400160405280600d81526020016c53797374656d2041646d696e7360981b815250610ca2565b156104aa5760405162461bcd60e51b815260206004820152602560248201527f73797374656d2061646d696e732067726f7570206973206e6f74206d6f6469666044820152646961626c6560d81b6064820152608401610232565b6104b5838383610cfb565b505050565b60006104c582610deb565b92915050565b6000836000036105115760405162461bcd60e51b81526020600482015260116024820152701a5b9d985b1a59081bd89a9958dd081251607a1b6044820152606401610232565b60008281527f1ab5ce5b595c6e94c5fba2e588bf4eafa8b384a4fb6e188b892768e695c1bfe560205260408120546000805160206111ef8339815191529080830361055f5760009250610594565b61056a8887836108c4565b156105785760019250610594565b61058a88610584610896565b83610c69565b1561059457600192505b50909695505050505050565b6000805160206111ef83398151915260008490036105f45760405162461bcd60e51b81526020600482015260116024820152701a5b9d985b1a59081bd89a9958dd081251607a1b6044820152606401610232565b826000036106395760405162461bcd60e51b81526020600482015260126024820152711a5b9d985b1a590818dbdb9d195e1d08125160721b6044820152606401610232565b8160000361067b5760405162461bcd60e51b815260206004820152600f60248201526e1a5b9d985b1a59081c9bdb19481251608a1b6044820152606401610232565b6000848152601f820160209081526040808320868452825291829020548251808401909352600c83526b29bcb9ba32b69020b236b4b760a11b91830191909152906106c5906104ba565b811480156106d35750828114155b156106fc57600182602a0154116106fc5760405162461bcd60e51b8152600401610232906110bb565b610704610896565b8414801561073d575061073a6040518060400160405280600c81526020016b29bcb9ba32b69020b236b4b760a11b8152506104ba565b83145b156107b85761074b85610e06565b6001600160a01b03166107857fc8fcad8db84d3cc18b4c41d551ea0ee66dd599cde068d998e57d5e09332c1320546001600160a01b031690565b6001600160a01b0316036107ac57604051633fb6eaed60e11b815260040160405180910390fd5b602a8201805460010190555b6000858152601f83016020908152604080832087845282529182902085905581518681529081018590526060818301819052600b908201526a5f61737369676e526f6c6560a81b6080820152905186917fe084640a30256726ae800352d16104f622b1744c561cad2d04e14cec8b490ee8919081900360a00190a25050505050565b600030330361089057600080368080601f0160208091040260200160405190810160405280939291908181526020018383808284376000920191909152505050503601516001600160a01b031691506108939050565b50335b90565b60006108bf6040518060400160405280600681526020016553797374656d60d01b8152506104ba565b905090565b600083815260008051602061120f833981519152602090815260408083208584529091528120546000805160206111ef83398151915290801580159061092557506000818152601d83016020908152604080832087845290915290205460ff165b156109335760019250610995565b6000868152601f8301602052604081208161094c610896565b81526020810191909152604001600020549050801580159061098957506000818152601d84016020908152604080832088845290915290205460ff165b1561099357600193505b505b50509392505050565b6109a7826110fe565b6000036109c7576040516305ccaaf160e41b815260040160405180910390fd5b6109d0816110fe565b6000036109f057604051630db0d26760e21b815260040160405180910390fd5b6000805160206111ef833981519152610a08826104ba565b81601e016000610a17866104ba565b8152602001908152602001600020819055507f736c56e4bb16c438047d822d53251d5034edf27808ac582857e8863b898c95298383604051610a5a929190611175565b60405180910390a1505050565b60006000805160206111ef8339815191527f1ab5ce5b595c6e94c5fba2e588bf4eafa8b384a4fb6e188b892768e695c1bfe482610aa3866104ba565b81526020019081526020016000206000610abc856104ba565b815260208101919091526040016000205460ff16949350505050565b60006000805160206111ef833981519152610af2836104ba565b81601e016000610b01876104ba565b8152602001908152602001600020541491505092915050565b600082815260008051602061120f833981519152602090815260408083208484529091529020546000805160206111ef83398151915290610b59610896565b83148015610b925750610b8f6040518060400160405280600c81526020016b29bcb9ba32b69020b236b4b760a11b8152506104ba565b81145b15610bc857600182602a015411610bbb5760405162461bcd60e51b8152600401610232906110bb565b602a820180546000190190555b6000848152601f8301602090815260408083208684529091529081902054905185917fe084640a30256726ae800352d16104f622b1744c561cad2d04e14cec8b490ee891610c43918782526020820152606060408201819052600d908201526c5f756e61737369676e526f6c6560981b608082015260a00190565b60405180910390a2506000928352601f0160209081526040808420928452919052812055565b60008381527f1ab5ce5b595c6e94c5fba2e588bf4eafa8b384a4fb6e188b892768e695c1bfd1602052604081205461019c8185856108c4565b600081604051602001610cb5919061119a565b6040516020818303038152906040528051906020012083604051602001610cdc919061119a565b6040516020818303038152906040528051906020012014905092915050565b6000805160206111ef833981519152610d13846110fe565b600003610d33576040516305ccaaf160e41b815260040160405180910390fd5b610d3c836110fe565b600003610d5c57604051630db0d26760e21b815260040160405180910390fd5b8181601d016000610d6c876104ba565b81526020019081526020016000206000610d85866104ba565b815260200190815260200160002060006101000a81548160ff0219169083151502179055507f6f94e7b578c4524a9c142c004ba6682c061019130e377a6f81d31792a25b7bcc848484604051610ddd939291906111b6565b60405180910390a150505050565b60008151600003610dfe57506000919050565b506020015190565b60006bffffffffffffffffffffffff821615610e645760405162461bcd60e51b815260206004820152601e60248201527f496e76616c69642065787465726e616c20746f6b656e206164647265737300006044820152606401610232565b5060601c90565b634e487b7160e01b600052604160045260246000fd5b600082601f830112610e9257600080fd5b813567ffffffffffffffff80821115610ead57610ead610e6b565b604051601f8301601f19908116603f01168101908282118183101715610ed557610ed5610e6b565b81604052838152866020858801011115610eee57600080fd5b836020870160208301376000602085830101528094505050505092915050565b60008060008060808587031215610f2457600080fd5b843593506020850135925060408501359150606085013567ffffffffffffffff811115610f5057600080fd5b610f5c87828801610e81565b91505092959194509250565b60008060408385031215610f7b57600080fd5b50508035926020909101359150565b600080600060608486031215610f9f57600080fd5b8335925060208401359150604084013567ffffffffffffffff811115610fc457600080fd5b610fd086828701610e81565b9150509250925092565b60008060408385031215610fed57600080fd5b823567ffffffffffffffff8082111561100557600080fd5b61101186838701610e81565b9350602085013591508082111561102757600080fd5b5061103485828601610e81565b9150509250929050565b60008060006060848603121561105357600080fd5b833567ffffffffffffffff8082111561106b57600080fd5b61107787838801610e81565b9450602086013591508082111561108d57600080fd5b5061109a86828701610e81565b925050604084013580151581146110b057600080fd5b809150509250925092565b60208082526023908201527f6d7573742068617665206174206c65617374206f6e652073797374656d20616460408201526236b4b760e91b606082015260800190565b8051602080830151919081101561111f576000198160200360031b1b821691505b50919050565b60005b83811015611140578181015183820152602001611128565b50506000910152565b60008151808452611161816020860160208601611125565b601f01601f19169290920160200192915050565b6040815260006111886040830185611149565b828103602084015261019c8185611149565b600082516111ac818460208701611125565b9190910192915050565b6060815260006111c96060830186611149565b82810360208401526111db8186611149565b915050821515604083015294935050505056fe1ab5ce5b595c6e94c5fba2e588bf4eafa8b384a4fb6e188b892768e695c1bfc71ab5ce5b595c6e94c5fba2e588bf4eafa8b384a4fb6e188b892768e695c1bfe6a2646970667358221220490eb08e8bd11edbe53f72d16eeb3b4e30881583061e395ee80bc7519ea2e8b764736f6c63430008110033",
    "linkReferences": {}
  },
  "methodIdentifiers": {
    "assignRole(bytes32,bytes32,string)": "5e1ac8fa",
    "canAssign(bytes32,bytes32,bytes32,string)": "1219dee2",
    "canGroupAssignRole(string,string)": "af76f046",
    "getRoleInContext(bytes32,bytes32)": "47c07483",
    "isInGroup(bytes32,bytes32,string)": "d774b4e3",
    "isParentInGroup(bytes32,bytes32,string)": "c8422402",
    "isRoleInGroup(string,string)": "7273e796",
    "unassignRole(bytes32,bytes32)": "c1b2bc96",
    "updateRoleAssigner(string,string)": "6362aeb4",
    "updateRoleGroup(string,string,bool)": "ff3406ce"
  },
  "id": 43
}