{
  "abi": [
    {
      "inputs": [],
      "name": "AssignerGroupIsMissing",
      "type": "error"
    },
    {
      "inputs": [],
      "name": "CannotSupportExternalTokenWithMoreThan18Decimals",
      "type": "error"
    },
    {
      "inputs": [
        {
          "internalType": "bytes32",
          "name": "entityId",
          "type": "bytes32"
        }
      ],
      "name": "CreatingEntityThatAlreadyExists",
      "type": "error"
    },
    {
      "inputs": [],
      "name": "DiamondAlreadyInitialized",
      "type": "error"
    },
    {
      "inputs": [],
      "name": "OwnerCannotBeSystemAdmin",
      "type": "error"
    },
    {
      "inputs": [
        {
          "internalType": "uint256",
          "name": "calculatedTotalBp",
          "type": "uint256"
        }
      ],
      "name": "PolicyCommissionsBasisPointsCannotBeGreaterThan10000",
      "type": "error"
    },
    {
      "inputs": [],
      "name": "RoleIsMissing",
      "type": "error"
    },
    {
      "inputs": [
        {
          "internalType": "uint256",
          "name": "utilizedCapacity",
          "type": "uint256"
        },
        {
          "internalType": "uint256",
          "name": "maxCapacity",
          "type": "uint256"
        }
      ],
      "name": "UtilizedCapacityGreaterThanMaxCapacity",
      "type": "error"
    },
    {
      "anonymous": false,
      "inputs": [
        {
          "indexed": false,
          "internalType": "address",
          "name": "sender",
          "type": "address"
        }
      ],
      "name": "InitializeDiamond",
      "type": "event"
    },
    {
      "inputs": [
        {
          "internalType": "address",
          "name": "_tokenAddress",
          "type": "address"
        }
      ],
      "name": "addSupportedExternalToken",
      "outputs": [],
      "stateMutability": "nonpayable",
      "type": "function"
    },
    {
      "inputs": [
        {
          "internalType": "bytes32",
          "name": "_objectId",
          "type": "bytes32"
        },
        {
          "internalType": "bytes32",
          "name": "_contextId",
          "type": "bytes32"
        },
        {
          "internalType": "string",
          "name": "_role",
          "type": "string"
        }
      ],
      "name": "assignRole",
      "outputs": [],
      "stateMutability": "nonpayable",
      "type": "function"
    },
    {
      "inputs": [
        {
          "internalType": "address",
          "name": "addr",
          "type": "address"
        }
      ],
      "name": "balanceOf",
      "outputs": [
        {
          "internalType": "uint256",
          "name": "",
          "type": "uint256"
        }
      ],
      "stateMutability": "view",
      "type": "function"
    },
    {
      "inputs": [
        {
          "internalType": "bytes32",
          "name": "_assignerId",
          "type": "bytes32"
        },
        {
          "internalType": "bytes32",
          "name": "_objectId",
          "type": "bytes32"
        },
        {
          "internalType": "bytes32",
          "name": "_contextId",
          "type": "bytes32"
        },
        {
          "internalType": "string",
          "name": "_role",
          "type": "string"
        }
      ],
      "name": "canAssign",
      "outputs": [
        {
          "internalType": "bool",
          "name": "",
          "type": "bool"
        }
      ],
      "stateMutability": "view",
      "type": "function"
    },
    {
      "inputs": [
        {
          "internalType": "string",
          "name": "role",
          "type": "string"
        },
        {
          "internalType": "string",
          "name": "group",
          "type": "string"
        }
      ],
      "name": "canGroupAssignRole",
      "outputs": [
        {
          "internalType": "bool",
          "name": "",
          "type": "bool"
        }
      ],
      "stateMutability": "view",
      "type": "function"
    },
    {
      "inputs": [
        {
          "internalType": "bytes32",
          "name": "_entityId",
          "type": "bytes32"
        },
        {
          "internalType": "bytes32",
          "name": "_entityAdmin",
          "type": "bytes32"
        },
        {
          "components": [
            {
              "internalType": "bytes32",
              "name": "assetId",
              "type": "bytes32"
            },
            {
              "internalType": "uint256",
              "name": "collateralRatio",
              "type": "uint256"
            },
            {
              "internalType": "uint256",
              "name": "maxCapacity",
              "type": "uint256"
            },
            {
              "internalType": "uint256",
              "name": "utilizedCapacity",
              "type": "uint256"
            },
            {
              "internalType": "bool",
              "name": "simplePolicyEnabled",
              "type": "bool"
            }
          ],
          "internalType": "struct Entity",
          "name": "_entityData",
          "type": "tuple"
        },
        {
          "internalType": "bytes32",
          "name": "_dataHash",
          "type": "bytes32"
        }
      ],
      "name": "createEntity",
      "outputs": [],
      "stateMutability": "nonpayable",
      "type": "function"
    },
    {
      "inputs": [],
      "name": "getMaxDividendDenominations",
      "outputs": [
        {
          "internalType": "uint8",
          "name": "",
          "type": "uint8"
        }
      ],
      "stateMutability": "view",
      "type": "function"
    },
    {
      "inputs": [
        {
          "internalType": "bytes32",
          "name": "_id",
          "type": "bytes32"
        }
      ],
      "name": "getObjectMeta",
      "outputs": [
        {
          "internalType": "bytes32",
          "name": "parent",
          "type": "bytes32"
        },
        {
          "internalType": "bytes32",
          "name": "dataHash",
          "type": "bytes32"
        },
        {
          "internalType": "string",
          "name": "tokenSymbol",
          "type": "string"
        },
        {
          "internalType": "string",
          "name": "tokenName",
          "type": "string"
        },
        {
          "internalType": "address",
          "name": "tokenWrapper",
          "type": "address"
        }
      ],
      "stateMutability": "view",
      "type": "function"
    },
    {
      "inputs": [
        {
          "internalType": "bytes32",
          "name": "objectId",
          "type": "bytes32"
        },
        {
          "internalType": "bytes32",
          "name": "contextId",
          "type": "bytes32"
        }
      ],
      "name": "getRoleInContext",
      "outputs": [
        {
          "internalType": "bytes32",
          "name": "",
          "type": "bytes32"
        }
      ],
      "stateMutability": "view",
      "type": "function"
    },
    {
      "inputs": [],
      "name": "getSupportedExternalTokens",
      "outputs": [
        {
          "internalType": "address[]",
          "name": "",
          "type": "address[]"
        }
      ],
      "stateMutability": "view",
      "type": "function"
    },
    {
      "inputs": [],
      "name": "getSystemId",
      "outputs": [
        {
          "internalType": "bytes32",
          "name": "",
          "type": "bytes32"
        }
      ],
      "stateMutability": "pure",
      "type": "function"
    },
    {
      "inputs": [],
      "name": "initialize",
      "outputs": [],
      "stateMutability": "nonpayable",
      "type": "function"
    },
    {
      "inputs": [
        {
          "internalType": "bytes4",
          "name": "functionSelector",
          "type": "bytes4"
        }
      ],
      "name": "isFunctionLocked",
      "outputs": [
        {
          "internalType": "bool",
          "name": "",
          "type": "bool"
        }
      ],
      "stateMutability": "view",
      "type": "function"
    },
    {
      "inputs": [
        {
          "internalType": "bytes32",
          "name": "_objectId",
          "type": "bytes32"
        },
        {
          "internalType": "bytes32",
          "name": "_contextId",
          "type": "bytes32"
        },
        {
          "internalType": "string",
          "name": "_group",
          "type": "string"
        }
      ],
      "name": "isInGroup",
      "outputs": [
        {
          "internalType": "bool",
          "name": "",
          "type": "bool"
        }
      ],
      "stateMutability": "view",
      "type": "function"
    },
    {
      "inputs": [
        {
          "internalType": "bytes32",
          "name": "_id",
          "type": "bytes32"
        }
      ],
      "name": "isObject",
      "outputs": [
        {
          "internalType": "bool",
          "name": "",
          "type": "bool"
        }
      ],
      "stateMutability": "view",
      "type": "function"
    },
    {
      "inputs": [
        {
          "internalType": "bytes32",
          "name": "_objectId",
          "type": "bytes32"
        }
      ],
      "name": "isObjectTokenizable",
      "outputs": [
        {
          "internalType": "bool",
          "name": "",
          "type": "bool"
        }
      ],
      "stateMutability": "view",
      "type": "function"
    },
    {
      "inputs": [
        {
          "internalType": "bytes32",
          "name": "_objectId",
          "type": "bytes32"
        },
        {
          "internalType": "bytes32",
          "name": "_contextId",
          "type": "bytes32"
        },
        {
          "internalType": "string",
          "name": "_group",
          "type": "string"
        }
      ],
      "name": "isParentInGroup",
      "outputs": [
        {
          "internalType": "bool",
          "name": "",
          "type": "bool"
        }
      ],
      "stateMutability": "view",
      "type": "function"
    },
    {
      "inputs": [
        {
          "internalType": "string",
          "name": "role",
          "type": "string"
        },
        {
          "internalType": "string",
          "name": "group",
          "type": "string"
        }
      ],
      "name": "isRoleInGroup",
      "outputs": [
        {
          "internalType": "bool",
          "name": "",
          "type": "bool"
        }
      ],
      "stateMutability": "view",
      "type": "function"
    },
    {
      "inputs": [
        {
          "internalType": "bytes32",
          "name": "_tokenId",
          "type": "bytes32"
        }
      ],
      "name": "isSupportedExternalToken",
      "outputs": [
        {
          "internalType": "bool",
          "name": "",
          "type": "bool"
        }
      ],
      "stateMutability": "view",
      "type": "function"
    },
    {
      "inputs": [],
      "name": "lockAllFundTransferFunctions",
      "outputs": [],
      "stateMutability": "nonpayable",
      "type": "function"
    },
    {
      "inputs": [
        {
          "internalType": "bytes4",
          "name": "functionSelector",
          "type": "bytes4"
        }
      ],
      "name": "lockFunction",
      "outputs": [],
      "stateMutability": "nonpayable",
      "type": "function"
    },
    {
      "inputs": [
        {
          "internalType": "uint8",
          "name": "_newMax",
          "type": "uint8"
        }
      ],
      "name": "setMaxDividendDenominations",
      "outputs": [],
      "stateMutability": "nonpayable",
      "type": "function"
    },
    {
      "inputs": [
        {
          "components": [
            {
              "internalType": "uint16",
              "name": "premiumCommissionNaymsLtdBP",
              "type": "uint16"
            },
            {
              "internalType": "uint16",
              "name": "premiumCommissionNDFBP",
              "type": "uint16"
            },
            {
              "internalType": "uint16",
              "name": "premiumCommissionSTMBP",
              "type": "uint16"
            }
          ],
          "internalType": "struct PolicyCommissionsBasisPoints",
          "name": "_policyCommissions",
          "type": "tuple"
        }
      ],
      "name": "setPolicyCommissionsBasisPoints",
      "outputs": [],
      "stateMutability": "nonpayable",
      "type": "function"
    },
    {
      "inputs": [
        {
          "components": [
            {
              "internalType": "uint16",
              "name": "tradingCommissionTotalBP",
              "type": "uint16"
            },
            {
              "internalType": "uint16",
              "name": "tradingCommissionNaymsLtdBP",
              "type": "uint16"
            },
            {
              "internalType": "uint16",
              "name": "tradingCommissionNDFBP",
              "type": "uint16"
            },
            {
              "internalType": "uint16",
              "name": "tradingCommissionSTMBP",
              "type": "uint16"
            },
            {
              "internalType": "uint16",
              "name": "tradingCommissionMakerBP",
              "type": "uint16"
            }
          ],
          "internalType": "struct TradingCommissionsBasisPoints",
          "name": "_tradingCommissions",
          "type": "tuple"
        }
      ],
      "name": "setTradingCommissionsBasisPoints",
      "outputs": [],
      "stateMutability": "nonpayable",
      "type": "function"
    },
    {
      "inputs": [
        {
          "internalType": "string",
          "name": "_strIn",
          "type": "string"
        }
      ],
      "name": "stringToBytes32",
      "outputs": [
        {
          "internalType": "bytes32",
          "name": "result",
          "type": "bytes32"
        }
      ],
      "stateMutability": "pure",
      "type": "function"
    },
    {
      "inputs": [],
      "name": "totalSupply",
      "outputs": [
        {
          "internalType": "uint256",
          "name": "",
          "type": "uint256"
        }
      ],
      "stateMutability": "view",
      "type": "function"
    },
    {
      "inputs": [
        {
          "internalType": "bytes32",
          "name": "_objectId",
          "type": "bytes32"
        },
        {
          "internalType": "bytes32",
          "name": "_contextId",
          "type": "bytes32"
        }
      ],
      "name": "unassignRole",
      "outputs": [],
      "stateMutability": "nonpayable",
      "type": "function"
    },
    {
      "inputs": [
        {
          "internalType": "bytes4",
          "name": "functionSelector",
          "type": "bytes4"
        }
      ],
      "name": "unlockFunction",
      "outputs": [],
      "stateMutability": "nonpayable",
      "type": "function"
    },
    {
      "inputs": [
        {
          "internalType": "string",
          "name": "_role",
          "type": "string"
        },
        {
          "internalType": "string",
          "name": "_assignerGroup",
          "type": "string"
        }
      ],
      "name": "updateRoleAssigner",
      "outputs": [],
      "stateMutability": "nonpayable",
      "type": "function"
    },
    {
      "inputs": [
        {
          "internalType": "string",
          "name": "_role",
          "type": "string"
        },
        {
          "internalType": "string",
          "name": "_group",
          "type": "string"
        },
        {
          "internalType": "bool",
          "name": "_roleInGroup",
          "type": "bool"
        }
      ],
      "name": "updateRoleGroup",
      "outputs": [],
      "stateMutability": "nonpayable",
      "type": "function"
    },
    {
      "inputs": [
        {
          "internalType": "bytes32",
          "name": "_objectId",
          "type": "bytes32"
        }
      ],
      "name": "wrapToken",
      "outputs": [],
      "stateMutability": "nonpayable",
      "type": "function"
    }
  ],
  "bytecode": {
    "object": "0x608060405234801561001057600080fd5b50614fb8806100206000396000f3fe60806040523480156200001157600080fd5b50600436106200020d5760003560e01c8063a00692891162000125578063cf0ccf9e11620000af578063e6a19df2116200007a578063e6a19df21462000493578063e9f0273c14620004aa578063eb75c8e814620004c7578063ff3406ce14620004d157600080fd5b8063cf0ccf9e1462000424578063cfb51928146200044e578063d57af28f1462000465578063d774b4e3146200047c57600080fd5b8063bdd2620a11620000f0578063bdd2620a14620003c6578063c1b2bc9614620003df578063c842240214620003f6578063cb429501146200040d57600080fd5b8063a00692891462000377578063a246e7a8146200038e578063a62caf821462000398578063af76f04614620003af57600080fd5b80635c74d6a411620001a75780637273e79611620001725780637273e79614620003285780637dfcdf2a146200033f5780637f09d08514620003565780638129fc1c146200036d57600080fd5b80635c74d6a414620002cc5780635e1ac8fa14620002e35780636362aeb414620002fa57806370a08231146200031157600080fd5b80633453182811620001e857806334531828146200027057806347c074831462000287578063524d8dd5146200029e57806353733f9714620002b557600080fd5b806308a111ae14620002125780631219dee2146200022b57806318160ddd1462000257575b600080fd5b6200022962000223366004620030a5565b620004e8565b005b620002426200023c3660046200316f565b62000580565b60405190151581526020015b60405180910390f35b62000261620005a3565b6040519081526020016200024e565b6200022962000281366004620031cd565b620005b4565b6200026162000298366004620031f9565b6200061a565b62000242620002af3660046200321c565b6200062f565b62000229620002c636600462003236565b62000642565b62000229620002dd36600462003288565b620006e9565b62000229620002f4366004620032a8565b62000725565b620002296200030b366004620032fc565b620007a3565b620002616200032236600462003367565b620007e4565b6200024262000339366004620032fc565b620007f1565b62000229620003503660046200321c565b620007ff565b6200022962000367366004620031cd565b620008e3565b6200022962000949565b62000242620003883660046200321c565b62000c35565b6200022962000c42565b62000242620003a93660046200321c565b62000c7f565b62000242620003c0366004620032fc565b62000c8c565b620003d062000c9a565b6040516200024e919062003392565b62000229620003f0366004620031f9565b62000ca6565b6200024262000407366004620032a8565b62000d25565b620002296200041e36600462003367565b62000d46565b6200043b620004353660046200321c565b62000d82565b6040516200024e95949392919062003429565b620002616200045f36600462003479565b62000da7565b6200022962000476366004620034b2565b62000db4565b620002426200048d366004620032a8565b62000df0565b62000242620004a4366004620031cd565b62000e03565b620004b462000e34565b60405160ff90911681526020016200024e565b6200026162000e4e565b62000229620004e2366004620034d4565b62000e5a565b6200054a6200050a620004fa62000f2b565b60601b6001600160601b03191690565b6200051462000f89565b620005446040518060400160405280600d81526020016c53797374656d2041646d696e7360981b81525062000faf565b62000fbc565b620005725760405162461bcd60e51b8152600401620005699062003555565b60405180910390fd5b6200057d8162001092565b50565b60006200059a858585620005948662000faf565b620012fa565b95945050505050565b6000620005af620013bf565b905090565b620005c66200050a620004fa62000f2b565b620005e55760405162461bcd60e51b8152600401620005699062003555565b6001600160e01b03198116600090815260008051602062004f6383398151915260205260409020805460ff1916600117905550565b6000620006288383620013d6565b9392505050565b60006200063c8262001403565b92915050565b6200069062000654620004fa62000f2b565b6200065e62000f89565b620005446040518060400160405280600f81526020016e53797374656d204d616e616765727360881b81525062000faf565b620006d55760405162461bcd60e51b81526020600482015260146024820152733737ba10309039bcb9ba32b69036b0b730b3b2b960611b604482015260640162000569565b620006e38484848462001428565b50505050565b620006fb6200050a620004fa62000f2b565b6200071a5760405162461bcd60e51b8152600401620005699062003555565b6200057d8162001595565b3360601b6001600160601b03191662000745818585620005948662000faf565b6200078c5760405162461bcd60e51b815260206004820152601660248201527506e6f7420696e2061737369676e6572732067726f75760541b604482015260640162000569565b620006e384846200079d8562000faf565b62001670565b620007b56200050a620004fa62000f2b565b620007d45760405162461bcd60e51b8152600401620005699062003555565b620007e0828262001919565b5050565b60006200063c82620019e0565b600062000628838362001a0f565b60026200080b62001a66565b60030154036200085e5760405162461bcd60e51b815260206004820152601f60248201527f5265656e7472616e637947756172643a207265656e7472616e742063616c6c00604482015260640162000569565b60026200086a62001a66565b600301556200088062000654620004fa62000f2b565b620008c55760405162461bcd60e51b81526020600482015260146024820152733737ba10309039bcb9ba32b69036b0b730b3b2b960611b604482015260640162000569565b620008d08162001a8a565b6001620008dc62001a66565b6003015550565b620008f56200050a620004fa62000f2b565b620009145760405162461bcd60e51b8152600401620005699062003555565b6200057d816001600160e01b031916600090815260008051602062004f6383398151915260205260409020805460ff19169055565b60006200095562001a66565b805490915060ff16156200097c57604051639289b96160e01b815260040160405180910390fd5b6040805180820190915260058152644e61796d7360d81b60208201526004820190620009a9908262003609565b506a52b7d2dcc80cd2e400000060068201819055336000908152600883016020526040902055466001820155620009df62001bf1565b6002820155600080805260098201602052604090208054600160ff199091161790556026810180546fffffffffffff0000ffffffffffffffff19166e4b004b0096000009c409c41388001e1790556001600160601b03193060601b1660258201556024810180546001600160a01b0319163017905560178101805460ff19166001179055600062000a8d7fc8fcad8db84d3cc18b4c41d551ea0ee66dd599cde068d998e57d5e09332c131c90565b6301ffc9a760e01b600090815260038201602090815260408083208054600160ff1991821681179092556307e4c70760e21b855282852080548216831790556348e2b09360e01b855282852080548216831790556307f5828d60e41b8552828520805482168317905563412b27ed60e01b85528285208054821683179055634a0a78a360e11b85528285208054821683179055637e16d15360e11b8552828520805482168317905563746f4fcf60e11b855282852080548216831790556354aa025760e11b85528285208054821683179055631a2da3fb60e21b8552828520805482168317905563bc4f963560e01b85528285208054821683179055633e3dddef60e11b85528285208054821683179055632a8f982560e11b8552828520805482168317905563110db82360e31b85528285208054821683179055632fd91cf760e11b8552828520805482168317905563ca53929b60e01b85529382902080548516821790558654909316909217855590513381529192507f6068e83cf4b00aceee0ba1e23c32e78f8c8458f6369f3592a2e6616a4b438e0591015b60405180910390a15050565b60006200063c8262001c9d565b62000c546200050a620004fa62000f2b565b62000c735760405162461bcd60e51b8152600401620005699062003555565b62000c7d62001ce1565b565b60006200063c826200229d565b6000620006288383620022d5565b6060620005af62002319565b600062000cb48383620013d6565b90503360601b6001600160601b03191662000cd281858585620012fa565b62000d195760405162461bcd60e51b815260206004820152601660248201527506e6f7420696e2061737369676e6572732067726f75760541b604482015260640162000569565b620006e3848462002389565b600062000d3e848462000d388562000faf565b620024d6565b949350505050565b62000d586200050a620004fa62000f2b565b62000d775760405162461bcd60e51b8152600401620005699062003555565b6200057d81620024f3565b600080606080600062000d958662002682565b939a9299509097509550909350915050565b60006200063c8262000faf565b62000dc66200050a620004fa62000f2b565b62000de55760405162461bcd60e51b8152600401620005699062003555565b6200057d8162002828565b600062000d3e8484620005448562000faf565b6001600160e01b03198116600090815260008051602062004f63833981519152602052604081205460ff166200063c565b60008062000e4162001a66565b6017015460ff1692915050565b6000620005af62000f89565b62000e6c6200050a620004fa62000f2b565b62000e8b5760405162461bcd60e51b8152600401620005699062003555565b62000ebc826040518060400160405280600d81526020016c53797374656d2041646d696e7360981b8152506200294d565b1562000f195760405162461bcd60e51b815260206004820152602560248201527f73797374656d2061646d696e732067726f7570206973206e6f74206d6f6469666044820152646961626c6560d81b606482015260840162000569565b62000f26838383620029aa565b505050565b600030330362000f8357600080368080601f0160208091040260200160405190810160405280939291908181526020018383808284376000920191909152505050503601516001600160a01b0316915062000f869050565b50335b90565b6000620005af6040518060400160405280600681526020016553797374656d60d01b8152505b60006200063c8262002aa5565b60008062000fc962001a66565b6000868152601f82016020908152604080832088845290915290205490915080158015906200101357506000818152601d83016020908152604080832087845290915290205460ff165b1562001023576001925062001089565b6000868152601f830160205260408120816200103e62000f89565b8152602081019190915260400160002054905080158015906200107c57506000818152601d84016020908152604080832088845290915290205460ff165b156200108757600193505b505b50509392505050565b60006200109e62001a66565b9050620010af6020830183620036d6565b61ffff166000108015620010d65750612710620010d06020840184620036d6565b61ffff16105b620011245760405162461bcd60e51b815260206004820181905260248201527f696e76616c69642074726164696e6720636f6d6d697373696f6e20746f74616c604482015260640162000569565b6127106200113960a0840160808501620036d6565b6200114b6080850160608601620036d6565b6200115d6060860160408701620036d6565b6200116f6040870160208801620036d6565b6200117b9190620036fc565b620011879190620036fc565b620011939190620036fc565b61ffff1614620011fa5760405162461bcd60e51b815260206004820152602b60248201527f74726164696e6720636f6d6d697373696f6e20425073206d7573742073756d2060448201526a0757020746f2031303030360ac1b606482015260840162000569565b620012096020830183620036d6565b60268201805461ffff191661ffff92909216919091179055620012336040830160208401620036d6565b60268201805461ffff92909216620100000263ffff000019909216919091179055620012666060830160408401620036d6565b60268201805461ffff929092166401000000000265ffff00000000199092169190911790556200129d6080830160608401620036d6565b60268201805461ffff9290921666010000000000000267ffff00000000000019909216919091179055620012d860a0830160808401620036d6565b8160260160086101000a81548161ffff021916908361ffff1602179055505050565b600083600003620013425760405162461bcd60e51b81526020600482015260116024820152701a5b9d985b1a59081bd89a9958dd081251607a1b604482015260640162000569565b6000806200134f62001a66565b6000858152601e82016020526040812054919250819003620013755760009250620013b3565b6200138288878362000fbc565b15620013925760019250620013b3565b620013a888620013a162000f89565b83620024d6565b15620013b357600192505b50909695505050505050565b600080620013cc62001a66565b6006015492915050565b600080620013e362001a66565b6000948552601f0160209081526040808620948652939052505090205490565b6000806200141062001a66565b60009384526009016020525050604090205460ff1690565b60006200143462001a66565b6000868152600f8201602052604090205490915060ff16156200146e57604051634fd254f560e11b81526004810186905260240162000569565b620014798362002ac1565b62001485858362002d76565b62001491848662002de4565b6000858152600f82016020908152604091829020805460ff191660011790558151808301909252600c82526b22b73a34ba3c9020b236b4b760a11b90820152620014e490859087906200079d9062000faf565b606083013515620015385760405162461bcd60e51b815260206004820152601d60248201527f7574696c697a6564206361706163697479207374617274732061742030000000604482015260640162000569565b6000858152601182016020526040902083906200155682826200372d565b505060405184815285907f14944295d1f05c993504e6e25b1bc3eaadd9ace8fcd3fa0b015880dc0cceebcb906020015b60405180910390a25050505050565b6000620015a162001a66565b601781015490915060ff90811690831611620016175760405162461bcd60e51b815260206004820152602e60248201527f5f7570646174654d61784469766964656e6444656e6f6d696e6174696f6e733a60448201526d2063616e6e6f742072656475636560901b606482015260840162000569565b60178101805460ff84811660ff1983168117909355604080519190921680825260208201939093527fe09b1c2d8d49f7249034d44d8dd27508c3f0a430a2df509300042437a4c46cf591015b60405180910390a1505050565b60006200167c62001a66565b905083600003620016c45760405162461bcd60e51b81526020600482015260116024820152701a5b9d985b1a59081bd89a9958dd081251607a1b604482015260640162000569565b826000036200170b5760405162461bcd60e51b81526020600482015260126024820152711a5b9d985b1a590818dbdb9d195e1d08125160721b604482015260640162000569565b816000036200174f5760405162461bcd60e51b815260206004820152600f60248201526e1a5b9d985b1a59081c9bdb19481251608a1b604482015260640162000569565b6000848152601f820160209081526040808320868452825291829020548251808401909352600c83526b29bcb9ba32b69020b236b4b760a11b91830191909152906200179b9062000faf565b81148015620017aa5750828114155b15620017d757600182602a015411620017d75760405162461bcd60e51b8152600401620005699062003779565b620017e162000f89565b841480156200181d57506200181a6040518060400160405280600c81526020016b29bcb9ba32b69020b236b4b760a11b81525062000faf565b83145b156200189d576200182e8562002e04565b6001600160a01b0316620018697fc8fcad8db84d3cc18b4c41d551ea0ee66dd599cde068d998e57d5e09332c1320546001600160a01b031690565b6001600160a01b0316036200189157604051633fb6eaed60e11b815260040160405180910390fd5b602a8201805460010190555b6000858152601f83016020908152604080832087845282529182902085905581518681529081018590526060918101829052600b918101919091526a5f61737369676e526f6c6560a81b608082015285907fe084640a30256726ae800352d16104f622b1744c561cad2d04e14cec8b490ee89060a00162001586565b6200192482620037bc565b60000362001945576040516305ccaaf160e41b815260040160405180910390fd5b6200195081620037bc565b6000036200197157604051630db0d26760e21b815260040160405180910390fd5b60006200197d62001a66565b90506200198a8262000faf565b81601e0160006200199b8662000faf565b8152602001908152602001600020819055507f736c56e4bb16c438047d822d53251d5034edf27808ac582857e8863b898c9529838360405162001663929190620037e1565b600080620019ed62001a66565b6001600160a01b03909316600090815260089093016020525050604090205490565b60008062001a1c62001a66565b905080601d01600062001a2f8662000faf565b8152602001908152602001600020600062001a4a8562000faf565b815260208101919091526040016000205460ff16949350505050565b7f1ab5ce5b595c6e94c5fba2e588bf4eafa8b384a4fb6e188b892768e695c1bfc790565b600062001a9662001a66565b905062001aa3826200229d565b62001ae75760405162461bcd60e51b81526020600482015260136024820152726d75737420626520746f6b656e697a61626c6560681b604482015260640162000569565b62001af28262002e6b565b1562001b415760405162461bcd60e51b815260206004820152601b60248201527f6d757374206e6f74206265207772617070656420616c72656164790000000000604482015260640162000569565b60008260405162001b52906200307e565b908152602001604051809103906000f08015801562001b75573d6000803e3d6000fd5b506000848152600e84016020908152604080832080546001600160a01b0319166001600160a01b038616908117909155808452602b870183529281902087905551918252919250829185917fa31821b12665c4ed143d0185d4d5bceab4b16f15fad65d427a9f946457876af4910160405180910390a250505050565b60008062001bfe62001a66565b90507f8b73c3c69bb8fe3d512ecc4cf759cc79239f7b179b0ffacaa9a75d522b39400f8160040160405162001c3491906200380a565b6040805191829003822060208301939093528101919091527fc89efdaa54c0f20c7adf612882df0950f5a951637e0307cdcb4c672f298b8bc660608201524660808201523060a082015260c0016040516020818303038152906040528051906020012091505090565b60008062001caa62001a66565b905080601301600062001cbd8562002e04565b6001600160a01b0316815260208101919091526040016000205460ff169392505050565b60008051602062004f6383398151915260208181527f1743a135ce53c05672f6ed0c770fed28c8645c3ce3ac33c9562c0f83f5791ce38054600160ff1991821681179092557fb0d7946bab2bcff712b0b8060e6339d4cd57d81112f27585f6a9c9f4c82c871880548216831790557f968f13724f2e05c1c6a36dba7f63d223a09c2392af2c888997c7e1e27449392780548216831790557fea11e08356013ee1b3687be68562968754c11bc893be36e9dcae00d20c17b9c280548216831790557f2ad254b5adf80a1139bb642a638337f98a7bc4dbea8c884c8adfa6f214db675c80548216831790557f38a8780df60d8c75479a519ad6d31e7fb3c7cc4c789a838dbd5e023dbe49908780548216831790557f1772caca7923025e0b39f6119286eed961d96ec0945382d8888b6aec6956872280548216831790557f2606e17099b55db6612fd5f37660368e2e72ddb19e5e0a2c291fbbf79b7a340180548216831790557f14acd49b0e3c7019614cfd8d410ac1d86dec14e7f2f17198a207c5fae23bd98c80548216831790557fd229f64f1d380ed8f77666b09e3e50b2fe8b17965c430a6e2c46b70a5dc1ec6380548216831790557ffe06b9dea9bf231645737f742acbe25d8178941a75627a5987c1ecc01bb0699980548216831790557f3fc186aee25899ae67e4d09af14fb24d828c543a090ada4762a6cb020525ea6e805482168317905563137b50cf60e31b60009081527fb683c65cbc6f7f7e4c663d24b2c53ab0e52136440fe2489b84d61963ffeea6b18054909216909217905560408051600e8082526101e08201909252919282016101c08036833701905050905063a2e4569b60e01b8160008151811062001f615762001f6162003888565b6001600160e01b0319909216602092830291909101909101528051633a2cfecf60e21b908290600190811062001f9b5762001f9b62003888565b6001600160e01b0319909216602092830291909101909101528051637d29260560e01b908290600290811062001fd55762001fd562003888565b6001600160e01b031990921660209283029190910190910152805162bae17360e01b90829060039081106200200e576200200e62003888565b6001600160e01b031990921660209283029190910190910152805163ef706adf60e01b908290600490811062002048576200204862003888565b6001600160e01b031990921660209283029190910190910152805163013be00960e71b908290600590811062002082576200208262003888565b6001600160e01b031990921660209283029190910190910152805163a6cd857d60e01b9082906006908110620020bc57620020bc62003888565b6001600160e01b031990921660209283029190910190910152805163aa47d5cb60e01b9082906007908110620020f657620020f662003888565b6001600160e01b031990921660209283029190910190910152805163c978758960e01b908290600890811062002130576200213062003888565b6001600160e01b0319909216602092830291909101909101528051631ed7db6560e01b90829060099081106200216a576200216a62003888565b6001600160e01b031990921660209283029190910190910152805163067edbfb60e31b908290600a908110620021a457620021a462003888565b6001600160e01b031990921660209283029190910190910152805163ad747f2f60e01b908290600b908110620021de57620021de62003888565b6001600160e01b031990921660209283029190910190910152805163aa47d5cb60e01b908290600c90811062002218576200221862003888565b6001600160e01b031990921660209283029190910190910152805163137b50cf60e31b908290600d90811062002252576200225262003888565b6001600160e01b0319909216602092830291909101909101526040517f1e02b6835506864ec2cb8a3ed28211eb5f3a59f5e01b27a38237e67175e8b0549062000c299083906200389e565b600080620022aa62001a66565b6000848152600c820160205260409020805491925090620022cb9062003581565b1515949350505050565b600080620022e262001a66565b9050620022ef8362000faf565b81601e016000620023008762000faf565b8152602001908152602001600020541491505092915050565b606060006200232762001a66565b601481018054604080516020808402820181019092528281529394508301828280156200237e57602002820191906000526020600020905b81546001600160a01b031681526001909101906020018083116200235f575b505050505091505090565b60006200239562001a66565b6000848152601f820160209081526040808320868452909152902054909150620023be62000f89565b83148015620023fa5750620023f76040518060400160405280600c81526020016b29bcb9ba32b69020b236b4b760a11b81525062000faf565b81145b156200243457600182602a015411620024275760405162461bcd60e51b8152600401620005699062003779565b602a820180546000190190555b6000848152601f8301602090815260408083208684529091529081902054905185917fe084640a30256726ae800352d16104f622b1744c561cad2d04e14cec8b490ee891620024b0918782526020820152606060408201819052600d908201526c5f756e61737369676e526f6c6560981b608082015260a00190565b60405180910390a2506000928352601f0160209081526040808420928452919052812055565b600080620024e48562002e98565b90506200059a81858562000fbc565b6012620025008262002eba565b60ff1611156200252357604051630f4051bd60e11b815260040160405180910390fd5b60006200252f62001a66565b6001600160a01b0383166000908152602b8201602052604090205490915015620025b75760405162461bcd60e51b815260206004820152603260248201527f63616e6e6f74206164642070617274696369706174696f6e20746f6b656e20776044820152711c985c1c195c88185cc8195e1d195c9b985b60721b606482015260840162000569565b6001600160a01b038216600090815260138201602052604090205460ff168062000f26576001600160a01b03831660009081526013830160205260409020805460ff191660011790556200261f620026198460601b6001600160601b03191690565b6200301f565b60148201805460018101825560009182526020918290200180546001600160a01b0319166001600160a01b0386169081179091556040519081527fd1be2e90bd3d24839d9dd94ad871068e1f9688b02fa43f2a62c9975dfa9de2d7910162001663565b6000806060806000806200269562001a66565b6000888152600a82016020908152604080832054600b8501835281842054600c860190935292208054929950909750919250620026d29062003581565b80601f0160208091040260200160405190810160405280929190818152602001828054620027009062003581565b8015620027515780601f10620027255761010080835404028352916020019162002751565b820191906000526020600020905b8154815290600101906020018083116200273357829003601f168201915b50505060008a8152600d850160205260409020805493975092620027789250905062003581565b80601f0160208091040260200160405190810160405280929190818152602001828054620027a69062003581565b8015620027f75780601f10620027cb57610100808354040283529160200191620027f7565b820191906000526020600020905b815481529060010190602001808311620027d957829003601f168201915b5050506000998a525050600e90910160205260409096205494969395929492936001600160a01b0390931692915050565b60006200283462001a66565b905060006200284a6060840160408501620036d6565b6200285c6040850160208601620036d6565b6200286b6020860186620036d6565b620028779190620036fc565b620028839190620036fc565b61ffff169050612710811115620028b157604051633b4c95fd60e01b81526004810182905260240162000569565b620028c06020840184620036d6565b60268301805461ffff92909216600160501b0261ffff60501b19909216919091179055620028f56040840160208501620036d6565b60268301805461ffff92909216600160601b0261ffff60601b199092169190911790556200292a6060840160408501620036d6565b82602601600e6101000a81548161ffff021916908361ffff160217905550505050565b600081604051602001620029629190620038e2565b60405160208183030381529060405280519060200120836040516020016200298b9190620038e2565b6040516020818303038152906040528051906020012014905092915050565b6000620029b662001a66565b9050620029c384620037bc565b600003620029e4576040516305ccaaf160e41b815260040160405180910390fd5b620029ef83620037bc565b60000362002a1057604051630db0d26760e21b815260040160405180910390fd5b8181601d01600062002a228762000faf565b8152602001908152602001600020600062002a3d8662000faf565b815260200190815260200160002060006101000a81548160ff0219169083151502179055507f6f94e7b578c4524a9c142c004ba6682c061019130e377a6f81d31792a25b7bcc84848460405162002a979392919062003900565b60405180910390a150505050565b6000815160000362002ab957506000919050565b506020015190565b80351562002c6d5762002ad5813562001c9d565b62002b235760405162461bcd60e51b815260206004820152601f60248201527f65787465726e616c20746f6b656e206973206e6f7420737570706f7274656400604482015260640162000569565b806020013560011115801562002b3f5750612710816020013511155b62002b9b5760405162461bcd60e51b815260206004820152602560248201527f636f6c6c61746572616c20726174696f2073686f756c64206265203120746f20604482015264031303030360dc1b606482015260840162000569565b62002bad60a08201608083016200393c565b158062002bbe575060008160400135115b62002c325760405162461bcd60e51b815260206004820152603960248201527f6d61782063617061636974792073686f756c642062652067726561746572207460448201527f68616e203020666f7220706f6c696379206372656174696f6e00000000000000606482015260840162000569565b8060400135816060013511156200057d5760408051630102498560e11b81526060830135600482015290820135602482015260440162000569565b60208101351562002cc15760405162461bcd60e51b815260206004820152601e60248201527f6f6e6c792063656c6c2068617320636f6c6c61746572616c20726174696f0000604482015260640162000569565b62002cd360a08201608083016200393c565b1562002d225760405162461bcd60e51b815260206004820152601c60248201527f6f6e6c792063656c6c2063616e20697373756520706f6c696369657300000000604482015260640162000569565b6040810135156200057d5760405162461bcd60e51b815260206004820152601c60248201527f6f6e6c792063656c6c732068617665206d617820636170616369747900000000604482015260640162000569565b600062002d8262001a66565b600084815260098201602052604090205490915060ff161562002db95760405162461bcd60e51b815260040162000569906200395c565b60009283526009810160209081526040808520805460ff19166001179055600b909201905290912055565b600062002df062001a66565b6000938452600a0160205250604090912055565b60006bffffffffffffffffffffffff82161562002e645760405162461bcd60e51b815260206004820152601e60248201527f496e76616c69642065787465726e616c20746f6b656e20616464726573730000604482015260640162000569565b5060601c90565b60008062002e7862001a66565b6000938452600e01602052505060409020546001600160a01b0316151590565b60008062002ea562001a66565b6000938452600a016020525050604090205490565b6000813b8062002f1f5760405162461bcd60e51b815260206004820152602960248201527f4c696245524332303a20455243323020746f6b656e206164647265737320686160448201526873206e6f20636f646560b81b606482015260840162000569565b60408051600481526024810182526020810180516001600160e01b031663313ce56760e01b179052905160009182916001600160a01b0387169162002f6491620038e2565b6000604051808303816000865af19150503d806000811462002fa3576040519150601f19603f3d011682016040523d82523d6000602084013e62002fa8565b606091505b5091509150811562002fca57808060200190518101906200059a9190620039ac565b60405162461bcd60e51b815260206004820152602360248201527f4c696245524332303a2063616c6c20746f20646563696d616c732829206661696044820152621b195960ea1b606482015260840162000569565b60006200302b62001a66565b600083815260098201602052604090205490915060ff1615620030625760405162461bcd60e51b815260040162000569906200395c565b600091825260090160205260409020805460ff19166001179055565b61159680620039cd83390190565b600060a082840312156200309f57600080fd5b50919050565b600060a08284031215620030b857600080fd5b6200062883836200308c565b634e487b7160e01b600052604160045260246000fd5b600082601f830112620030ec57600080fd5b813567ffffffffffffffff808211156200310a576200310a620030c4565b604051601f8301601f19908116603f01168101908282118183101715620031355762003135620030c4565b816040528381528660208588010111156200314f57600080fd5b836020870160208301376000602085830101528094505050505092915050565b600080600080608085870312156200318657600080fd5b843593506020850135925060408501359150606085013567ffffffffffffffff811115620031b357600080fd5b620031c187828801620030da565b91505092959194509250565b600060208284031215620031e057600080fd5b81356001600160e01b0319811681146200062857600080fd5b600080604083850312156200320d57600080fd5b50508035926020909101359150565b6000602082840312156200322f57600080fd5b5035919050565b60008060008061010085870312156200324e57600080fd5b84359350602085013592506200326886604087016200308c565b9396929550929360e00135925050565b60ff811681146200057d57600080fd5b6000602082840312156200329b57600080fd5b8135620006288162003278565b600080600060608486031215620032be57600080fd5b8335925060208401359150604084013567ffffffffffffffff811115620032e457600080fd5b620032f286828701620030da565b9150509250925092565b600080604083850312156200331057600080fd5b823567ffffffffffffffff808211156200332957600080fd5b6200333786838701620030da565b935060208501359150808211156200334e57600080fd5b506200335d85828601620030da565b9150509250929050565b6000602082840312156200337a57600080fd5b81356001600160a01b03811681146200062857600080fd5b6020808252825182820181905260009190848201906040850190845b81811015620013b35783516001600160a01b031683529284019291840191600101620033ae565b60005b83811015620033f2578181015183820152602001620033d8565b50506000910152565b6000815180845262003415816020860160208601620033d5565b601f01601f19169290920160200192915050565b85815284602082015260a0604082015260006200344a60a0830186620033fb565b82810360608401526200345e8186620033fb565b91505060018060a01b03831660808301529695505050505050565b6000602082840312156200348c57600080fd5b813567ffffffffffffffff811115620034a457600080fd5b62000d3e84828501620030da565b6000606082840312156200309f57600080fd5b80151581146200057d57600080fd5b600080600060608486031215620034ea57600080fd5b833567ffffffffffffffff808211156200350357600080fd5b6200351187838801620030da565b945060208601359150808211156200352857600080fd5b506200353786828701620030da565b92505060408401356200354a81620034c5565b809150509250925092565b6020808252601290820152713737ba10309039bcb9ba32b69030b236b4b760711b604082015260600190565b600181811c908216806200359657607f821691505b6020821081036200309f57634e487b7160e01b600052602260045260246000fd5b601f82111562000f2657600081815260208120601f850160051c81016020861015620035e05750805b601f850160051c820191505b818110156200360157828155600101620035ec565b505050505050565b815167ffffffffffffffff811115620036265762003626620030c4565b6200363e8162003637845462003581565b84620035b7565b602080601f8311600181146200367657600084156200365d5750858301515b600019600386901b1c1916600185901b17855562003601565b600085815260208120601f198616915b82811015620036a75788860151825594840194600190910190840162003686565b5085821015620036c65787850151600019600388901b60f8161c191681555b5050505050600190811b01905550565b600060208284031215620036e957600080fd5b813561ffff811681146200062857600080fd5b61ffff8181168382160190808211156200372657634e487b7160e01b600052601160045260246000fd5b5092915050565b813581556020820135600182015560408201356002820155606082013560038201556004810160808301356200376381620034c5565b815490151560ff1660ff19919091161790555050565b60208082526023908201527f6d7573742068617665206174206c65617374206f6e652073797374656d20616460408201526236b4b760e91b606082015260800190565b805160208083015191908110156200309f5760001960209190910360031b1b16919050565b604081526000620037f66040830185620033fb565b82810360208401526200059a8185620033fb565b60008083546200381a8162003581565b600182811680156200383557600181146200384b576200387c565b60ff19841687528215158302870194506200387c565b8760005260208060002060005b85811015620038735781548a82015290840190820162003858565b50505082870194505b50929695505050505050565b634e487b7160e01b600052603260045260246000fd5b6020808252825182820181905260009190848201906040850190845b81811015620013b35783516001600160e01b03191683529284019291840191600101620038ba565b60008251620038f6818460208701620033d5565b9190910192915050565b606081526000620039156060830186620033fb565b8281036020840152620039298186620033fb565b9150508215156040830152949350505050565b6000602082840312156200394f57600080fd5b81356200062881620034c5565b60208082526030908201527f6f626a656374496420697320616c7265616479206265696e672075736564206260408201526f1e48185b9bdd1a195c881bd89a9958dd60821b606082015260800190565b600060208284031215620039bf57600080fd5b815162000628816200327856fe6101006040523480156200001257600080fd5b5060405162001596380380620015968339810160408190526200003591620002a2565b3360a081905260405163531657c160e11b81526004810183905263a62caf82906024016020604051808303816000875af115801562000078573d6000803e3d6000fd5b505050506040513d601f19601f820116820180604052508101906200009e9190620002bc565b620000f05760405162461bcd60e51b815260206004820152601360248201527f6d75737420626520746f6b656e697a61626c650000000000000000000000000060448201526064015b60405180910390fd5b60a0516040516310b4955d60e01b8152600481018390526001600160a01b03909116906310b4955d90602401602060405180830381865afa1580156200013a573d6000803e3d6000fd5b505050506040513d601f19601f82011682018060405250810190620001609190620002bc565b15620001af5760405162461bcd60e51b815260206004820152601b60248201527f6d757374206e6f74206265207772617070656420616c726561647900000000006044820152606401620000e7565b60808190524660c052620001c2620001cc565b60e05250620002e7565b60007f8b73c3c69bb8fe3d512ecc4cf759cc79239f7b179b0ffacaa9a75d522b39400f620002076080516200027160201b62000dd71760201c565b80516020918201206040805192830193909352918101919091527fc89efdaa54c0f20c7adf612882df0950f5a951637e0307cdcb4c672f298b8bc660608201524660808201523060a082015260c00160405160208183030381529060405280519060200120905090565b6040805160208082528183019092526060916000919060208201818036833750505060208101939093525090919050565b600060208284031215620002b557600080fd5b5051919050565b600060208284031215620002cf57600080fd5b81518015158114620002e057600080fd5b9392505050565b60805160a05160c05160e0516112286200036e60003960006106bd0152600061068d0152600081816102a601528181610384015281816105ea015281816107910152818161089b0152610afd0152600081816102720152818161035b015281816105bd015281816107f00152818161086701528181610ad00152610e3001526112286000f3fe608060405234801561001057600080fd5b50600436106100f55760003560e01c806355b6ed5c11610097578063a457c2d711610066578063a457c2d7146101f1578063a9059cbb14610204578063d505accf14610217578063dd62ed3e1461022c57600080fd5b806355b6ed5c1461018e57806370a08231146101b65780637ecebe00146101c957806395d89b41146101e957600080fd5b806323b872dd116100d357806323b872dd14610151578063313ce567146101645780633644e51514610173578063395093511461017b57600080fd5b806306fdde03146100fa578063095ea7b31461011857806318160ddd1461013b575b600080fd5b610102610263565b60405161010f9190610ee2565b60405180910390f35b61012b610126366004610f2d565b61031f565b604051901515815260200161010f565b61014361034c565b60405190815260200161010f565b61012b61015f366004610f59565b6103fc565b6040516012815260200161010f565b610143610689565b61012b610189366004610f2d565b6106df565b61014361019c366004610f9a565b600060208181529281526040808220909352908152205481565b6101436101c4366004610fd3565b61078d565b6101436101d7366004610fd3565b60016020526000908152604090205481565b610102610858565b61012b6101ff366004610f2d565b610915565b61012b610212366004610f2d565b6109c7565b61022a610225366004610ff7565b610b9a565b005b61014361023a366004610f9a565b6001600160a01b0391821660009081526020818152604080832093909416825291909152205490565b60405163678667cf60e11b81527f000000000000000000000000000000000000000000000000000000000000000060048201526060906000906001600160a01b037f0000000000000000000000000000000000000000000000000000000000000000169063cf0ccf9e90602401600060405180830381865afa1580156102ed573d6000803e3d6000fd5b505050506040513d6000823e601f3d908101601f19168201604052610315919081019061110c565b5095945050505050565b336000908152602081815260408083206001600160a01b0386168452909152902081905560015b92915050565b604051637104788560e11b81527f000000000000000000000000000000000000000000000000000000000000000060048201526000907f00000000000000000000000000000000000000000000000000000000000000006001600160a01b03169063e208f10a90602401602060405180830381865afa1580156103d3573d6000803e3d6000fd5b505050506040513d601f19601f820116820180604052508101906103f79190611198565b905090565b6000805160206111d383398151915254600090600119016104645760405162461bcd60e51b815260206004820152601f60248201527f5265656e7472616e637947756172643a207265656e7472616e742063616c6c0060448201526064015b60405180910390fd5b60026000805160206111d383398151915255600082900361048457600080fd5b6001600160a01b038416600090815260208181526040808320338452909152902054828110156104ed5760405162461bcd60e51b81526020600482015260146024820152736e6f7420656e6f75676820616c6c6f77616e636560601b604482015260640161045b565b60001981146105235761050083826111b1565b6001600160a01b0386166000908152602081815260408083203384529091529020555b60006105398660601b6001600160601b03191690565b905060006105518660601b6001600160601b03191690565b9050856001600160a01b0316876001600160a01b03167fddf252ad1be2c89b69c2b068fc378daa952ba7f163c4a11628f55a4df523b3ef8760405161059891815260200190565b60405180910390a3604051631ed7db6560e01b815260048101839052602481018290527f00000000000000000000000000000000000000000000000000000000000000006044820152606481018690527f00000000000000000000000000000000000000000000000000000000000000006001600160a01b031690631ed7db6590608401600060405180830381600087803b15801561063657600080fd5b505af115801561064a573d6000803e3d6000fd5b5050505060019350505050600161067e7f1ab5ce5b595c6e94c5fba2e588bf4eafa8b384a4fb6e188b892768e695c1bfc790565b600301559392505050565b60007f000000000000000000000000000000000000000000000000000000000000000046146106ba576103f7610e08565b507f000000000000000000000000000000000000000000000000000000000000000090565b336000908152602081815260408083206001600160a01b0386168452909152812054829061070f906000196111b1565b101561075d5760405162461bcd60e51b815260206004820152601960248201527f45524332303a20616c6c6f77616e6365206f766572666c6f7700000000000000604482015260640161045b565b50336000908152602081815260408083206001600160a01b03861684529091529020805482019055600192915050565b60007f00000000000000000000000000000000000000000000000000000000000000006001600160a01b0316635c9233016107d28460601b6001600160601b03191690565b6040516001600160e01b031960e084901b16815260048101919091527f00000000000000000000000000000000000000000000000000000000000000006024820152604401602060405180830381865afa158015610834573d6000803e3d6000fd5b505050506040513d601f19601f820116820180604052508101906103469190611198565b60405163678667cf60e11b81527f000000000000000000000000000000000000000000000000000000000000000060048201526060906000906001600160a01b037f0000000000000000000000000000000000000000000000000000000000000000169063cf0ccf9e90602401600060405180830381865afa1580156108e2573d6000803e3d6000fd5b505050506040513d6000823e601f3d908101601f1916820160405261090a919081019061110c565b509095945050505050565b336000908152602081815260408083206001600160a01b0386168452909152812054828110156109955760405162461bcd60e51b815260206004820152602560248201527f45524332303a2064656372656173656420616c6c6f77616e63652062656c6f77604482015264207a65726f60d81b606482015260840161045b565b5050336000908152602081815260408083206001600160a01b0386168452909152902080548290039055600192915050565b6000805160206111d38339815191525460009060011901610a2a5760405162461bcd60e51b815260206004820152601f60248201527f5265656e7472616e637947756172643a207265656e7472616e742063616c6c00604482015260640161045b565b60026000805160206111d38339815191525560003360601b6001600160601b03191690506000610a648560601b6001600160601b03191690565b9050846001600160a01b0316336001600160a01b03167fddf252ad1be2c89b69c2b068fc378daa952ba7f163c4a11628f55a4df523b3ef86604051610aab91815260200190565b60405180910390a3604051631ed7db6560e01b815260048101839052602481018290527f00000000000000000000000000000000000000000000000000000000000000006044820152606481018590527f00000000000000000000000000000000000000000000000000000000000000006001600160a01b031690631ed7db6590608401600060405180830381600087803b158015610b4957600080fd5b505af1158015610b5d573d6000803e3d6000fd5b505050506001925050506001610b907f1ab5ce5b595c6e94c5fba2e588bf4eafa8b384a4fb6e188b892768e695c1bfc790565b6003015592915050565b42841015610bea5760405162461bcd60e51b815260206004820152601760248201527f5045524d49545f444541444c494e455f45585049524544000000000000000000604482015260640161045b565b60006001610bf6610689565b6001600160a01b038a81166000818152600160208181526040928390208054928301905582517f6e71edae12b1b97f4d1f60370fef10105fa2faae0126114a169c64845d6126c98183015280840194909452938d166060840152608083018c905260a083015260c08083018b90528151808403909101815260e08301909152805192019190912061190160f01b6101008301526101028201929092526101228101919091526101420160408051601f198184030181528282528051602091820120600084529083018083525260ff871690820152606081018590526080810184905260a0016020604051602081039080840390855afa158015610cfd573d6000803e3d6000fd5b5050604051601f1901519150506001600160a01b03811615801590610d335750876001600160a01b0316816001600160a01b0316145b610d705760405162461bcd60e51b815260206004820152600e60248201526d24a72b20a624a22fa9a4a3a722a960911b604482015260640161045b565b6001600160a01b039081166000908152602081815260408083208a8516808552908352928190208990555188815291928a16917f8c5be1e5ebec7d5bd14f71427d1e84f3dd0314c0f7b2291e5b200ac8c7c3b925910160405180910390a350505050505050565b6040805160208082528183019092526060916000919060208201818036833750505060208101939093525090919050565b60007f8b73c3c69bb8fe3d512ecc4cf759cc79239f7b179b0ffacaa9a75d522b39400f610e547f0000000000000000000000000000000000000000000000000000000000000000610dd7565b80516020918201206040805192830193909352918101919091527fc89efdaa54c0f20c7adf612882df0950f5a951637e0307cdcb4c672f298b8bc660608201524660808201523060a082015260c00160405160208183030381529060405280519060200120905090565b60005b83811015610ed9578181015183820152602001610ec1565b50506000910152565b6020815260008251806020840152610f01816040850160208701610ebe565b601f01601f19169190910160400192915050565b6001600160a01b0381168114610f2a57600080fd5b50565b60008060408385031215610f4057600080fd5b8235610f4b81610f15565b946020939093013593505050565b600080600060608486031215610f6e57600080fd5b8335610f7981610f15565b92506020840135610f8981610f15565b929592945050506040919091013590565b60008060408385031215610fad57600080fd5b8235610fb881610f15565b91506020830135610fc881610f15565b809150509250929050565b600060208284031215610fe557600080fd5b8135610ff081610f15565b9392505050565b600080600080600080600060e0888a03121561101257600080fd5b873561101d81610f15565b9650602088013561102d81610f15565b95506040880135945060608801359350608088013560ff8116811461105157600080fd5b9699959850939692959460a0840135945060c09093013592915050565b634e487b7160e01b600052604160045260246000fd5b600082601f83011261109557600080fd5b815167ffffffffffffffff808211156110b0576110b061106e565b604051601f8301601f19908116603f011681019082821181831017156110d8576110d861106e565b816040528381528660208588010111156110f157600080fd5b611102846020830160208901610ebe565b9695505050505050565b600080600080600060a0868803121561112457600080fd5b8551945060208601519350604086015167ffffffffffffffff8082111561114a57600080fd5b61115689838a01611084565b9450606088015191508082111561116c57600080fd5b5061117988828901611084565b925050608086015161118a81610f15565b809150509295509295909350565b6000602082840312156111aa57600080fd5b5051919050565b8181038181111561034657634e487b7160e01b600052601160045260246000fdfe1ab5ce5b595c6e94c5fba2e588bf4eafa8b384a4fb6e188b892768e695c1bfcaa2646970667358221220bfd09363d8cc3f2390298f784784015006d0e7273230cb7f39b190ebcdd08a5d64736f6c6343000811003347f677dbe524b93b2c36e6f8027a75c4906479c31df070fdbea83211f1a26050a26469706673582212202763ecc5f091702b44e3ed2b0675ab3a3522f0aad7ffd5c35a461fd3d63f80a464736f6c63430008110033",
    "linkReferences": {}
  },
  "methodIdentifiers": {
    "addSupportedExternalToken(address)": "cb429501",
    "assignRole(bytes32,bytes32,string)": "5e1ac8fa",
    "balanceOf(address)": "70a08231",
    "canAssign(bytes32,bytes32,bytes32,string)": "1219dee2",
    "canGroupAssignRole(string,string)": "af76f046",
    "createEntity(bytes32,bytes32,(bytes32,uint256,uint256,uint256,bool),bytes32)": "53733f97",
    "getMaxDividendDenominations()": "e9f0273c",
    "getObjectMeta(bytes32)": "cf0ccf9e",
    "getRoleInContext(bytes32,bytes32)": "47c07483",
    "getSupportedExternalTokens()": "bdd2620a",
    "getSystemId()": "eb75c8e8",
    "initialize()": "8129fc1c",
    "isFunctionLocked(bytes4)": "e6a19df2",
    "isInGroup(bytes32,bytes32,string)": "d774b4e3",
    "isObject(bytes32)": "524d8dd5",
    "isObjectTokenizable(bytes32)": "a62caf82",
    "isParentInGroup(bytes32,bytes32,string)": "c8422402",
    "isRoleInGroup(string,string)": "7273e796",
    "isSupportedExternalToken(bytes32)": "a0069289",
    "lockAllFundTransferFunctions()": "a246e7a8",
    "lockFunction(bytes4)": "34531828",
    "setMaxDividendDenominations(uint8)": "5c74d6a4",
    "setPolicyCommissionsBasisPoints((uint16,uint16,uint16))": "d57af28f",
    "setTradingCommissionsBasisPoints((uint16,uint16,uint16,uint16,uint16))": "08a111ae",
    "stringToBytes32(string)": "cfb51928",
    "totalSupply()": "18160ddd",
    "unassignRole(bytes32,bytes32)": "c1b2bc96",
    "unlockFunction(bytes4)": "7f09d085",
    "updateRoleAssigner(string,string)": "6362aeb4",
    "updateRoleGroup(string,string,bool)": "ff3406ce",
    "wrapToken(bytes32)": "7dfcdf2a"
  },
  "id": 114
}