{
  "abi": [
    {
      "inputs": [],
      "name": "ExternalDepositAmountCannotBeZero",
      "type": "error"
    },
    {
      "inputs": [],
      "name": "IncorrectPriceCalculation",
      "type": "error"
    },
    {
      "inputs": [
        {
          "internalType": "uint256",
          "name": "valueRatio",
          "type": "uint256"
        }
      ],
      "name": "NaymsValueRatioTooLow",
      "type": "error"
    },
    {
      "inputs": [
        {
          "internalType": "address",
          "name": "tokenAddress",
          "type": "address"
        }
      ],
      "name": "PriceOracleNotFound",
      "type": "error"
    },
    {
      "inputs": [],
      "name": "T",
      "type": "error"
    },
    {
      "inputs": [
        {
          "internalType": "address",
          "name": "tokenAddress",
          "type": "address"
        }
      ],
      "name": "TokenNotSupported",
      "type": "error"
    },
    {
      "anonymous": false,
      "inputs": [
        {
          "indexed": false,
          "internalType": "address",
          "name": "tokenAddress",
          "type": "address"
        },
        {
          "indexed": false,
          "internalType": "uint256",
          "name": "amount",
          "type": "uint256"
        },
        {
          "indexed": false,
          "internalType": "uint256",
          "name": "naymsAmount",
          "type": "uint256"
        }
      ],
      "name": "BoughtDiscountedNayms",
      "type": "event"
    },
    {
      "inputs": [
        {
          "internalType": "address",
          "name": "tokenAddress",
          "type": "address"
        },
        {
          "internalType": "uint256",
          "name": "amount",
          "type": "uint256"
        }
      ],
      "name": "buyDiscountedNayms",
      "outputs": [],
      "stateMutability": "nonpayable",
      "type": "function"
    },
    {
      "inputs": [
        {
          "internalType": "address",
          "name": "tokenAddress",
          "type": "address"
        },
        {
          "internalType": "uint256",
          "name": "amount",
          "type": "uint256"
        }
      ],
      "name": "getAdjustedNaymsValueRatio",
      "outputs": [
        {
          "internalType": "uint256",
          "name": "",
          "type": "uint256"
        },
        {
          "internalType": "uint256",
          "name": "",
          "type": "uint256"
        }
      ],
      "stateMutability": "nonpayable",
      "type": "function"
    },
    {
      "inputs": [],
      "name": "getNaymsValueRatio",
      "outputs": [
        {
          "internalType": "uint256",
          "name": "",
          "type": "uint256"
        }
      ],
      "stateMutability": "nonpayable",
      "type": "function"
    },
    {
      "inputs": [
        {
          "internalType": "address",
          "name": "tokenAddress",
          "type": "address"
        },
        {
          "internalType": "uint256",
          "name": "amount",
          "type": "uint256"
        }
      ],
      "name": "getValueOfAsset",
      "outputs": [
        {
          "internalType": "uint256",
          "name": "priceX96",
          "type": "uint256"
        },
        {
          "internalType": "uint256",
          "name": "value",
          "type": "uint256"
        }
      ],
      "stateMutability": "view",
      "type": "function"
    }
  ],
  "bytecode": {
    "object": "0x608060405234801561001057600080fd5b506121b2806100206000396000f3fe608060405234801561001057600080fd5b506004361061004c5760003560e01c80631e7cc3c0146100515780638b2e40da1461006c578063a5a55fd814610094578063c582b992146100a7575b600080fd5b6100596100bc565b6040519081526020015b60405180910390f35b61007f61007a366004611b6c565b610315565b60408051928352602083019190915201610063565b61007f6100a2366004611b6c565b61032d565b6100ba6100b5366004611b6c565b610345565b005b60008060008051602061213d833981519152905060006100f66040518060400160405280600381526020016227222360e91b8152506104d4565b905060006101088284602501546104e5565b306000908152602f850160209081526040808320546001600160a01b031680845260348801909252822054929350916101519061014c90849063ffffffff16610520565b6106f3565b9050600061015f8285611bae565b9050600061016b61070d565b51905060008060008060008060005b878110156102cb5761018a61070d565b818151811061019b5761019b611bc5565b602002602001015192508d602f016000846001600160a01b03166001600160a01b0316815260200190815260200160002060009054906101000a90046001600160a01b0316915060006001600160a01b0316826001600160a01b031603610225576040516331283b6b60e11b81526001600160a01b03841660048201526024015b60405180910390fd5b6102428d606085901b6001600160601b0319166104e5565b6104e5565b965086156102bb576001600160a01b038216600090815260348f01602052604090205461027690839063ffffffff16610520565b9450610281856106f3565b9350836000036102a457604051630b13482b60e01b815260040160405180910390fd5b6102ae8488611bae565b6102b89087611bdb565b95505b6102c481611bee565b905061017a565b50846000036102e9576127109d505050505050505050505050505090565b6000856102f86127108b611bae565b6103029190611c1d565b9f9e505050505050505050505050505050565b6000806103228484610780565b915091509250929050565b60008061033a8484610949565b909590945092505050565b6001600160a01b03821660009081527f1ab5ce5b595c6e94c5fba2e588bf4eafa8b384a4fb6e188b892768e695c1bfda602052604090205460008051602061213d8339815191529060ff166103b8576040516306439c6b60e01b81526001600160a01b038416600482015260240161021c565b6000806103c58585610780565b9150915082603901548210156103f157604051637191e7cf60e01b81526004810183905260240161021c565b3360601b6001600160601b03191660008181527f1ab5ce5b595c6e94c5fba2e588bf4eafa8b384a4fb6e188b892768e695c1bfd0602052604090205460ff1661043d5761043d81610a12565b60006104636040518060400160405280600381526020016227222360e91b8152506104d4565b9050610470818888610ad5565b6104808183876025015486610b4f565b50604080516001600160a01b0389168152602081018890529081018490527f834ab2ef21c4d2f8e534ea266afe061ac20dfc374e8cd4b9eab8538eeb2a83339060600160405180910390a150505050505050565b60006104df82610db7565b92915050565b60009081527f1ab5ce5b595c6e94c5fba2e588bf4eafa8b384a4fb6e188b892768e695c1bfdc60209081526040808320938352929052205490565b60008163ffffffff166000036105a157826001600160a01b0316633850c7bd6040518163ffffffff1660e01b815260040160e060405180830381865afa15801561056e573d6000803e3d6000fd5b505050506040513d601f19601f820116820180604052508101906105929190611c58565b509495506104df945050505050565b60408051600280825260608201835260009260208301908036833701905050905082816000815181106105d6576105d6611bc5565b602002602001019063ffffffff16908163ffffffff168152505060008160018151811061060557610605611bc5565b63ffffffff9092166020928302919091019091015260405163883bdbfd60e01b81526000906001600160a01b0386169063883bdbfd90610649908590600401611d08565b600060405180830381865afa158015610666573d6000803e3d6000fd5b505050506040513d6000823e601f3d908101601f1916820160405261068e9190810190611e1b565b5090506106ea8463ffffffff16826000815181106106ae576106ae611bc5565b6020026020010151836001815181106106c9576106c9611bc5565b60200260200101516106db9190611ee7565b6106e59190611f14565b610dd2565b95945050505050565b60006104df6001600160a01b03831680600160601b6110f5565b6060600060008051602061213d8339815191526014810180546040805160208084028201810190925282815293945083018282801561077557602002820191906000526020600020905b81546001600160a01b03168152600190910190602001808311610757575b505050505091505090565b6000808060008051602061213d833981519152905060006107bb6040518060400160405280600381526020016227222360e91b8152506104d4565b90506000806107d7306107d28587602501546104e5565b610949565b9150915060006107e561070d565b5190506000806000806000805b8681101561090b5761080261070d565b818151811061081357610813611bc5565b602002602001015192506108388a61023d856001600160601b031960609190911b1690565b955085156108fb57826001600160a01b03168f6001600160a01b031603610866576108638e87611bdb565b95505b6108708387610949565b9094509150600084900361089757604051630b13482b60e01b815260040160405180910390fd5b6108a18286611bdb565b94506108ad848f611bae565b6108b79089611f52565b97506127108b603a01546127106108ce9190611f52565b6108d8908b611bae565b6108e29190611c1d565b848f6108ee9190611bae565b6108f89190611c1d565b9b505b61090481611bee565b90506107f2565b508360000361091e576127109b50610938565b8361092b61271089611bae565b6109359190611c1d565b9b505b505050505050505050509250929050565b6001600160a01b0382811660009081527f1ab5ce5b595c6e94c5fba2e588bf4eafa8b384a4fb6e188b892768e695c1bff660205260408120549091829160008051602061213d8339815191529116806109c0576040516331283b6b60e11b81526001600160a01b038716600482015260240161021c565b6001600160a01b03811660009081526034830160205260408120546109ec90839063ffffffff16610520565b905060006109f9826106f3565b9050610a058188611bae565b9450505050509250929050565b60008181527f1ab5ce5b595c6e94c5fba2e588bf4eafa8b384a4fb6e188b892768e695c1bfd0602052604090205460008051602061213d8339815191529060ff1615610ab95760405162461bcd60e51b815260206004820152603060248201527f6f626a656374496420697320616c7265616479206265696e672075736564206260448201526f1e48185b9bdd1a195c881bd89a9958dd60821b606482015260840161021c565b600091825260090160205260409020805460ff19166001179055565b80600003610af65760405163806daf1160e01b815260040160405180910390fd5b6001600160601b0319606083901b166000610b1184306111a8565b9050610b1f843330866112e0565b6000610b2b85306111a8565b90506000610b398383611f52565b9050610b468785836113b4565b50505050505050565b60008281527f1ab5ce5b595c6e94c5fba2e588bf4eafa8b384a4fb6e188b892768e695c1bfdc6020908152604080832087845290915281205460008051602061213d83398151915290831115610bf75760405162461bcd60e51b815260206004820152602760248201527f5f696e7465726e616c5472616e736665723a20696e73756666696369656e742060448201526662616c616e636560c81b606482015260840161021c565b600086815260278201602090815260408083208784528252808320546015850183528184208a8552909252909120548491610c3191611f52565b1015610ca55760405162461bcd60e51b815260206004820152603f60248201527f5f696e7465726e616c5472616e736665723a20696e73756666696369656e742060448201527f62616c616e636520617661696c61626c652c2066756e6473206c6f636b656400606482015260840161021c565b610caf868561156b565b6000848152601582016020908152604080832089845290915281208054859290610cda908490611f52565b90915550506000848152601582016020908152604080832088845290915281208054859290610d0a908490611bdb565b90915550610d1d9050858585600061163a565b6000848152601582016020908152604080832089845290915290819020549051879160008051602061215d83398151915291610d5c9188913390611f65565b60405180910390a26000848152601582016020908152604080832088845290915290819020549051869160008051602061215d83398151915291610da39188913390611f65565b60405180910390a250600195945050505050565b60008151600003610dca57506000919050565b506020015190565b60008060008360020b12610de9578260020b610df1565b8260020b6000035b9050620d89e8811115610e17576040516315e4079d60e11b815260040160405180910390fd5b600081600116600003610e2e57600160801b610e40565b6ffffcb933bd6fad37aa2d162d1a5940015b70ffffffffffffffffffffffffffffffffff1690506002821615610e74576ffff97272373d413259a46990580e213a0260801c5b6004821615610e93576ffff2e50f5f656932ef12357cf3c7fdcc0260801c5b6008821615610eb2576fffe5caca7e10e4e61c3624eaa0941cd00260801c5b6010821615610ed1576fffcb9843d60f6159c9db58835c9266440260801c5b6020821615610ef0576fff973b41fa98c081472e6896dfb254c00260801c5b6040821615610f0f576fff2ea16466c96a3843ec78b326b528610260801c5b6080821615610f2e576ffe5dee046a99a2a811c461f1969c30530260801c5b610100821615610f4e576ffcbe86c7900a88aedcffc83b479aa3a40260801c5b610200821615610f6e576ff987a7253ac413176f2b074cf7815e540260801c5b610400821615610f8e576ff3392b0822b70005940c7a398e4b70f30260801c5b610800821615610fae576fe7159475a2c29b7443b29c7fa6e889d90260801c5b611000821615610fce576fd097f3bdfd2022b8845ad8f792aa58250260801c5b612000821615610fee576fa9f746462d870fdf8a65dc1f90e061e50260801c5b61400082161561100e576f70d869a156d2a1b890bb3df62baf32f70260801c5b61800082161561102e576f31be135f97d08fd981231505542fcfa60260801c5b6201000082161561104f576f09aa508b5b7a84e1c677de54f3e99bc90260801c5b6202000082161561106f576e5d6af8dedb81196699c329225ee6040260801c5b6204000082161561108e576d2216e584f5fa1ea926041bedfe980260801c5b620800008216156110ab576b048a170391f7dc42444e8fa20260801c5b60008460020b13156110cc5780600019816110c8576110c8611c07565b0490505b6401000000008106156110e05760016110e3565b60005b60ff16602082901c0192505050919050565b600080806000198587098587029250828110838203039150508060000361112e576000841161112357600080fd5b5082900490506111a1565b80841161113a57600080fd5b6000848688096000868103871696879004966002600389028118808a02820302808a02820302808a02820302808a02820302808a02820302808a02909103029181900381900460010186841190950394909402919094039290920491909117919091029150505b9392505050565b6000823b806111c95760405162461bcd60e51b815260040161021c90611fad565b604080516001600160a01b0385811660248084019190915283518084039091018152604490920183526020820180516001600160e01b03166370a0823160e01b17905291516000928392908816916112219190611ff6565b6000604051808303816000865af19150503d806000811461125e576040519150601f19603f3d011682016040523d82523d6000602084013e611263565b606091505b5091509150811561128c57808060200190518101906112829190612025565b93505050506104df565b60405162461bcd60e51b8152602060048201526024808201527f4c696245524332303a2063616c6c20746f2062616c616e63654f6628292066616044820152631a5b195960e21b606482015260840161021c565b833b806112ff5760405162461bcd60e51b815260040161021c90611fad565b604080516001600160a01b0386811660248301528581166044830152606480830186905283518084039091018152608490920183526020820180516001600160e01b03166323b872dd60e01b17905291516000928392908916916113639190611ff6565b6000604051808303816000865af19150503d80600081146113a0576040519150601f19603f3d011682016040523d82523d6000602084013e6113a5565b606091505b5091509150610b468282611808565b826000036114105760405162461bcd60e51b815260206004820152602360248201527f5f696e7465726e616c4d696e743a206d696e7420746f207a65726f206164647260448201526265737360e81b606482015260840161021c565b600081116114605760405162461bcd60e51b815260206004820152601f60248201527f5f696e7465726e616c4d696e743a206d696e74207a65726f20746f6b656e7300604482015260640161021c565b60008051602061213d83398151915261147c848484600161163a565b60008381526016820160205260408120805484929061149c908490611bdb565b909155505060008381526015820160209081526040808320878452909152812080548492906114cc908490611bdb565b909155505060008381526016820160205260409081902054905184917fb265507be3deb826a9f1ee89ff597f0214103a39d059c667755462fb00447550916115169190339061203e565b60405180910390a26000838152601582016020908152604080832087845290915290819020549051859160008051602061215d8339815191529161155d9187913390612088565b60405180910390a250505050565b60008181527f1ab5ce5b595c6e94c5fba2e588bf4eafa8b384a4fb6e188b892768e695c1bfdf60209081526040808320805482518185028101850190935280835260008051602061213d83398151915294938301828280156115ec57602002820191906000526020600020905b8154815260200190600101908083116115d8575b5050505050905060005b815181101561163357611623858584848151811061161657611616611bc5565b60200260200101516118fe565b61162c81611bee565b90506115f6565b5050505050565b60008381527f1ab5ce5b595c6e94c5fba2e588bf4eafa8b384a4fb6e188b892768e695c1bfdd60209081526040808320547f1ab5ce5b595c6e94c5fba2e588bf4eafa8b384a4fb6e188b892768e695c1bfdf8352818420805483518186028101860190945280845260008051602061213d8339815191529592949293928301828280156116e657602002820191906000526020600020905b8154815260200190600101908083116116d2575b5050505050905060005b81518110156117fe57600082828151811061170d5761170d611bc5565b60209081029190910181015160008a8152601b880183526040808220838352909352918220549092509061174389878484611b04565b60008b8152601c89016020908152604080832087845282528083208f845290915281208054929350839290919061177b908490611bdb565b909155505087156117ea5760008a8152601b88016020908152604080832086845290915290205486906117af908b90611bae565b6117b99190611c1d565b60008b8152601b890160209081526040808320878452909152812080549091906117e4908490611bdb565b90915550505b505050806117f790611bee565b90506116f0565b5050505050505050565b81156118935780511561188f578080602001905181019061182991906120d9565b61188f5760405162461bcd60e51b815260206004820152603160248201527f4c696245524332303a207472616e73666572206f72207472616e7366657246726044820152706f6d2072657475726e65642066616c736560781b606482015260840161021c565b5050565b8051156118a257805181602001fd5b60405162461bcd60e51b815260206004820152602b60248201527f4c696245524332303a207472616e73666572206f72207472616e73666572467260448201526a1bdb481c995d995c9d195960aa1b606482015260840161021c565b600060008051602061213d833981519152905060006119416040518060400160405280600d81526020016c4469766964656e642042616e6b60981b8152506104d4565b600085815260158401602090815260408083208984528252808320548884527f1ab5ce5b595c6e94c5fba2e588bf4eafa8b384a4fb6e188b892768e695c1bfdd835281842054601b880184528285208986528452828520548a8652601c890185528386208a875285528386208c8752909452918420549495509390926119c985858585611b04565b90508015611af8576000898152601c8801602090815260408083208b845282528083208d845290915281208054839290611a04908490611bdb565b90915550506000888152601588016020908152604080832089845290915281208054839290611a34908490611f52565b9091555050600088815260158801602090815260408083208d845290915281208054839290611a64908490611bdb565b90915550506000888152601588016020908152604080832089845290915290819020549051879160008051602061215d83398151915291611aa8918c9133906120f4565b60405180910390a2600088815260158801602090815260408083208d8452909152908190205490518b9160008051602061215d83398151915291611aef918c9133906120f4565b60405180910390a25b50505050505050505050565b600080611b118685611bae565b905060008515611b2a57611b258683611c1d565b611b2d565b60005b905080841015611b4657611b418482611f52565b611b49565b60005b979650505050505050565b6001600160a01b0381168114611b6957600080fd5b50565b60008060408385031215611b7f57600080fd5b8235611b8a81611b54565b946020939093013593505050565b634e487b7160e01b600052601160045260246000fd5b80820281158282048414176104df576104df611b98565b634e487b7160e01b600052603260045260246000fd5b808201808211156104df576104df611b98565b600060018201611c0057611c00611b98565b5060010190565b634e487b7160e01b600052601260045260246000fd5b600082611c2c57611c2c611c07565b500490565b805161ffff81168114611c4357600080fd5b919050565b80518015158114611c4357600080fd5b600080600080600080600060e0888a031215611c7357600080fd5b8751611c7e81611b54565b8097505060208801518060020b8114611c9657600080fd5b9550611ca460408901611c31565b9450611cb260608901611c31565b9350611cc060808901611c31565b925060a088015160ff81168114611cd657600080fd5b9150611ce460c08901611c48565b905092959891949750929550565b634e487b7160e01b600052604160045260246000fd5b6020808252825182820181905260009190848201906040850190845b81811015611d4657835163ffffffff1683529284019291840191600101611d24565b50909695505050505050565b604051601f8201601f1916810167ffffffffffffffff81118282101715611d7b57611d7b611cf2565b604052919050565b600067ffffffffffffffff821115611d9d57611d9d611cf2565b5060051b60200190565b600082601f830112611db857600080fd5b81516020611dcd611dc883611d83565b611d52565b82815260059290921b84018101918181019086841115611dec57600080fd5b8286015b84811015611e10578051611e0381611b54565b8352918301918301611df0565b509695505050505050565b60008060408385031215611e2e57600080fd5b825167ffffffffffffffff80821115611e4657600080fd5b818501915085601f830112611e5a57600080fd5b81516020611e6a611dc883611d83565b82815260059290921b84018101918181019089841115611e8957600080fd5b948201945b83861015611eb75785518060060b8114611ea85760008081fd5b82529482019490820190611e8e565b91880151919650909350505080821115611ed057600080fd5b50611edd85828601611da7565b9150509250929050565b600682810b9082900b03667fffffffffffff198112667fffffffffffff821317156104df576104df611b98565b60008160060b8360060b80611f2b57611f2b611c07565b667fffffffffffff19821460001982141615611f4957611f49611b98565b90059392505050565b818103818111156104df576104df611b98565b9283526020830191909152608060408301819052601190830152702fb4b73a32b93730b62a3930b739b332b960791b60a08301526001600160a01b0316606082015260c00190565b60208082526029908201527f4c696245524332303a20455243323020746f6b656e206164647265737320686160408201526873206e6f20636f646560b81b606082015260800190565b6000825160005b818110156120175760208186018101518583015201611ffd565b506000920191825250919050565b60006020828403121561203757600080fd5b5051919050565b82815260606020820152600061207160608301600d81526c17da5b9d195c9b985b135a5b9d609a1b602082015260400190565b905060018060a01b03831660408301529392505050565b8381528260208201526080604082015260006120c160808301600d81526c17da5b9d195c9b985b135a5b9d609a1b602082015260400190565b905060018060a01b0383166060830152949350505050565b6000602082840312156120eb57600080fd5b6111a182611c48565b92835260208301919091526080604083018190526011908301527017ddda5d1a191c985dd11a5d9a59195b99607a1b60a08301526001600160a01b0316606082015260c0019056fe1ab5ce5b595c6e94c5fba2e588bf4eafa8b384a4fb6e188b892768e695c1bfc72a6b96e51c5252b8e3666030ed958aec041736a7af1773a4e5833bac27b47e3ba2646970667358221220d83d629de83a952f911c91db5e838fc955c06a5b2fc4c15ecb2105581bf6d52564736f6c63430008110033",
    "linkReferences": {}
  },
  "methodIdentifiers": {
    "buyDiscountedNayms(address,uint256)": "c582b992",
    "getAdjustedNaymsValueRatio(address,uint256)": "8b2e40da",
    "getNaymsValueRatio()": "1e7cc3c0",
    "getValueOfAsset(address,uint256)": "a5a55fd8"
  },
  "id": 75
}