{
  "abi": [
    {
      "inputs": [
        {
          "internalType": "bytes32",
          "name": "objectId",
          "type": "bytes32"
        }
      ],
      "name": "EntityDoesNotExist",
      "type": "error"
    },
    {
      "inputs": [
        {
          "internalType": "bytes32",
          "name": "_externalTokenId",
          "type": "bytes32"
        }
      ],
      "name": "getAddressFromExternalTokenId",
      "outputs": [
        {
          "internalType": "address",
          "name": "tokenAddress",
          "type": "address"
        }
      ],
      "stateMutability": "pure",
      "type": "function"
    },
    {
      "inputs": [
        {
          "internalType": "bytes32",
          "name": "_userId",
          "type": "bytes32"
        }
      ],
      "name": "getEntity",
      "outputs": [
        {
          "internalType": "bytes32",
          "name": "entityId",
          "type": "bytes32"
        }
      ],
      "stateMutability": "view",
      "type": "function"
    },
    {
      "inputs": [
        {
          "internalType": "address",
          "name": "addr",
          "type": "address"
        }
      ],
      "name": "getUserIdFromAddress",
      "outputs": [
        {
          "internalType": "bytes32",
          "name": "userId",
          "type": "bytes32"
        }
      ],
      "stateMutability": "pure",
      "type": "function"
    },
    {
      "inputs": [
        {
          "internalType": "bytes32",
          "name": "_userId",
          "type": "bytes32"
        },
        {
          "internalType": "bytes32",
          "name": "_entityId",
          "type": "bytes32"
        }
      ],
      "name": "setEntity",
      "outputs": [],
      "stateMutability": "nonpayable",
      "type": "function"
    }
  ],
  "bytecode": {
    "object": "0x608060405234801561001057600080fd5b50610503806100206000396000f3fe608060405234801561001057600080fd5b506004361061004c5760003560e01c80633f1b887f1461005157806353b66f36146100815780639cb481b2146100a2578063afab5f15146100b5575b600080fd5b61006461005f366004610462565b6100ca565b6040516001600160a01b0390911681526020015b60405180910390f35b61009461008f366004610462565b6100db565b604051908152602001610078565b6100946100b036600461047b565b61010e565b6100c86100c33660046104ab565b610129565b005b60006100d58261024f565b92915050565b60008181527f1ab5ce5b595c6e94c5fba2e588bf4eafa8b384a4fb6e188b892768e695c1bfd160205260408120546100d5565b6000606082901b6bffffffffffffffffffffffff19166100d5565b61018761014c6101376102b4565b60601b6bffffffffffffffffffffffff191690565b610154610310565b6101826040518060400160405280600d81526020016c53797374656d2041646d696e7360981b81525061033e565b610349565b6101cd5760405162461bcd60e51b81526020600482015260126024820152713737ba10309039bcb9ba32b69030b236b4b760711b60448201526064015b60405180910390fd5b60008181527f1ab5ce5b595c6e94c5fba2e588bf4eafa8b384a4fb6e188b892768e695c1bfd6602052604090205460ff1661021e5760405163e1f8801360e01b8152600481018290526024016101c4565b60009182527f1ab5ce5b595c6e94c5fba2e588bf4eafa8b384a4fb6e188b892768e695c1bfd1602052604090912055565b60006bffffffffffffffffffffffff8216156102ad5760405162461bcd60e51b815260206004820152601e60248201527f496e76616c69642065787465726e616c20746f6b656e2061646472657373000060448201526064016101c4565b5060601c90565b600030330361030a57600080368080601f0160208091040260200160405190810160405280939291908181526020018383808284376000920191909152505050503601516001600160a01b0316915061030d9050565b50335b90565b60006103396040518060400160405280600681526020016553797374656d60d01b81525061033e565b905090565b60006100d582610447565b60008381527f1ab5ce5b595c6e94c5fba2e588bf4eafa8b384a4fb6e188b892768e695c1bfe6602090815260408083208584529091528120547f1ab5ce5b595c6e94c5fba2e588bf4eafa8b384a4fb6e188b892768e695c1bfc79080158015906103ce57506000818152601d83016020908152604080832087845290915290205460ff165b156103dc576001925061043e565b6000868152601f830160205260408120816103f5610310565b81526020810191909152604001600020549050801580159061043257506000818152601d84016020908152604080832088845290915290205460ff165b1561043c57600193505b505b50509392505050565b6000815160000361045a57506000919050565b506020015190565b60006020828403121561047457600080fd5b5035919050565b60006020828403121561048d57600080fd5b81356001600160a01b03811681146104a457600080fd5b9392505050565b600080604083850312156104be57600080fd5b5050803592602090910135915056fea26469706673582212202a677d8e95fa88254b87b9c0223c5a163309dec7daa2482e588930b021dc41fd64736f6c63430008110033",
    "linkReferences": {}
  },
  "methodIdentifiers": {
    "getAddressFromExternalTokenId(bytes32)": "3f1b887f",
    "getEntity(bytes32)": "53b66f36",
    "getUserIdFromAddress(address)": "9cb481b2",
    "setEntity(bytes32,bytes32)": "afab5f15"
  },
  "id": 53
}