{
  "abi": [
    {
      "inputs": [
        {
          "internalType": "bytes32",
          "name": "entityId",
          "type": "bytes32"
        }
      ],
      "name": "CreatingEntityThatAlreadyExists",
      "type": "error"
    },
    {
      "inputs": [],
      "name": "OwnerCannotBeSystemAdmin",
      "type": "error"
    },
    {
      "inputs": [
        {
          "internalType": "uint256",
          "name": "utilizedCapacity",
          "type": "uint256"
        },
        {
          "internalType": "uint256",
          "name": "maxCapacity",
          "type": "uint256"
        }
      ],
      "name": "UtilizedCapacityGreaterThanMaxCapacity",
      "type": "error"
    },
    {
      "inputs": [
        {
          "internalType": "bytes32",
          "name": "_entityId",
          "type": "bytes32"
        },
        {
          "internalType": "bytes32",
          "name": "_entityAdmin",
          "type": "bytes32"
        },
        {
          "components": [
            {
              "internalType": "bytes32",
              "name": "assetId",
              "type": "bytes32"
            },
            {
              "internalType": "uint256",
              "name": "collateralRatio",
              "type": "uint256"
            },
            {
              "internalType": "uint256",
              "name": "maxCapacity",
              "type": "uint256"
            },
            {
              "internalType": "uint256",
              "name": "utilizedCapacity",
              "type": "uint256"
            },
            {
              "internalType": "bool",
              "name": "simplePolicyEnabled",
              "type": "bool"
            }
          ],
          "internalType": "struct Entity",
          "name": "_entityData",
          "type": "tuple"
        },
        {
          "internalType": "bytes32",
          "name": "_dataHash",
          "type": "bytes32"
        }
      ],
      "name": "createEntity",
      "outputs": [],
      "stateMutability": "nonpayable",
      "type": "function"
    },
    {
      "inputs": [
        {
          "internalType": "bytes32",
          "name": "_id",
          "type": "bytes32"
        }
      ],
      "name": "getObjectMeta",
      "outputs": [
        {
          "internalType": "bytes32",
          "name": "parent",
          "type": "bytes32"
        },
        {
          "internalType": "bytes32",
          "name": "dataHash",
          "type": "bytes32"
        },
        {
          "internalType": "string",
          "name": "tokenSymbol",
          "type": "string"
        },
        {
          "internalType": "string",
          "name": "tokenName",
          "type": "string"
        },
        {
          "internalType": "address",
          "name": "tokenWrapper",
          "type": "address"
        }
      ],
      "stateMutability": "view",
      "type": "function"
    },
    {
      "inputs": [
        {
          "internalType": "bytes32",
          "name": "_id",
          "type": "bytes32"
        }
      ],
      "name": "isObject",
      "outputs": [
        {
          "internalType": "bool",
          "name": "",
          "type": "bool"
        }
      ],
      "stateMutability": "view",
      "type": "function"
    },
    {
      "inputs": [
        {
          "internalType": "string",
          "name": "_strIn",
          "type": "string"
        }
      ],
      "name": "stringToBytes32",
      "outputs": [
        {
          "internalType": "bytes32",
          "name": "result",
          "type": "bytes32"
        }
      ],
      "stateMutability": "pure",
      "type": "function"
    },
    {
      "inputs": [
        {
          "internalType": "bytes32",
          "name": "_objectId",
          "type": "bytes32"
        }
      ],
      "name": "wrapToken",
      "outputs": [],
      "stateMutability": "nonpayable",
      "type": "function"
    }
  ],
  "bytecode": {
    "object": "0x608060405234801561001057600080fd5b50612a6a806100206000396000f3fe60806040523480156200001157600080fd5b50600436106200005e5760003560e01c8063524d8dd5146200006357806353733f97146200008f5780637dfcdf2a14620000a8578063cf0ccf9e14620000bf578063cfb5192814620000e9575b600080fd5b6200007a62000074366004620011f2565b6200010f565b60405190151581526020015b60405180910390f35b620000a6620000a03660046200120c565b62000147565b005b620000a6620000b9366004620011f2565b6200020d565b620000d6620000d0366004620011f2565b6200032e565b604051620000869594939291906200129f565b62000100620000fa36600462001305565b62000353565b60405190815260200162000086565b60008181527f1ab5ce5b595c6e94c5fba2e588bf4eafa8b384a4fb6e188b892768e695c1bfd0602052604081205460ff165b92915050565b620001b06200016e6200015962000360565b60601b6bffffffffffffffffffffffff191690565b62000178620003be565b620001aa6040518060400160405280600f81526020016e53797374656d204d616e616765727360881b815250620003ee565b620003fb565b620001f95760405162461bcd60e51b81526020600482015260146024820152733737ba10309039bcb9ba32b69036b0b730b3b2b960611b60448201526064015b60405180910390fd5b6200020784848484620004ef565b50505050565b7f1ab5ce5b595c6e94c5fba2e588bf4eafa8b384a4fb6e188b892768e695c1bfca5460011901620002815760405162461bcd60e51b815260206004820152601f60248201527f5265656e7472616e637947756172643a207265656e7472616e742063616c6c006044820152606401620001f0565b60027f1ab5ce5b595c6e94c5fba2e588bf4eafa8b384a4fb6e188b892768e695c1bfca55620002b76200016e6200015962000360565b620002fc5760405162461bcd60e51b81526020600482015260146024820152733737ba10309039bcb9ba32b69036b0b730b3b2b960611b6044820152606401620001f0565b6200030781620006a5565b5060017f1ab5ce5b595c6e94c5fba2e588bf4eafa8b384a4fb6e188b892768e695c1bfca55565b600080606080600062000341866200083a565b939a9299509097509550909350915050565b60006200014182620003ee565b6000303303620003b857600080368080601f0160208091040260200160405190810160405280939291908181526020018383808284376000920191909152505050503601516001600160a01b03169150620003bb9050565b50335b90565b6000620003e96040518060400160405280600681526020016553797374656d60d01b815250620003ee565b905090565b6000620001418262000a34565b60008381527f1ab5ce5b595c6e94c5fba2e588bf4eafa8b384a4fb6e188b892768e695c1bfe66020908152604080832085845290915281205460008051602062002a158339815191529080158015906200047057506000818152601d83016020908152604080832087845290915290205460ff165b15620004805760019250620004e6565b6000868152601f830160205260408120816200049b620003be565b815260208101919091526040016000205490508015801590620004d957506000818152601d84016020908152604080832088845290915290205460ff165b15620004e457600193505b505b50509392505050565b60008481527f1ab5ce5b595c6e94c5fba2e588bf4eafa8b384a4fb6e188b892768e695c1bfd6602052604090205460008051602062002a158339815191529060ff16156200055457604051634fd254f560e11b815260048101869052602401620001f0565b6200055f8362000a50565b6200056b858362000d08565b60008481527f1ab5ce5b595c6e94c5fba2e588bf4eafa8b384a4fb6e188b892768e695c1bfd1602052604090208590556000858152600f82016020908152604091829020805460ff191660011790558151808301909252600c82526b22b73a34ba3c9020b236b4b760a11b90820152620005f49085908790620005ee90620003ee565b62000ddd565b606083013515620006485760405162461bcd60e51b815260206004820152601d60248201527f7574696c697a65642063617061636974792073746172747320617420300000006044820152606401620001f0565b600085815260118201602052604090208390620006668282620013cf565b505060405184815285907f14944295d1f05c993504e6e25b1bc3eaadd9ace8fcd3fa0b015880dc0cceebcb906020015b60405180910390a25050505050565b60008051602062002a15833981519152620006c082620010c4565b620007045760405162461bcd60e51b81526020600482015260136024820152726d75737420626520746f6b656e697a61626c6560681b6044820152606401620001f0565b60008281527f1ab5ce5b595c6e94c5fba2e588bf4eafa8b384a4fb6e188b892768e695c1bfd560205260409020546001600160a01b0316156200078a5760405162461bcd60e51b815260206004820152601b60248201527f6d757374206e6f74206265207772617070656420616c726561647900000000006044820152606401620001f0565b6000826040516200079b90620011e4565b908152602001604051809103906000f080158015620007be573d6000803e3d6000fd5b506000848152600e84016020908152604080832080546001600160a01b0319166001600160a01b038616908117909155808452602b870183529281902087905551918252919250829185917fa31821b12665c4ed143d0185d4d5bceab4b16f15fad65d427a9f946457876af4910160405180910390a250505050565b60008181527f1ab5ce5b595c6e94c5fba2e588bf4eafa8b384a4fb6e188b892768e695c1bfd160209081526040808320547f1ab5ce5b595c6e94c5fba2e588bf4eafa8b384a4fb6e188b892768e695c1bfd28352818420547f1ab5ce5b595c6e94c5fba2e588bf4eafa8b384a4fb6e188b892768e695c1bfd390935290832080549193606092839260008051602062002a1583398151915291620008de906200141b565b80601f01602080910402602001604051908101604052809291908181526020018280546200090c906200141b565b80156200095d5780601f1062000931576101008083540402835291602001916200095d565b820191906000526020600020905b8154815290600101906020018083116200093f57829003601f168201915b50505060008a8152600d85016020526040902080549397509262000984925090506200141b565b80601f0160208091040260200160405190810160405280929190818152602001828054620009b2906200141b565b801562000a035780601f10620009d75761010080835404028352916020019162000a03565b820191906000526020600020905b815481529060010190602001808311620009e557829003601f168201915b5050506000998a525050600e90910160205260409096205494969395929492936001600160a01b0390931692915050565b6000815160000362000a4857506000919050565b506020015190565b80351562000bff5762000a6481356200111a565b62000ab25760405162461bcd60e51b815260206004820152601f60248201527f65787465726e616c20746f6b656e206973206e6f7420737570706f72746564006044820152606401620001f0565b806020013560011115801562000ace5750612710816020013511155b62000b2a5760405162461bcd60e51b815260206004820152602560248201527f636f6c6c61746572616c20726174696f2073686f756c64206265203120746f20604482015264031303030360dc1b6064820152608401620001f0565b62000b3c60a082016080830162001457565b158062000b4d575060008160400135115b62000bc15760405162461bcd60e51b815260206004820152603960248201527f6d61782063617061636974792073686f756c642062652067726561746572207460448201527f68616e203020666f7220706f6c696379206372656174696f6e000000000000006064820152608401620001f0565b80604001358160600135111562000bfc5760408051630102498560e11b815260608301356004820152908201356024820152604401620001f0565b50565b60208101351562000c535760405162461bcd60e51b815260206004820152601e60248201527f6f6e6c792063656c6c2068617320636f6c6c61746572616c20726174696f00006044820152606401620001f0565b62000c6560a082016080830162001457565b1562000cb45760405162461bcd60e51b815260206004820152601c60248201527f6f6e6c792063656c6c2063616e20697373756520706f6c6963696573000000006044820152606401620001f0565b60408101351562000bfc5760405162461bcd60e51b815260206004820152601c60248201527f6f6e6c792063656c6c732068617665206d6178206361706163697479000000006044820152606401620001f0565b60008281527f1ab5ce5b595c6e94c5fba2e588bf4eafa8b384a4fb6e188b892768e695c1bfd0602052604090205460008051602062002a158339815191529060ff161562000db25760405162461bcd60e51b815260206004820152603060248201527f6f626a656374496420697320616c7265616479206265696e672075736564206260448201526f1e48185b9bdd1a195c881bd89a9958dd60821b6064820152608401620001f0565b60009283526009810160209081526040808520805460ff19166001179055600b909201905290912055565b60008051602062002a15833981519152600084900362000e345760405162461bcd60e51b81526020600482015260116024820152701a5b9d985b1a59081bd89a9958dd081251607a1b6044820152606401620001f0565b8260000362000e7b5760405162461bcd60e51b81526020600482015260126024820152711a5b9d985b1a590818dbdb9d195e1d08125160721b6044820152606401620001f0565b8160000362000ebf5760405162461bcd60e51b815260206004820152600f60248201526e1a5b9d985b1a59081c9bdb19481251608a1b6044820152606401620001f0565b6000848152601f820160209081526040808320868452825291829020548251808401909352600c83526b29bcb9ba32b69020b236b4b760a11b918301919091529062000f0b90620003ee565b8114801562000f1a5750828114155b1562000f8257600182602a01541162000f825760405162461bcd60e51b815260206004820152602360248201527f6d7573742068617665206174206c65617374206f6e652073797374656d20616460448201526236b4b760e91b6064820152608401620001f0565b62000f8c620003be565b8414801562000fc8575062000fc56040518060400160405280600c81526020016b29bcb9ba32b69020b236b4b760a11b815250620003ee565b83145b15620010485762000fd9856200117d565b6001600160a01b0316620010147fc8fcad8db84d3cc18b4c41d551ea0ee66dd599cde068d998e57d5e09332c1320546001600160a01b031690565b6001600160a01b0316036200103c57604051633fb6eaed60e11b815260040160405180910390fd5b602a8201805460010190555b6000858152601f83016020908152604080832087845282529182902085905581518681529081018590526060918101829052600b918101919091526a5f61737369676e526f6c6560a81b608082015285907fe084640a30256726ae800352d16104f622b1744c561cad2d04e14cec8b490ee89060a00162000696565b60008181527f1ab5ce5b595c6e94c5fba2e588bf4eafa8b384a4fb6e188b892768e695c1bfd360205260408120805460008051602062002a15833981519152919062001110906200141b565b1515949350505050565b600060008051602062002a158339815191527f1ab5ce5b595c6e94c5fba2e588bf4eafa8b384a4fb6e188b892768e695c1bfda8262001159856200117d565b6001600160a01b0316815260208101919091526040016000205460ff169392505050565b60006bffffffffffffffffffffffff821615620011dd5760405162461bcd60e51b815260206004820152601e60248201527f496e76616c69642065787465726e616c20746f6b656e206164647265737300006044820152606401620001f0565b5060601c90565b611596806200147f83390190565b6000602082840312156200120557600080fd5b5035919050565b6000806000808486036101008112156200122557600080fd5b853594506020860135935060a0603f19820112156200124357600080fd5b50929591945050604083019260e001359150565b6000815180845260005b818110156200127f5760208185018101518683018201520162001261565b506000602082860101526020601f19601f83011685010191505092915050565b85815284602082015260a060408201526000620012c060a083018662001257565b8281036060840152620012d4818662001257565b91505060018060a01b03831660808301529695505050505050565b634e487b7160e01b600052604160045260246000fd5b6000602082840312156200131857600080fd5b813567ffffffffffffffff808211156200133157600080fd5b818401915084601f8301126200134657600080fd5b8135818111156200135b576200135b620012ef565b604051601f8201601f19908116603f01168101908382118183101715620013865762001386620012ef565b81604052828152876020848701011115620013a057600080fd5b826020860160208301376000928101602001929092525095945050505050565b801515811462000bfc57600080fd5b813581556020820135600182015560408201356002820155606082013560038201556004810160808301356200140581620013c0565b815490151560ff1660ff19919091161790555050565b600181811c908216806200143057607f821691505b6020821081036200145157634e487b7160e01b600052602260045260246000fd5b50919050565b6000602082840312156200146a57600080fd5b81356200147781620013c0565b939250505056fe6101006040523480156200001257600080fd5b5060405162001596380380620015968339810160408190526200003591620002a2565b3360a081905260405163531657c160e11b81526004810183905263a62caf82906024016020604051808303816000875af115801562000078573d6000803e3d6000fd5b505050506040513d601f19601f820116820180604052508101906200009e9190620002bc565b620000f05760405162461bcd60e51b815260206004820152601360248201527f6d75737420626520746f6b656e697a61626c650000000000000000000000000060448201526064015b60405180910390fd5b60a0516040516310b4955d60e01b8152600481018390526001600160a01b03909116906310b4955d90602401602060405180830381865afa1580156200013a573d6000803e3d6000fd5b505050506040513d601f19601f82011682018060405250810190620001609190620002bc565b15620001af5760405162461bcd60e51b815260206004820152601b60248201527f6d757374206e6f74206265207772617070656420616c726561647900000000006044820152606401620000e7565b60808190524660c052620001c2620001cc565b60e05250620002e7565b60007f8b73c3c69bb8fe3d512ecc4cf759cc79239f7b179b0ffacaa9a75d522b39400f620002076080516200027160201b62000dd71760201c565b80516020918201206040805192830193909352918101919091527fc89efdaa54c0f20c7adf612882df0950f5a951637e0307cdcb4c672f298b8bc660608201524660808201523060a082015260c00160405160208183030381529060405280519060200120905090565b6040805160208082528183019092526060916000919060208201818036833750505060208101939093525090919050565b600060208284031215620002b557600080fd5b5051919050565b600060208284031215620002cf57600080fd5b81518015158114620002e057600080fd5b9392505050565b60805160a05160c05160e0516112286200036e60003960006106bd0152600061068d0152600081816102a601528181610384015281816105ea015281816107910152818161089b0152610afd0152600081816102720152818161035b015281816105bd015281816107f00152818161086701528181610ad00152610e3001526112286000f3fe608060405234801561001057600080fd5b50600436106100f55760003560e01c806355b6ed5c11610097578063a457c2d711610066578063a457c2d7146101f1578063a9059cbb14610204578063d505accf14610217578063dd62ed3e1461022c57600080fd5b806355b6ed5c1461018e57806370a08231146101b65780637ecebe00146101c957806395d89b41146101e957600080fd5b806323b872dd116100d357806323b872dd14610151578063313ce567146101645780633644e51514610173578063395093511461017b57600080fd5b806306fdde03146100fa578063095ea7b31461011857806318160ddd1461013b575b600080fd5b610102610263565b60405161010f9190610ee2565b60405180910390f35b61012b610126366004610f2d565b61031f565b604051901515815260200161010f565b61014361034c565b60405190815260200161010f565b61012b61015f366004610f59565b6103fc565b6040516012815260200161010f565b610143610689565b61012b610189366004610f2d565b6106df565b61014361019c366004610f9a565b600060208181529281526040808220909352908152205481565b6101436101c4366004610fd3565b61078d565b6101436101d7366004610fd3565b60016020526000908152604090205481565b610102610858565b61012b6101ff366004610f2d565b610915565b61012b610212366004610f2d565b6109c7565b61022a610225366004610ff7565b610b9a565b005b61014361023a366004610f9a565b6001600160a01b0391821660009081526020818152604080832093909416825291909152205490565b60405163678667cf60e11b81527f000000000000000000000000000000000000000000000000000000000000000060048201526060906000906001600160a01b037f0000000000000000000000000000000000000000000000000000000000000000169063cf0ccf9e90602401600060405180830381865afa1580156102ed573d6000803e3d6000fd5b505050506040513d6000823e601f3d908101601f19168201604052610315919081019061110c565b5095945050505050565b336000908152602081815260408083206001600160a01b0386168452909152902081905560015b92915050565b604051637104788560e11b81527f000000000000000000000000000000000000000000000000000000000000000060048201526000907f00000000000000000000000000000000000000000000000000000000000000006001600160a01b03169063e208f10a90602401602060405180830381865afa1580156103d3573d6000803e3d6000fd5b505050506040513d601f19601f820116820180604052508101906103f79190611198565b905090565b6000805160206111d383398151915254600090600119016104645760405162461bcd60e51b815260206004820152601f60248201527f5265656e7472616e637947756172643a207265656e7472616e742063616c6c0060448201526064015b60405180910390fd5b60026000805160206111d383398151915255600082900361048457600080fd5b6001600160a01b038416600090815260208181526040808320338452909152902054828110156104ed5760405162461bcd60e51b81526020600482015260146024820152736e6f7420656e6f75676820616c6c6f77616e636560601b604482015260640161045b565b60001981146105235761050083826111b1565b6001600160a01b0386166000908152602081815260408083203384529091529020555b60006105398660601b6001600160601b03191690565b905060006105518660601b6001600160601b03191690565b9050856001600160a01b0316876001600160a01b03167fddf252ad1be2c89b69c2b068fc378daa952ba7f163c4a11628f55a4df523b3ef8760405161059891815260200190565b60405180910390a3604051631ed7db6560e01b815260048101839052602481018290527f00000000000000000000000000000000000000000000000000000000000000006044820152606481018690527f00000000000000000000000000000000000000000000000000000000000000006001600160a01b031690631ed7db6590608401600060405180830381600087803b15801561063657600080fd5b505af115801561064a573d6000803e3d6000fd5b5050505060019350505050600161067e7f1ab5ce5b595c6e94c5fba2e588bf4eafa8b384a4fb6e188b892768e695c1bfc790565b600301559392505050565b60007f000000000000000000000000000000000000000000000000000000000000000046146106ba576103f7610e08565b507f000000000000000000000000000000000000000000000000000000000000000090565b336000908152602081815260408083206001600160a01b0386168452909152812054829061070f906000196111b1565b101561075d5760405162461bcd60e51b815260206004820152601960248201527f45524332303a20616c6c6f77616e6365206f766572666c6f7700000000000000604482015260640161045b565b50336000908152602081815260408083206001600160a01b03861684529091529020805482019055600192915050565b60007f00000000000000000000000000000000000000000000000000000000000000006001600160a01b0316635c9233016107d28460601b6001600160601b03191690565b6040516001600160e01b031960e084901b16815260048101919091527f00000000000000000000000000000000000000000000000000000000000000006024820152604401602060405180830381865afa158015610834573d6000803e3d6000fd5b505050506040513d601f19601f820116820180604052508101906103469190611198565b60405163678667cf60e11b81527f000000000000000000000000000000000000000000000000000000000000000060048201526060906000906001600160a01b037f0000000000000000000000000000000000000000000000000000000000000000169063cf0ccf9e90602401600060405180830381865afa1580156108e2573d6000803e3d6000fd5b505050506040513d6000823e601f3d908101601f1916820160405261090a919081019061110c565b509095945050505050565b336000908152602081815260408083206001600160a01b0386168452909152812054828110156109955760405162461bcd60e51b815260206004820152602560248201527f45524332303a2064656372656173656420616c6c6f77616e63652062656c6f77604482015264207a65726f60d81b606482015260840161045b565b5050336000908152602081815260408083206001600160a01b0386168452909152902080548290039055600192915050565b6000805160206111d38339815191525460009060011901610a2a5760405162461bcd60e51b815260206004820152601f60248201527f5265656e7472616e637947756172643a207265656e7472616e742063616c6c00604482015260640161045b565b60026000805160206111d38339815191525560003360601b6001600160601b03191690506000610a648560601b6001600160601b03191690565b9050846001600160a01b0316336001600160a01b03167fddf252ad1be2c89b69c2b068fc378daa952ba7f163c4a11628f55a4df523b3ef86604051610aab91815260200190565b60405180910390a3604051631ed7db6560e01b815260048101839052602481018290527f00000000000000000000000000000000000000000000000000000000000000006044820152606481018590527f00000000000000000000000000000000000000000000000000000000000000006001600160a01b031690631ed7db6590608401600060405180830381600087803b158015610b4957600080fd5b505af1158015610b5d573d6000803e3d6000fd5b505050506001925050506001610b907f1ab5ce5b595c6e94c5fba2e588bf4eafa8b384a4fb6e188b892768e695c1bfc790565b6003015592915050565b42841015610bea5760405162461bcd60e51b815260206004820152601760248201527f5045524d49545f444541444c494e455f45585049524544000000000000000000604482015260640161045b565b60006001610bf6610689565b6001600160a01b038a81166000818152600160208181526040928390208054928301905582517f6e71edae12b1b97f4d1f60370fef10105fa2faae0126114a169c64845d6126c98183015280840194909452938d166060840152608083018c905260a083015260c08083018b90528151808403909101815260e08301909152805192019190912061190160f01b6101008301526101028201929092526101228101919091526101420160408051601f198184030181528282528051602091820120600084529083018083525260ff871690820152606081018590526080810184905260a0016020604051602081039080840390855afa158015610cfd573d6000803e3d6000fd5b5050604051601f1901519150506001600160a01b03811615801590610d335750876001600160a01b0316816001600160a01b0316145b610d705760405162461bcd60e51b815260206004820152600e60248201526d24a72b20a624a22fa9a4a3a722a960911b604482015260640161045b565b6001600160a01b039081166000908152602081815260408083208a8516808552908352928190208990555188815291928a16917f8c5be1e5ebec7d5bd14f71427d1e84f3dd0314c0f7b2291e5b200ac8c7c3b925910160405180910390a350505050505050565b6040805160208082528183019092526060916000919060208201818036833750505060208101939093525090919050565b60007f8b73c3c69bb8fe3d512ecc4cf759cc79239f7b179b0ffacaa9a75d522b39400f610e547f0000000000000000000000000000000000000000000000000000000000000000610dd7565b80516020918201206040805192830193909352918101919091527fc89efdaa54c0f20c7adf612882df0950f5a951637e0307cdcb4c672f298b8bc660608201524660808201523060a082015260c00160405160208183030381529060405280519060200120905090565b60005b83811015610ed9578181015183820152602001610ec1565b50506000910152565b6020815260008251806020840152610f01816040850160208701610ebe565b601f01601f19169190910160400192915050565b6001600160a01b0381168114610f2a57600080fd5b50565b60008060408385031215610f4057600080fd5b8235610f4b81610f15565b946020939093013593505050565b600080600060608486031215610f6e57600080fd5b8335610f7981610f15565b92506020840135610f8981610f15565b929592945050506040919091013590565b60008060408385031215610fad57600080fd5b8235610fb881610f15565b91506020830135610fc881610f15565b809150509250929050565b600060208284031215610fe557600080fd5b8135610ff081610f15565b9392505050565b600080600080600080600060e0888a03121561101257600080fd5b873561101d81610f15565b9650602088013561102d81610f15565b95506040880135945060608801359350608088013560ff8116811461105157600080fd5b9699959850939692959460a0840135945060c09093013592915050565b634e487b7160e01b600052604160045260246000fd5b600082601f83011261109557600080fd5b815167ffffffffffffffff808211156110b0576110b061106e565b604051601f8301601f19908116603f011681019082821181831017156110d8576110d861106e565b816040528381528660208588010111156110f157600080fd5b611102846020830160208901610ebe565b9695505050505050565b600080600080600060a0868803121561112457600080fd5b8551945060208601519350604086015167ffffffffffffffff8082111561114a57600080fd5b61115689838a01611084565b9450606088015191508082111561116c57600080fd5b5061117988828901611084565b925050608086015161118a81610f15565b809150509295509295909350565b6000602082840312156111aa57600080fd5b5051919050565b8181038181111561034657634e487b7160e01b600052601160045260246000fdfe1ab5ce5b595c6e94c5fba2e588bf4eafa8b384a4fb6e188b892768e695c1bfcaa2646970667358221220bfd09363d8cc3f2390298f784784015006d0e7273230cb7f39b190ebcdd08a5d64736f6c634300081100331ab5ce5b595c6e94c5fba2e588bf4eafa8b384a4fb6e188b892768e695c1bfc7a264697066735822122009cbcc31a789e72fd75d39ad543d5af99b4cfe74126eb5979514c403bdb5dec464736f6c63430008110033",
    "linkReferences": {}
  },
  "methodIdentifiers": {
    "createEntity(bytes32,bytes32,(bytes32,uint256,uint256,uint256,bool),bytes32)": "53733f97",
    "getObjectMeta(bytes32)": "cf0ccf9e",
    "isObject(bytes32)": "524d8dd5",
    "stringToBytes32(string)": "cfb51928",
    "wrapToken(bytes32)": "7dfcdf2a"
  },
  "id": 50
}