{
  "abi": [
    {
      "inputs": [],
      "name": "DiamondAlreadyInitialized",
      "type": "error"
    },
    {
      "anonymous": false,
      "inputs": [
        {
          "indexed": false,
          "internalType": "address",
          "name": "sender",
          "type": "address"
        }
      ],
      "name": "InitializeDiamond",
      "type": "event"
    },
    {
      "inputs": [],
      "name": "initialize",
      "outputs": [],
      "stateMutability": "nonpayable",
      "type": "function"
    }
  ],
  "bytecode": {
    "object": "0x608060405234801561001057600080fd5b5061061f806100206000396000f3fe608060405234801561001057600080fd5b506004361061002b5760003560e01c80638129fc1c14610030575b600080fd5b61003861003a565b005b7f1ab5ce5b595c6e94c5fba2e588bf4eafa8b384a4fb6e188b892768e695c1bfc7805460ff161561007e57604051639289b96160e01b815260040160405180910390fd5b6040805180820190915260058152644e61796d7360d81b602082015260048201906100a990826104b3565b506a52b7d2dcc80cd2e4000000600682018190553360009081526008830160205260409020554660018201556100dd610336565b6002820155600080805260098201602052604090208054600160ff199091161790556026810180546fffffffffffff0000ffffffffffffffff19166e4b004b0096000009c409c41388001e1790553060601b6bffffffffffffffffffffffff191660258201556024810180546001600160a01b0319163017905560178101805460ff19166001179055600061018f7fc8fcad8db84d3cc18b4c41d551ea0ee66dd599cde068d998e57d5e09332c131c90565b6301ffc9a760e01b600090815260038201602090815260408083208054600160ff1991821681179092556307e4c70760e21b855282852080548216831790556348e2b09360e01b855282852080548216831790556307f5828d60e41b8552828520805482168317905563412b27ed60e01b85528285208054821683179055634a0a78a360e11b85528285208054821683179055637e16d15360e11b8552828520805482168317905563746f4fcf60e11b855282852080548216831790556354aa025760e11b85528285208054821683179055631a2da3fb60e21b8552828520805482168317905563bc4f963560e01b85528285208054821683179055633e3dddef60e11b85528285208054821683179055632a8f982560e11b8552828520805482168317905563110db82360e31b85528285208054821683179055632fd91cf760e11b8552828520805482168317905563ca53929b60e01b85529382902080548516821790558654909316909217855590513381529192507f6068e83cf4b00aceee0ba1e23c32e78f8c8458f6369f3592a2e6616a4b438e05910160405180910390a15050565b6040516000907f1ab5ce5b595c6e94c5fba2e588bf4eafa8b384a4fb6e188b892768e695c1bfc7907f8b73c3c69bb8fe3d512ecc4cf759cc79239f7b179b0ffacaa9a75d522b39400f906103ab907f1ab5ce5b595c6e94c5fba2e588bf4eafa8b384a4fb6e188b892768e695c1bfcb90610573565b6040805191829003822060208301939093528101919091527fc89efdaa54c0f20c7adf612882df0950f5a951637e0307cdcb4c672f298b8bc660608201524660808201523060a082015260c0016040516020818303038152906040528051906020012091505090565b634e487b7160e01b600052604160045260246000fd5b600181811c9082168061043e57607f821691505b60208210810361045e57634e487b7160e01b600052602260045260246000fd5b50919050565b601f8211156104ae57600081815260208120601f850160051c8101602086101561048b5750805b601f850160051c820191505b818110156104aa57828155600101610497565b5050505b505050565b815167ffffffffffffffff8111156104cd576104cd610414565b6104e1816104db845461042a565b84610464565b602080601f83116001811461051657600084156104fe5750858301515b600019600386901b1c1916600185901b1785556104aa565b600085815260208120601f198616915b8281101561054557888601518255948401946001909101908401610526565b50858210156105635787850151600019600388901b60f8161c191681555b5050505050600190811b01905550565b60008083546105818161042a565b6001828116801561059957600181146105ae576105dd565b60ff19841687528215158302870194506105dd565b8760005260208060002060005b858110156105d45781548a8201529084019082016105bb565b50505082870194505b5092969550505050505056fea26469706673582212201e7890938d6107da2ca993c80f5fc1c7e9493126370de902c316c9508f8271db64736f6c63430008110033",
    "linkReferences": {}
  },
  "methodIdentifiers": {
    "initialize()": "8129fc1c"
  },
  "id": 40
}