{
  "abi": [
    {
      "inputs": [
        {
          "internalType": "bytes32",
          "name": "objectId",
          "type": "bytes32"
        }
      ],
      "name": "EntityDoesNotExist",
      "type": "error"
    },
    {
      "inputs": [
        {
          "internalType": "bytes32",
          "name": "policyId",
          "type": "bytes32"
        }
      ],
      "name": "PolicyDoesNotExist",
      "type": "error"
    },
    {
      "inputs": [
        {
          "internalType": "bytes32",
          "name": "_policyId",
          "type": "bytes32"
        }
      ],
      "name": "cancelSimplePolicy",
      "outputs": [],
      "stateMutability": "nonpayable",
      "type": "function"
    },
    {
      "inputs": [
        {
          "internalType": "bytes32",
          "name": "_policyId",
          "type": "bytes32"
        }
      ],
      "name": "checkAndUpdateSimplePolicyState",
      "outputs": [],
      "stateMutability": "nonpayable",
      "type": "function"
    },
    {
      "inputs": [],
      "name": "getPremiumCommissionBasisPoints",
      "outputs": [
        {
          "components": [
            {
              "internalType": "uint16",
              "name": "premiumCommissionNaymsLtdBP",
              "type": "uint16"
            },
            {
              "internalType": "uint16",
              "name": "premiumCommissionNDFBP",
              "type": "uint16"
            },
            {
              "internalType": "uint16",
              "name": "premiumCommissionSTMBP",
              "type": "uint16"
            }
          ],
          "internalType": "struct PolicyCommissionsBasisPoints",
          "name": "bp",
          "type": "tuple"
        }
      ],
      "stateMutability": "view",
      "type": "function"
    },
    {
      "inputs": [
        {
          "internalType": "uint256",
          "name": "_startDate",
          "type": "uint256"
        },
        {
          "internalType": "uint256",
          "name": "_maturationDate",
          "type": "uint256"
        },
        {
          "internalType": "bytes32",
          "name": "_asset",
          "type": "bytes32"
        },
        {
          "internalType": "uint256",
          "name": "_limit",
          "type": "uint256"
        },
        {
          "internalType": "bytes32",
          "name": "_offchainDataHash",
          "type": "bytes32"
        }
      ],
      "name": "getSigningHash",
      "outputs": [
        {
          "internalType": "bytes32",
          "name": "signingHash_",
          "type": "bytes32"
        }
      ],
      "stateMutability": "view",
      "type": "function"
    },
    {
      "inputs": [
        {
          "internalType": "bytes32",
          "name": "_policyId",
          "type": "bytes32"
        }
      ],
      "name": "getSimplePolicyInfo",
      "outputs": [
        {
          "components": [
            {
              "internalType": "uint256",
              "name": "startDate",
              "type": "uint256"
            },
            {
              "internalType": "uint256",
              "name": "maturationDate",
              "type": "uint256"
            },
            {
              "internalType": "bytes32",
              "name": "asset",
              "type": "bytes32"
            },
            {
              "internalType": "uint256",
              "name": "limit",
              "type": "uint256"
            },
            {
              "internalType": "bool",
              "name": "fundsLocked",
              "type": "bool"
            },
            {
              "internalType": "bool",
              "name": "cancelled",
              "type": "bool"
            },
            {
              "internalType": "uint256",
              "name": "claimsPaid",
              "type": "uint256"
            },
            {
              "internalType": "uint256",
              "name": "premiumsPaid",
              "type": "uint256"
            }
          ],
          "internalType": "struct SimplePolicyInfo",
          "name": "",
          "type": "tuple"
        }
      ],
      "stateMutability": "view",
      "type": "function"
    },
    {
      "inputs": [
        {
          "internalType": "bytes32",
          "name": "_claimId",
          "type": "bytes32"
        },
        {
          "internalType": "bytes32",
          "name": "_policyId",
          "type": "bytes32"
        },
        {
          "internalType": "bytes32",
          "name": "_insuredId",
          "type": "bytes32"
        },
        {
          "internalType": "uint256",
          "name": "_amount",
          "type": "uint256"
        }
      ],
      "name": "paySimpleClaim",
      "outputs": [],
      "stateMutability": "nonpayable",
      "type": "function"
    },
    {
      "inputs": [
        {
          "internalType": "bytes32",
          "name": "_policyId",
          "type": "bytes32"
        },
        {
          "internalType": "uint256",
          "name": "_amount",
          "type": "uint256"
        }
      ],
      "name": "paySimplePremium",
      "outputs": [],
      "stateMutability": "nonpayable",
      "type": "function"
    }
  ],
  "bytecode": {
    "object": "0x608060405234801561001057600080fd5b50611e5b806100206000396000f3fe608060405234801561001057600080fd5b506004361061007c5760003560e01c80637d2926051161005b5780637d292605146100e3578063c3ab48cb146100f6578063e8b3fb3c1461016e578063f3253b5f1461018157600080fd5b8062bae1731461008157806323eaabe3146100965780633a0b7208146100a9575b600080fd5b61009461008f366004611b5e565b6101a2565b005b6100946100a4366004611b5e565b6101eb565b6100b1610295565b60408051825161ffff908116825260208085015182169083015292820151909216908201526060015b60405180910390f35b6100946100f1366004611b77565b6102bf565b610109610104366004611b5e565b6103a8565b6040516100da91906000610100820190508251825260208301516020830152604083015160408301526060830151606083015260808301511515608083015260a0830151151560a083015260c083015160c083015260e083015160e083015292915050565b61009461017c366004611b99565b61046a565b61019461018f366004611bcb565b610501565b6040519081526020016100da565b6000356001600160e01b0319166101b88161051a565b156101de5760405162461bcd60e51b81526004016101d590611c06565b60405180910390fd5b6101e782610558565b5050565b6102466102096101f96105e3565b60601b6001600160601b03191690565b61021161063f565b6102416040518060400160405280600f81526020016e53797374656d204d616e616765727360881b815250610664565b610675565b6102895760405162461bcd60e51b81526020600482015260146024820152733737ba10309039bcb9ba32b69036b0b730b3b2b960611b60448201526064016101d5565b61029281610742565b50565b60408051606081018252600080825260208201819052918101919091526102ba610804565b905090565b6000356001600160e01b0319166102d58161051a565b156102f25760405162461bcd60e51b81526004016101d590611c06565b826103376103066103016105e3565b61085b565b826102416040518060400160405280600f81526020016e506f6c6963792048616e646c65727360881b815250610664565b61037a5760405162461bcd60e51b81526020600482015260146024820152733737ba1030903837b634b1bc903430b7323632b960611b60448201526064016101d5565b6001600160601b03193360601b1660006103938261088d565b90506103a08187876108ad565b505050505050565b6103f76040518061010001604052806000815260200160008152602001600080191681526020016000815260200160001515815260200160001515815260200160008152602001600081525090565b600061040283610a4b565b9050604051806101000160405280826000015181526020018260200151815260200182604001518152602001826060015181526020018260800151151581526020018260a00151151581526020018260c0015181526020018260e00151815250915050919050565b6000356001600160e01b0319166104808161051a565b1561049d5760405162461bcd60e51b81526004016101d590611c06565b6104ab6102096101f96105e3565b6104ee5760405162461bcd60e51b81526020600482015260146024820152733737ba10309039bcb9ba32b69036b0b730b3b2b960611b60448201526064016101d5565b6104fa85858585610bde565b5050505050565b60006105108686868686610ed2565b9695505050505050565b6001600160e01b03191660009081527f47f677dbe524b93b2c36e6f8027a75c4906479c31df070fdbea83211f1a26050602052604090205460ff1690565b6000610562610f43565b60008381526012820160205260409020600481015491925090610100900460ff16158015610594575080600101544210155b80156105a45750600481015460ff165b156105de576105b283610f67565b60405183907f5ef763899e3efa30fdc82a86b8d4d4a48974ced5248d778d1c4d322160ecfa0190600090a25b505050565b600030330361063957600080368080601f0160208091040260200160405190810160405280939291908181526020018383808284376000920191909152505050503601516001600160a01b0316915061063c9050565b50335b90565b60006102ba6040518060400160405280600681526020016553797374656d60d01b8152505b600061066f82611034565b92915050565b600080610680610f43565b6000868152601f82016020908152604080832088845290915290205490915080158015906106c957506000818152601d83016020908152604080832087845290915290205460ff165b156106d75760019250610739565b6000868152601f830160205260408120816106f061063f565b81526020810191909152604001600020549050801580159061072d57506000818152601d84016020908152604080832088845290915290205460ff165b1561073757600193505b505b50509392505050565b600061074c610f43565b60008381526012820160205260409020600481015491925090610100900460ff16156107ba5760405162461bcd60e51b815260206004820152601860248201527f506f6c69637920616c72656164792063616e63656c6c6564000000000000000060448201526064016101d5565b6107c383610f67565b60048101805461ff00191661010017905560405183907fb9f06c2aafb33d6e7e10925f097be026995386c2e7c3b05f336fe417c1b9c61e90600090a2505050565b6040805160608101825260008082526020820181905291810182905290610829610f43565b6026015461ffff600160501b820481168452600160601b820481166020850152600160701b9091041660408301525090565b600080610866610f43565b60609390931b6001600160601b0319166000908152600a9093016020525050604090205490565b600080610898610f43565b6000938452600a016020525050604090205490565b600081116108f65760405162461bcd60e51b81526020600482015260166024820152751a5b9d985b1a59081c1c995b5a5d5b48185b5bdd5b9d60521b60448201526064016101d5565b6000610900610f43565b6000858152600f8201602052604090205490915060ff166109375760405163e1f8801360e01b8152600481018590526024016101d5565b600083815260108201602052604090205460ff1661096b576040516307c579f360e21b8152600481018490526024016101d5565b60006109768461088d565b60008581526012840160205260409020600481015491925090610100900460ff16156109da5760405162461bcd60e51b8152602060048201526013602482015272141bdb1a58de481a5cc818d85b98d95b1b1959606a1b60448201526064016101d5565b6109ea868383600201548761104f565b506109f58585611299565b83816006016000828254610a099190611c48565b909155505060405184815285907fd44880514d72bd9d26e63603fa8448ea9bac29c0099e74e0a2c80a3ff4b39d829060200160405180910390a2505050505050565b610aa860405180610140016040528060008152602001600081526020016000801916815260200160008152602001600015158152602001600015158152602001600081526020016000815260200160608152602001606081525090565b6000610ab2610f43565b60008481526012820160209081526040918290208251610140810184528154815260018201548184015260028201548185015260038201546060820152600482015460ff808216151560808401526101009182900416151560a0830152600583015460c0830152600683015460e08301526007830180548651818702810187019097528087529697509195929490860193909290830182828015610b7557602002820191906000526020600020905b815481526020019060010190808311610b61575b5050505050815260200160088201805480602002602001604051908101604052809291908181526020018280548015610bcd57602002820191906000526020600020905b815481526020019060010190808311610bb9575b505050505081525050915050919050565b6000610be8610f43565b905060008211610c315760405162461bcd60e51b81526020600482015260146024820152731a5b9d985b1a590818db185a5b48185b5bdd5b9d60621b60448201526064016101d5565b610c6683856102416040518060400160405280600f81526020016e496e7375726564205061727469657360881b815250610664565b610ca95760405162461bcd60e51b81526020600482015260146024820152736e6f7420616e20696e737572656420706172747960601b60448201526064016101d5565b600084815260128201602052604090206004810154610100900460ff1615610d095760405162461bcd60e51b8152602060048201526013602482015272141bdb1a58de481a5cc818d85b98d95b1b1959606a1b60448201526064016101d5565b6005810154610d188185611c48565b82600301541015610d625760405162461bcd60e51b8152602060048201526014602482015273195e18d959591cc81c1bdb1a58de481b1a5b5a5d60621b60448201526064016101d5565b83826005016000828254610d769190611c48565b9091555060009050610d878761088d565b6000818152601186016020908152604091829020825160a081018452815481526001820154928101839052600282015493810193909352600381015460608401526004015460ff16151560808301529192509061271090610de89088611c5b565b610df29190611c72565b600083815260278701602090815260408083208551845290915281208054909190610e1e908490611c94565b9091555050602081015161271090610e369088611c5b565b610e409190611c72565b600083815260118701602052604081206003018054909190610e63908490611c94565b90915550610e729050896114bb565b610e8a610e7e8961088d565b8886600201548961104f565b5086888a7f52cde9fcf4f60d6799679d6944671724549a11ac0b9ee9d4aa1789934047219689604051610ebf91815260200190565b60405180910390a4505050505050505050565b604080517f0d40926ea0fad01711c674b0c53bbf6604490695a7201d351f27085bd6747be56020820152908101869052606081018590526080810184905260a0810183905260c081018290526000906105109060e0016040516020818303038152906040528051906020012061155e565b7f1ab5ce5b595c6e94c5fba2e588bf4eafa8b384a4fb6e188b892768e695c1bfc790565b6000610f71610f43565b90506000610f7e8361088d565b60008481526012840160209081526040808320848452601187019092528220600181015460058301546003840154959650929491939261271092610fc29190611c94565b610fcc9190611c5b565b610fd69190611c72565b905080826003016000828254610fec9190611c94565b909155505060008481526027860160209081526040808320855484529091528120805483929061101d908490611c94565b90915550505050600401805460ff19169055505050565b6000815160000361104757506000919050565b506020015190565b60008061105a610f43565b600085815260158201602090815260408083208a84529091529020549091508311156110d85760405162461bcd60e51b815260206004820152602760248201527f5f696e7465726e616c5472616e736665723a20696e73756666696369656e742060448201526662616c616e636560c81b60648201526084016101d5565b600086815260278201602090815260408083208784528252808320546015850183528184208a855290925290912054849161111291611c94565b10156111865760405162461bcd60e51b815260206004820152603f60248201527f5f696e7465726e616c5472616e736665723a20696e73756666696369656e742060448201527f62616c616e636520617661696c61626c652c2066756e6473206c6f636b65640060648201526084016101d5565b61119086856115ac565b60008481526015820160209081526040808320898452909152812080548592906111bb908490611c94565b909155505060008481526015820160209081526040808320888452909152812080548592906111eb908490611c48565b909155506111ff9050868686866000611658565b60008481526015820160209081526040808320898452909152908190205490518791600080516020611e068339815191529161123e9188913390611ca7565b60405180910390a260008481526015820160209081526040808320888452909152908190205490518691600080516020611e06833981519152916112859188913390611ca7565b60405180910390a250600195945050505050565b60006112a3610f43565b600084815260128201602090815260408083208151610140810183528154815260018201548185015260028201548184015260038201546060820152600482015460ff808216151560808401526101009182900416151560a0830152600583015460c0830152600683015460e08301526007830180548551818802810188019096528086529798509596919592949086019392919083018282801561136757602002820191906000526020600020905b815481526020019060010190808311611353575b50505050508152602001600882018054806020026020016040519081016040528092919081815260200182805480156113bf57602002820191906000526020600020905b8154815260200190600101908083116113ab575b505050505081525050905060006113d58561088d565b61010083015151909150600090815b81811015611476576000612710866101200151838151811061140857611408611cef565b60200260200101518961141b9190611c5b565b6114259190611c72565b905061145585876101000151848151811061144257611442611cef565b602002602001015188604001518461104f565b506114608185611c48565b935050808061146e90611d05565b9150506113e4565b5082877f38ae91bc7a2dd078082b137e8adf55878f8d04124a618905f49398cc80be2482846040516114aa91815260200190565b60405180910390a350505050505050565b60006114c5610f43565b600083815260098201602052604090205490915060ff16156115425760405162461bcd60e51b815260206004820152603060248201527f6f626a656374496420697320616c7265616479206265696e672075736564206260448201526f1e48185b9bdd1a195c881bd89a9958dd60821b60648201526084016101d5565b600091825260090160205260409020805460ff19166001179055565b600061066f61156b61182c565b8360405161190160f01b6020820152602281018390526042810182905260009060620160405160208183030381529060405280519060200120905092915050565b60006115b6610f43565b600083815260188201602090815260408083208054825181850281018501909352808352949550929390929183018282801561161157602002820191906000526020600020905b8154815260200190600101908083116115fd575b5050505050905060005b81518110156104fa57611648858584848151811061163b5761163b611cef565b602002602001015161185d565b61165181611d05565b905061161b565b6000611662610f43565b9050600061166f85611a46565b60008681526018840160209081526040808320805482518185028101850190935280835294955092939092918301828280156116ca57602002820191906000526020600020905b8154815260200190600101908083116116b6575b5050505050905060005b81518110156118215760008282815181106116f1576116f1611cef565b60209081029190910181015160008a8152601b880183526040808220838352909352918220549092509061172789878484611a66565b60008b8152601c89016020908152604080832087845282528083208f845290915281208054929350839290919061175f908490611c48565b90915550508b156117a35760008a8152601c88016020908152604080832086845282528083208f84529091528120805483929061179d908490611c94565b90915550505b871561180d5760008a8152601b88016020908152604080832086845290915290205486906117d2908b90611c5b565b6117dc9190611c72565b60008b8152601b89016020908152604080832087845290915281208054909190611807908490611c48565b90915550505b5050508061181a90611d05565b90506116d4565b505050505050505050565b600080611837610f43565b9050806001015446146118515761184c611ab6565b611857565b80600201545b91505090565b6000611867610f43565b905060006118996040518060400160405280600d81526020016c4469766964656e642042616e6b60981b815250610664565b600085815260158401602090815260408083208984529091528120549192506118c186611a46565b6000878152601b8601602090815260408083208984528252808320548a8452601c890183528184208a855283528184208c8552909252822054929350919061190b85858585611a66565b90508015611a3a576000898152601c8801602090815260408083208b845282528083208d845290915281208054839290611946908490611c48565b90915550506000888152601588016020908152604080832089845290915281208054839290611976908490611c94565b9091555050600088815260158801602090815260408083208d8452909152812080548392906119a6908490611c48565b909155505060008881526015880160209081526040808320898452909152908190205490518791600080516020611e06833981519152916119ea918c913390611d1e565b60405180910390a2600088815260158801602090815260408083208d8452909152908190205490518b91600080516020611e0683398151915291611a31918c913390611d1e565b60405180910390a25b50505050505050505050565b600080611a51610f43565b60009384526016016020525050604090205490565b600080611a738685611c5b565b905060008515611a8c57611a878683611c72565b611a8f565b60005b905080841015611aa857611aa38482611c94565b611aab565b60005b979650505050505050565b600080611ac1610f43565b90507f8b73c3c69bb8fe3d512ecc4cf759cc79239f7b179b0ffacaa9a75d522b39400f81600401604051611af59190611d66565b6040805191829003822060208301939093528101919091527fc89efdaa54c0f20c7adf612882df0950f5a951637e0307cdcb4c672f298b8bc660608201524660808201523060a082015260c0016040516020818303038152906040528051906020012091505090565b600060208284031215611b7057600080fd5b5035919050565b60008060408385031215611b8a57600080fd5b50508035926020909101359150565b60008060008060808587031215611baf57600080fd5b5050823594602084013594506040840135936060013592509050565b600080600080600060a08688031215611be357600080fd5b505083359560208501359550604085013594606081013594506080013592509050565b602080825260129082015271199d5b98dd1a5bdb881a5cc81b1bd8dad95960721b604082015260600190565b634e487b7160e01b600052601160045260246000fd5b8082018082111561066f5761066f611c32565b808202811582820484141761066f5761066f611c32565b600082611c8f57634e487b7160e01b600052601260045260246000fd5b500490565b8181038181111561066f5761066f611c32565b9283526020830191909152608060408301819052601190830152702fb4b73a32b93730b62a3930b739b332b960791b60a08301526001600160a01b0316606082015260c00190565b634e487b7160e01b600052603260045260246000fd5b600060018201611d1757611d17611c32565b5060010190565b92835260208301919091526080604083018190526011908301527017ddda5d1a191c985dd11a5d9a59195b99607a1b60a08301526001600160a01b0316606082015260c00190565b600080835481600182811c915080831680611d8257607f831692505b60208084108203611da157634e487b7160e01b86526022600452602486fd5b818015611db55760018114611dca57611df7565b60ff1986168952841515850289019650611df7565b60008a81526020902060005b86811015611def5781548b820152908501908301611dd6565b505084890196505b50949897505050505050505056fe2a6b96e51c5252b8e3666030ed958aec041736a7af1773a4e5833bac27b47e3ba264697066735822122023428d8d6bbce537d9701ac3f826218839bee0ad15e7b919647959ddd8802c7a64736f6c63430008110033",
    "linkReferences": {}
  },
  "methodIdentifiers": {
    "cancelSimplePolicy(bytes32)": "23eaabe3",
    "checkAndUpdateSimplePolicyState(bytes32)": "00bae173",
    "getPremiumCommissionBasisPoints()": "3a0b7208",
    "getSigningHash(uint256,uint256,bytes32,uint256,bytes32)": "f3253b5f",
    "getSimplePolicyInfo(bytes32)": "c3ab48cb",
    "paySimpleClaim(bytes32,bytes32,bytes32,uint256)": "e8b3fb3c",
    "paySimplePremium(bytes32,uint256)": "7d292605"
  },
  "id": 49
}