{
  "abi": [
    {
      "inputs": [
        {
          "internalType": "address",
          "name": "_token",
          "type": "address"
        },
        {
          "internalType": "address",
          "name": "_who",
          "type": "address"
        }
      ],
      "name": "balanceOf",
      "outputs": [
        {
          "internalType": "uint256",
          "name": "",
          "type": "uint256"
        }
      ],
      "stateMutability": "nonpayable",
      "type": "function"
    },
    {
      "inputs": [
        {
          "internalType": "address",
          "name": "_token",
          "type": "address"
        }
      ],
      "name": "decimals",
      "outputs": [
        {
          "internalType": "uint8",
          "name": "",
          "type": "uint8"
        }
      ],
      "stateMutability": "nonpayable",
      "type": "function"
    },
    {
      "inputs": [
        {
          "internalType": "address",
          "name": "_token",
          "type": "address"
        },
        {
          "internalType": "address",
          "name": "_to",
          "type": "address"
        },
        {
          "internalType": "uint256",
          "name": "_value",
          "type": "uint256"
        }
      ],
      "name": "transfer",
      "outputs": [],
      "stateMutability": "nonpayable",
      "type": "function"
    },
    {
      "inputs": [
        {
          "internalType": "address",
          "name": "_token",
          "type": "address"
        },
        {
          "internalType": "address",
          "name": "_from",
          "type": "address"
        },
        {
          "internalType": "address",
          "name": "_to",
          "type": "address"
        },
        {
          "internalType": "uint256",
          "name": "_value",
          "type": "uint256"
        }
      ],
      "name": "transferFrom",
      "outputs": [],
      "stateMutability": "nonpayable",
      "type": "function"
    }
  ],
  "bytecode": {
    "object": "0x608060405234801561001057600080fd5b50610811806100206000396000f3fe608060405234801561001057600080fd5b506004361061004c5760003560e01c806315dacbea14610051578063beabacc814610066578063d449a83214610079578063f7888aec146100a3575b600080fd5b61006461005f366004610630565b6100c4565b005b61006461007436600461067b565b6100d6565b61008c6100873660046106b7565b6100e6565b60405160ff90911681526020015b60405180910390f35b6100b66100b13660046106d2565b6100f7565b60405190815260200161009a565b6100d08484848461010a565b50505050565b6100e18383836101f0565b505050565b60006100f1826102c4565b92915050565b600061010383836103e6565b9392505050565b833b806101325760405162461bcd60e51b815260040161012990610705565b60405180910390fd5b604080516001600160a01b0386811660248301528581166044830152606480830186905283518084039091018152608490920183526020820180516001600160e01b03166323b872dd60e01b1790529151600092839290891691610196919061074e565b6000604051808303816000865af19150503d80600081146101d3576040519150601f19603f3d011682016040523d82523d6000602084013e6101d8565b606091505b50915091506101e7828261051e565b50505050505050565b823b8061020f5760405162461bcd60e51b815260040161012990610705565b604080516001600160a01b038581166024830152604480830186905283518084039091018152606490920183526020820180516001600160e01b031663a9059cbb60e01b179052915160009283929088169161026b919061074e565b6000604051808303816000865af19150503d80600081146102a8576040519150601f19603f3d011682016040523d82523d6000602084013e6102ad565b606091505b50915091506102bc828261051e565b505050505050565b6000813b806102e55760405162461bcd60e51b815260040161012990610705565b60408051600481526024810182526020810180516001600160e01b031663313ce56760e01b179052905160009182916001600160a01b038716916103289161074e565b6000604051808303816000865af19150503d8060008114610365576040519150601f19603f3d011682016040523d82523d6000602084013e61036a565b606091505b509150915081156103925780806020019051810190610389919061077d565b95945050505050565b60405162461bcd60e51b815260206004820152602360248201527f4c696245524332303a2063616c6c20746f20646563696d616c732829206661696044820152621b195960ea1b6064820152608401610129565b6000823b806104075760405162461bcd60e51b815260040161012990610705565b604080516001600160a01b0385811660248084019190915283518084039091018152604490920183526020820180516001600160e01b03166370a0823160e01b179052915160009283929088169161045f919061074e565b6000604051808303816000865af19150503d806000811461049c576040519150601f19603f3d011682016040523d82523d6000602084013e6104a1565b606091505b509150915081156104ca57808060200190518101906104c091906107a0565b93505050506100f1565b60405162461bcd60e51b8152602060048201526024808201527f4c696245524332303a2063616c6c20746f2062616c616e63654f6628292066616044820152631a5b195960e21b6064820152608401610129565b81156105a9578051156105a5578080602001905181019061053f91906107b9565b6105a55760405162461bcd60e51b815260206004820152603160248201527f4c696245524332303a207472616e73666572206f72207472616e7366657246726044820152706f6d2072657475726e65642066616c736560781b6064820152608401610129565b5050565b8051156105b857805181602001fd5b60405162461bcd60e51b815260206004820152602b60248201527f4c696245524332303a207472616e73666572206f72207472616e73666572467260448201526a1bdb481c995d995c9d195960aa1b6064820152608401610129565b80356001600160a01b038116811461062b57600080fd5b919050565b6000806000806080858703121561064657600080fd5b61064f85610614565b935061065d60208601610614565b925061066b60408601610614565b9396929550929360600135925050565b60008060006060848603121561069057600080fd5b61069984610614565b92506106a760208501610614565b9150604084013590509250925092565b6000602082840312156106c957600080fd5b61010382610614565b600080604083850312156106e557600080fd5b6106ee83610614565b91506106fc60208401610614565b90509250929050565b60208082526029908201527f4c696245524332303a20455243323020746f6b656e206164647265737320686160408201526873206e6f20636f646560b81b606082015260800190565b6000825160005b8181101561076f5760208186018101518583015201610755565b506000920191825250919050565b60006020828403121561078f57600080fd5b815160ff8116811461010357600080fd5b6000602082840312156107b257600080fd5b5051919050565b6000602082840312156107cb57600080fd5b8151801515811461010357600080fdfea26469706673582212209edd39805076f9b3ddb9cf1357475d3ba5e7df0bfa0aa41f1e8c6e959c218e3764736f6c63430008110033",
    "linkReferences": {}
  },
  "methodIdentifiers": {
    "balanceOf(address,address)": "f7888aec",
    "decimals(address)": "d449a832",
    "transfer(address,address,uint256)": "beabacc8",
    "transferFrom(address,address,address,uint256)": "15dacbea"
  },
  "id": 115
}