{
  "abi": [
    {
      "inputs": [],
      "name": "ExternalDepositAmountCannotBeZero",
      "type": "error"
    },
    {
      "inputs": [],
      "name": "ExternalWithdrawAmountCannotBeZero",
      "type": "error"
    },
    {
      "inputs": [
        {
          "internalType": "address",
          "name": "_externalTokenAddress",
          "type": "address"
        },
        {
          "internalType": "uint256",
          "name": "_amount",
          "type": "uint256"
        }
      ],
      "name": "externalDeposit",
      "outputs": [],
      "stateMutability": "nonpayable",
      "type": "function"
    },
    {
      "inputs": [
        {
          "internalType": "bytes32",
          "name": "_entityId",
          "type": "bytes32"
        },
        {
          "internalType": "address",
          "name": "_receiver",
          "type": "address"
        },
        {
          "internalType": "address",
          "name": "_externalTokenAddress",
          "type": "address"
        },
        {
          "internalType": "uint256",
          "name": "_amount",
          "type": "uint256"
        }
      ],
      "name": "externalWithdrawFromEntity",
      "outputs": [],
      "stateMutability": "nonpayable",
      "type": "function"
    }
  ],
  "bytecode": {
    "object": "0x608060405234801561001057600080fd5b5061178c806100206000396000f3fe608060405234801561001057600080fd5b50600436106100365760003560e01c806313b747601461003b5780639bda867814610050575b600080fd5b61004e6100493660046113db565b610063565b005b61004e61005e36600461141f565b6101f0565b6000356001600160e01b03191661007981610420565b156100c05760405162461bcd60e51b8152602060048201526012602482015271199d5b98dd1a5bdb881a5cc81b1bd8dad95960721b60448201526064015b60405180910390fd5b60008051602061173783398151915254600119016101205760405162461bcd60e51b815260206004820152601f60248201527f5265656e7472616e637947756172643a207265656e7472616e742063616c6c0060448201526064016100b7565b6002600080516020611737833981519152558461018561015161014161045e565b60601b6001600160601b03191690565b826101806040518060400160405280600d81526020016c456e746974792041646d696e7360981b8152506104ba565b6104cb565b6101ca5760405162461bcd60e51b81526020600482015260166024820152753737ba103a34329032b73a34ba3c93b99030b236b4b760511b60448201526064016100b7565b6101d6868686866105b7565b505060016000805160206117378339815191525550505050565b6000356001600160e01b03191661020681610420565b156102485760405162461bcd60e51b8152602060048201526012602482015271199d5b98dd1a5bdb881a5cc81b1bd8dad95960721b60448201526064016100b7565b60008051602061173783398151915254600119016102a85760405162461bcd60e51b815260206004820152601f60248201527f5265656e7472616e637947756172643a207265656e7472616e742063616c6c0060448201526064016100b7565b6002600080516020611737833981519152556001600160a01b03831660009081527f1ab5ce5b595c6e94c5fba2e588bf4eafa8b384a4fb6e188b892768e695c1bfda602052604090205460ff166103415760405162461bcd60e51b815260206004820152601f60248201527f6578744465706f7369743a20696e76616c696420455243323020746f6b656e0060448201526064016100b7565b3360601b6001600160601b03191660009081527f1ab5ce5b595c6e94c5fba2e588bf4eafa8b384a4fb6e188b892768e695c1bfd1602052604081205460008181527f1ab5ce5b595c6e94c5fba2e588bf4eafa8b384a4fb6e188b892768e695c1bfd6602052604090205490915060ff166103fd5760405162461bcd60e51b815260206004820152601c60248201527f6578744465706f7369743a20696e76616c69642072656365697665720000000060448201526064016100b7565b610408818585610604565b50506001600080516020611737833981519152555050565b6001600160e01b03191660009081527f47f677dbe524b93b2c36e6f8027a75c4906479c31df070fdbea83211f1a26050602052604090205460ff1690565b60003033036104b457600080368080601f0160208091040260200160405190810160405280939291908181526020018383808284376000920191909152505050503601516001600160a01b031691506104b79050565b50335b90565b60006104c58261067e565b92915050565b60008381527f1ab5ce5b595c6e94c5fba2e588bf4eafa8b384a4fb6e188b892768e695c1bfe6602090815260408083208584529091528120546000805160206116f783398151915290801580159061053e57506000818152601d83016020908152604080832087845290915290205460ff165b1561054c57600192506105ae565b6000868152601f83016020526040812081610565610699565b8152602081019190915260400160002054905080158015906105a257506000818152601d84016020908152604080832088845290915290205460ff165b156105ac57600193505b505b50509392505050565b806000036105d85760405163959ed6e560e01b815260040160405180910390fd5b6001600160601b0319606083901b166105f28582846106c7565b6105fd838584610912565b5050505050565b806000036106255760405163806daf1160e01b815260040160405180910390fd5b6001600160601b0319606083901b16600061064084306109e6565b905061064e84333086610b1e565b600061065a85306109e6565b90506000610668838361145f565b9050610675878583610bf2565b50505050505050565b6000815160000361069157506000919050565b506020015190565b60006106c26040518060400160405280600681526020016553797374656d60d01b8152506104ba565b905090565b60008281527f1ab5ce5b595c6e94c5fba2e588bf4eafa8b384a4fb6e188b892768e695c1bfdc602090815260408083208684529091529020546000805160206116f78339815191529082111561076b5760405162461bcd60e51b815260206004820152602360248201527f5f696e7465726e616c4275726e3a20696e73756666696369656e742062616c616044820152626e636560e81b60648201526084016100b7565b600084815260278201602090815260408083208684528252808320546015850183528184208885529092529091205483916107a59161145f565b10156108195760405162461bcd60e51b815260206004820152603b60248201527f5f696e7465726e616c4275726e3a20696e73756666696369656e742062616c6160448201527f6e636520617661696c61626c652c2066756e6473206c6f636b6564000000000060648201526084016100b7565b6108238484610d9d565b60008381526016820160205260408120805484929061084390849061145f565b9091555050600083815260158201602090815260408083208784529091528120805484929061087390849061145f565b909155505060008381526016820160205260409081902054905184917fb265507be3deb826a9f1ee89ff597f0214103a39d059c667755462fb00447550916108bd91903390611472565b60405180910390a2600083815260158201602090815260408083208784529091529081902054905185916000805160206117178339815191529161090491879133906114bc565b60405180910390a250505050565b823b806109315760405162461bcd60e51b81526004016100b79061150d565b604080516001600160a01b038581166024830152604480830186905283518084039091018152606490920183526020820180516001600160e01b031663a9059cbb60e01b179052915160009283929088169161098d9190611556565b6000604051808303816000865af19150503d80600081146109ca576040519150601f19603f3d011682016040523d82523d6000602084013e6109cf565b606091505b50915091506109de8282610e65565b505050505050565b6000823b80610a075760405162461bcd60e51b81526004016100b79061150d565b604080516001600160a01b0385811660248084019190915283518084039091018152604490920183526020820180516001600160e01b03166370a0823160e01b1790529151600092839290881691610a5f9190611556565b6000604051808303816000865af19150503d8060008114610a9c576040519150601f19603f3d011682016040523d82523d6000602084013e610aa1565b606091505b50915091508115610aca5780806020019051810190610ac09190611585565b93505050506104c5565b60405162461bcd60e51b8152602060048201526024808201527f4c696245524332303a2063616c6c20746f2062616c616e63654f6628292066616044820152631a5b195960e21b60648201526084016100b7565b833b80610b3d5760405162461bcd60e51b81526004016100b79061150d565b604080516001600160a01b0386811660248301528581166044830152606480830186905283518084039091018152608490920183526020820180516001600160e01b03166323b872dd60e01b1790529151600092839290891691610ba19190611556565b6000604051808303816000865af19150503d8060008114610bde576040519150601f19603f3d011682016040523d82523d6000602084013e610be3565b606091505b50915091506106758282610e65565b82600003610c4e5760405162461bcd60e51b815260206004820152602360248201527f5f696e7465726e616c4d696e743a206d696e7420746f207a65726f206164647260448201526265737360e81b60648201526084016100b7565b60008111610c9e5760405162461bcd60e51b815260206004820152601f60248201527f5f696e7465726e616c4d696e743a206d696e74207a65726f20746f6b656e730060448201526064016100b7565b6000805160206116f7833981519152610cbc60008585856001610f5b565b600083815260168201602052604081208054849290610cdc90849061159e565b90915550506000838152601582016020908152604080832087845290915281208054849290610d0c90849061159e565b909155505060008381526016820160205260409081902054905184917fb265507be3deb826a9f1ee89ff597f0214103a39d059c667755462fb0044755091610d56919033906115b1565b60405180910390a2600083815260158201602090815260408083208784529091529081902054905185916000805160206117178339815191529161090491879133906115e4565b60008181527f1ab5ce5b595c6e94c5fba2e588bf4eafa8b384a4fb6e188b892768e695c1bfdf6020908152604080832080548251818502810185019093528083526000805160206116f78339815191529493830182828015610e1e57602002820191906000526020600020905b815481526020019060010190808311610e0a575b5050505050905060005b81518110156105fd57610e558585848481518110610e4857610e4861161d565b6020026020010151611169565b610e5e81611633565b9050610e28565b8115610ef057805115610eec5780806020019051810190610e86919061164c565b610eec5760405162461bcd60e51b815260206004820152603160248201527f4c696245524332303a207472616e73666572206f72207472616e7366657246726044820152706f6d2072657475726e65642066616c736560781b60648201526084016100b7565b5050565b805115610eff57805181602001fd5b60405162461bcd60e51b815260206004820152602b60248201527f4c696245524332303a207472616e73666572206f72207472616e73666572467260448201526a1bdb481c995d995c9d195960aa1b60648201526084016100b7565b60008381527f1ab5ce5b595c6e94c5fba2e588bf4eafa8b384a4fb6e188b892768e695c1bfdd60209081526040808320547f1ab5ce5b595c6e94c5fba2e588bf4eafa8b384a4fb6e188b892768e695c1bfdf835281842080548351818602810186019094528084526000805160206116f783398151915295929492939283018282801561100757602002820191906000526020600020905b815481526020019060010190808311610ff3575b5050505050905060005b815181101561115e57600082828151811061102e5761102e61161d565b60209081029190910181015160008a8152601b88018352604080822083835290935291822054909250906110648987848461136f565b60008b8152601c89016020908152604080832087845282528083208f845290915281208054929350839290919061109c90849061159e565b90915550508b156110e05760008a8152601c88016020908152604080832086845282528083208f8452909152812080548392906110da90849061145f565b90915550505b871561114a5760008a8152601b880160209081526040808320868452909152902054869061110f908b90611675565b611119919061168c565b60008b8152601b8901602090815260408083208784529091528120805490919061114490849061159e565b90915550505b5050508061115790611633565b9050611011565b505050505050505050565b60006000805160206116f7833981519152905060006111ac6040518060400160405280600d81526020016c4469766964656e642042616e6b60981b8152506104ba565b600085815260158401602090815260408083208984528252808320548884527f1ab5ce5b595c6e94c5fba2e588bf4eafa8b384a4fb6e188b892768e695c1bfdd835281842054601b880184528285208986528452828520548a8652601c890185528386208a875285528386208c8752909452918420549495509390926112348585858561136f565b90508015611363576000898152601c8801602090815260408083208b845282528083208d84529091528120805483929061126f90849061159e565b9091555050600088815260158801602090815260408083208984529091528120805483929061129f90849061145f565b9091555050600088815260158801602090815260408083208d8452909152812080548392906112cf90849061159e565b90915550506000888152601588016020908152604080832089845290915290819020549051879160008051602061171783398151915291611313918c9133906116ae565b60405180910390a2600088815260158801602090815260408083208d8452909152908190205490518b916000805160206117178339815191529161135a918c9133906116ae565b60405180910390a25b50505050505050505050565b60008061137c8685611675565b90506000851561139557611390868361168c565b611398565b60005b9050808410156113b1576113ac848261145f565b6113b4565b60005b979650505050505050565b80356001600160a01b03811681146113d657600080fd5b919050565b600080600080608085870312156113f157600080fd5b84359350611401602086016113bf565b925061140f604086016113bf565b9396929550929360600135925050565b6000806040838503121561143257600080fd5b61143b836113bf565b946020939093013593505050565b634e487b7160e01b600052601160045260246000fd5b818103818111156104c5576104c5611449565b8281526060602082015260006114a560608301600d81526c2fb4b73a32b93730b6213ab93760991b602082015260400190565b905060018060a01b03831660408301529392505050565b8381528260208201526080604082015260006114f560808301600d81526c2fb4b73a32b93730b6213ab93760991b602082015260400190565b905060018060a01b0383166060830152949350505050565b60208082526029908201527f4c696245524332303a20455243323020746f6b656e206164647265737320686160408201526873206e6f20636f646560b81b606082015260800190565b6000825160005b81811015611577576020818601810151858301520161155d565b506000920191825250919050565b60006020828403121561159757600080fd5b5051919050565b808201808211156104c5576104c5611449565b8281526060602082015260006114a560608301600d81526c17da5b9d195c9b985b135a5b9d609a1b602082015260400190565b8381528260208201526080604082015260006114f560808301600d81526c17da5b9d195c9b985b135a5b9d609a1b602082015260400190565b634e487b7160e01b600052603260045260246000fd5b60006001820161164557611645611449565b5060010190565b60006020828403121561165e57600080fd5b8151801515811461166e57600080fd5b9392505050565b80820281158282048414176104c5576104c5611449565b6000826116a957634e487b7160e01b600052601260045260246000fd5b500490565b92835260208301919091526080604083018190526011908301527017ddda5d1a191c985dd11a5d9a59195b99607a1b60a08301526001600160a01b0316606082015260c0019056fe1ab5ce5b595c6e94c5fba2e588bf4eafa8b384a4fb6e188b892768e695c1bfc72a6b96e51c5252b8e3666030ed958aec041736a7af1773a4e5833bac27b47e3b1ab5ce5b595c6e94c5fba2e588bf4eafa8b384a4fb6e188b892768e695c1bfcaa2646970667358221220a60db538b91281eff813fcf0dcdd5acc0684db53b24eb97051382e2a0cdcc8cd64736f6c63430008110033",
    "linkReferences": {}
  },
  "methodIdentifiers": {
    "externalDeposit(address,uint256)": "9bda8678",
    "externalWithdrawFromEntity(bytes32,address,address,uint256)": "13b74760"
  },
  "id": 52
}