{
  "abi": [
    {
      "inputs": [
        {
          "internalType": "bytes32",
          "name": "value",
          "type": "bytes32"
        }
      ],
      "name": "_checkBottom12BytesAreEmpty",
      "outputs": [
        {
          "internalType": "bool",
          "name": "",
          "type": "bool"
        }
      ],
      "stateMutability": "pure",
      "type": "function"
    }
  ],
  "bytecode": {
    "object": "0x60b7610039600b82828239805160001a60731461002c57634e487b7160e01b600052600060045260246000fd5b30600052607381538281f3fe730000000000000000000000000000000000000000301460806040526004361060335760003560e01c806392c48620146038575b600080fd5b605560433660046069565b6bffffffffffffffffffffffff161590565b604051901515815260200160405180910390f35b600060208284031215607a57600080fd5b503591905056fea264697066735822122000108fa0ab74c104b653e8dc143f6ad37fdc986748ba0542059fe674e3b90b0d64736f6c63430008110033",
    "linkReferences": {}
  },
  "methodIdentifiers": {
    "_checkBottom12BytesAreEmpty(bytes32)": "92c48620"
  },
  "id": 73
}