{
  "abi": [
    {
      "anonymous": false,
      "inputs": [
        {
          "indexed": true,
          "internalType": "address",
          "name": "owner",
          "type": "address"
        },
        {
          "indexed": true,
          "internalType": "address",
          "name": "spender",
          "type": "address"
        },
        {
          "indexed": false,
          "internalType": "uint256",
          "name": "value",
          "type": "uint256"
        }
      ],
      "name": "Approval",
      "type": "event"
    },
    {
      "anonymous": false,
      "inputs": [
        {
          "indexed": true,
          "internalType": "address",
          "name": "from",
          "type": "address"
        },
        {
          "indexed": true,
          "internalType": "address",
          "name": "to",
          "type": "address"
        },
        {
          "indexed": false,
          "internalType": "uint256",
          "name": "value",
          "type": "uint256"
        }
      ],
      "name": "Transfer",
      "type": "event"
    },
    {
      "inputs": [
        {
          "internalType": "address",
          "name": "",
          "type": "address"
        },
        {
          "internalType": "address",
          "name": "",
          "type": "address"
        }
      ],
      "name": "allowance",
      "outputs": [
        {
          "internalType": "uint256",
          "name": "",
          "type": "uint256"
        }
      ],
      "stateMutability": "view",
      "type": "function"
    },
    {
      "inputs": [
        {
          "internalType": "address",
          "name": "spender",
          "type": "address"
        },
        {
          "internalType": "uint256",
          "name": "value",
          "type": "uint256"
        }
      ],
      "name": "approve",
      "outputs": [
        {
          "internalType": "bool",
          "name": "",
          "type": "bool"
        }
      ],
      "stateMutability": "nonpayable",
      "type": "function"
    },
    {
      "inputs": [
        {
          "internalType": "address",
          "name": "",
          "type": "address"
        }
      ],
      "name": "balanceOf",
      "outputs": [
        {
          "internalType": "uint256",
          "name": "",
          "type": "uint256"
        }
      ],
      "stateMutability": "view",
      "type": "function"
    },
    {
      "inputs": [],
      "name": "decimals",
      "outputs": [
        {
          "internalType": "uint8",
          "name": "",
          "type": "uint8"
        }
      ],
      "stateMutability": "view",
      "type": "function"
    },
    {
      "inputs": [
        {
          "internalType": "address",
          "name": "to",
          "type": "address"
        },
        {
          "internalType": "uint256",
          "name": "value",
          "type": "uint256"
        }
      ],
      "name": "mint",
      "outputs": [],
      "stateMutability": "nonpayable",
      "type": "function"
    },
    {
      "inputs": [],
      "name": "name",
      "outputs": [
        {
          "internalType": "string",
          "name": "",
          "type": "string"
        }
      ],
      "stateMutability": "view",
      "type": "function"
    },
    {
      "inputs": [
        {
          "internalType": "address",
          "name": "owner",
          "type": "address"
        },
        {
          "internalType": "address",
          "name": "spender",
          "type": "address"
        },
        {
          "internalType": "uint256",
          "name": "value",
          "type": "uint256"
        },
        {
          "internalType": "uint256",
          "name": "deadline",
          "type": "uint256"
        },
        {
          "internalType": "uint8",
          "name": "v",
          "type": "uint8"
        },
        {
          "internalType": "bytes32",
          "name": "r",
          "type": "bytes32"
        },
        {
          "internalType": "bytes32",
          "name": "s",
          "type": "bytes32"
        }
      ],
      "name": "permit",
      "outputs": [],
      "stateMutability": "nonpayable",
      "type": "function"
    },
    {
      "inputs": [],
      "name": "symbol",
      "outputs": [
        {
          "internalType": "string",
          "name": "",
          "type": "string"
        }
      ],
      "stateMutability": "view",
      "type": "function"
    },
    {
      "inputs": [],
      "name": "totalSupply",
      "outputs": [
        {
          "internalType": "uint256",
          "name": "",
          "type": "uint256"
        }
      ],
      "stateMutability": "view",
      "type": "function"
    },
    {
      "inputs": [
        {
          "internalType": "address",
          "name": "to",
          "type": "address"
        },
        {
          "internalType": "uint256",
          "name": "value",
          "type": "uint256"
        }
      ],
      "name": "transfer",
      "outputs": [
        {
          "internalType": "bool",
          "name": "",
          "type": "bool"
        }
      ],
      "stateMutability": "nonpayable",
      "type": "function"
    },
    {
      "inputs": [
        {
          "internalType": "address",
          "name": "from",
          "type": "address"
        },
        {
          "internalType": "address",
          "name": "to",
          "type": "address"
        },
        {
          "internalType": "uint256",
          "name": "value",
          "type": "uint256"
        }
      ],
      "name": "transferFrom",
      "outputs": [
        {
          "internalType": "bool",
          "name": "",
          "type": "bool"
        }
      ],
      "stateMutability": "nonpayable",
      "type": "function"
    }
  ],
  "bytecode": {
    "object": "0x60c0604052600560809081526444756d6d7960d81b60a0526000906100249082610110565b5060408051808201909152600381526244554d60e81b602082015260019061004c9082610110565b506002805460ff19166012179055600060035534801561006b57600080fd5b506101cf565b634e487b7160e01b600052604160045260246000fd5b600181811c9082168061009b57607f821691505b6020821081036100bb57634e487b7160e01b600052602260045260246000fd5b50919050565b601f82111561010b57600081815260208120601f850160051c810160208610156100e85750805b601f850160051c820191505b81811015610107578281556001016100f4565b5050505b505050565b81516001600160401b0381111561012957610129610071565b61013d816101378454610087565b846100c1565b602080601f831160018114610172576000841561015a5750858301515b600019600386901b1c1916600185901b178555610107565b600085815260208120601f198616915b828110156101a157888601518255948401946001909101908401610182565b50858210156101bf5787850151600019600388901b60f8161c191681555b5050505050600190811b01905550565b610721806101de6000396000f3fe608060405234801561001057600080fd5b50600436106100a95760003560e01c806340c10f191161007157806340c10f191461013857806370a082311461014d57806395d89b411461016d578063a9059cbb14610175578063d505accf14610188578063dd62ed3e1461019f57600080fd5b806306fdde03146100ae578063095ea7b3146100cc57806318160ddd146100ef57806323b872dd14610106578063313ce56714610119575b600080fd5b6100b66101ca565b6040516100c391906104dd565b60405180910390f35b6100df6100da366004610547565b610258565b60405190151581526020016100c3565b6100f860035481565b6040519081526020016100c3565b6100df610114366004610571565b610287565b6002546101269060ff1681565b60405160ff90911681526020016100c3565b61014b610146366004610547565b6103c6565b005b6100f861015b3660046105ad565b60046020526000908152604090205481565b6100b6610410565b6100df610183366004610547565b61041d565b61014b6101963660046105cf565b50505050505050565b6100f86101ad366004610642565b600560209081526000928352604080842090915290825290205481565b600080546101d790610675565b80601f016020809104026020016040519081016040528092919081815260200182805461020390610675565b80156102505780601f1061022557610100808354040283529160200191610250565b820191906000526020600020905b81548152906001019060200180831161023357829003601f168201915b505050505081565b3360009081526005602090815260408083206001600160a01b0386168452909152902081905560015b92915050565b60008160000361029657600080fd5b6001600160a01b03841660009081526005602090815260408083203384529091529020548211156103055760405162461bcd60e51b81526020600482015260146024820152736e6f7420656e6f75676820616c6c6f77616e636560601b60448201526064015b60405180910390fd5b6001600160a01b0384166000908152600460205260409020548211156103625760405162461bcd60e51b81526020600482015260126024820152716e6f7420656e6f7567682062616c616e636560701b60448201526064016102fc565b6001600160a01b0384166000908152600460205260408120805484929061038a9084906106c5565b90915550506001600160a01b038316600090815260046020526040812080548492906103b79084906106d8565b90915550600195945050505050565b6001600160a01b038216600090815260046020526040812080548392906103ee9084906106d8565b92505081905550806003600082825461040791906106d8565b90915550505050565b600180546101d790610675565b60008160000361042f57506000610281565b336000908152600460205260409020548211156104835760405162461bcd60e51b81526020600482015260126024820152716e6f7420656e6f7567682062616c616e636560701b60448201526064016102fc565b33600090815260046020526040812080548492906104a29084906106c5565b90915550506001600160a01b038316600090815260046020526040812080548492906104cf9084906106d8565b909155506001949350505050565b600060208083528351808285015260005b8181101561050a578581018301518582016040015282016104ee565b506000604082860101526040601f19601f8301168501019250505092915050565b80356001600160a01b038116811461054257600080fd5b919050565b6000806040838503121561055a57600080fd5b6105638361052b565b946020939093013593505050565b60008060006060848603121561058657600080fd5b61058f8461052b565b925061059d6020850161052b565b9150604084013590509250925092565b6000602082840312156105bf57600080fd5b6105c88261052b565b9392505050565b600080600080600080600060e0888a0312156105ea57600080fd5b6105f38861052b565b96506106016020890161052b565b95506040880135945060608801359350608088013560ff8116811461062557600080fd5b9699959850939692959460a0840135945060c09093013592915050565b6000806040838503121561065557600080fd5b61065e8361052b565b915061066c6020840161052b565b90509250929050565b600181811c9082168061068957607f821691505b6020821081036106a957634e487b7160e01b600052602260045260246000fd5b50919050565b634e487b7160e01b600052601160045260246000fd5b81810381811115610281576102816106af565b80820180821115610281576102816106af56fea26469706673582212205fa8f7931f81685a3be639b294bded951ae796fd0259b7d7c5dfdb5eb0c792cc64736f6c63430008110033",
    "linkReferences": {}
  },
  "methodIdentifiers": {
    "allowance(address,address)": "dd62ed3e",
    "approve(address,uint256)": "095ea7b3",
    "balanceOf(address)": "70a08231",
    "decimals()": "313ce567",
    "mint(address,uint256)": "40c10f19",
    "name()": "06fdde03",
    "permit(address,address,uint256,uint256,uint8,bytes32,bytes32)": "d505accf",
    "symbol()": "95d89b41",
    "totalSupply()": "18160ddd",
    "transfer(address,uint256)": "a9059cbb",
    "transferFrom(address,address,uint256)": "23b872dd"
  },
  "id": 123
}