{
  "abi": [
    {
      "inputs": [],
      "name": "CancelCannotBeTrueWhenCreatingSimplePolicy",
      "type": "error"
    },
    {
      "inputs": [
        {
          "internalType": "address",
          "name": "previousSigner",
          "type": "address"
        },
        {
          "internalType": "address",
          "name": "nextSigner",
          "type": "address"
        }
      ],
      "name": "DuplicateSignerCreatingSimplePolicy",
      "type": "error"
    },
    {
      "inputs": [
        {
          "internalType": "bytes32",
          "name": "objectId",
          "type": "bytes32"
        }
      ],
      "name": "EntityDoesNotExist",
      "type": "error"
    },
    {
      "inputs": [
        {
          "internalType": "bytes32",
          "name": "objectId",
          "type": "bytes32"
        }
      ],
      "name": "MissingSymbolWhenEnablingTokenization",
      "type": "error"
    },
    {
      "inputs": [
        {
          "internalType": "bytes32",
          "name": "objectId",
          "type": "bytes32"
        }
      ],
      "name": "ObjectCannotBeTokenized",
      "type": "error"
    },
    {
      "inputs": [],
      "name": "OwnerCannotBeSystemAdmin",
      "type": "error"
    },
    {
      "inputs": [],
      "name": "PolicyIdCannotBeZero",
      "type": "error"
    },
    {
      "inputs": [],
      "name": "SimplePolicyClaimsPaidShouldStartAtZero",
      "type": "error"
    },
    {
      "inputs": [],
      "name": "SimplePolicyPremiumsPaidShouldStartAtZero",
      "type": "error"
    },
    {
      "inputs": [
        {
          "internalType": "bytes32",
          "name": "signingHash",
          "type": "bytes32"
        },
        {
          "internalType": "bytes",
          "name": "signature",
          "type": "bytes"
        },
        {
          "internalType": "bytes32",
          "name": "signerId",
          "type": "bytes32"
        },
        {
          "internalType": "bytes32",
          "name": "signersParent",
          "type": "bytes32"
        },
        {
          "internalType": "bytes32",
          "name": "entityId",
          "type": "bytes32"
        }
      ],
      "name": "SimplePolicyStakeholderSignatureInvalid",
      "type": "error"
    },
    {
      "inputs": [
        {
          "internalType": "uint256",
          "name": "utilizedCapacity",
          "type": "uint256"
        },
        {
          "internalType": "uint256",
          "name": "maxCapacity",
          "type": "uint256"
        }
      ],
      "name": "UtilizedCapacityGreaterThanMaxCapacity",
      "type": "error"
    },
    {
      "inputs": [
        {
          "internalType": "bytes32",
          "name": "_policyId",
          "type": "bytes32"
        },
        {
          "internalType": "bytes32",
          "name": "_entityId",
          "type": "bytes32"
        },
        {
          "components": [
            {
              "internalType": "bytes32[]",
              "name": "roles",
              "type": "bytes32[]"
            },
            {
              "internalType": "bytes32[]",
              "name": "entityIds",
              "type": "bytes32[]"
            },
            {
              "internalType": "bytes[]",
              "name": "signatures",
              "type": "bytes[]"
            }
          ],
          "internalType": "struct Stakeholders",
          "name": "_stakeholders",
          "type": "tuple"
        },
        {
          "components": [
            {
              "internalType": "uint256",
              "name": "startDate",
              "type": "uint256"
            },
            {
              "internalType": "uint256",
              "name": "maturationDate",
              "type": "uint256"
            },
            {
              "internalType": "bytes32",
              "name": "asset",
              "type": "bytes32"
            },
            {
              "internalType": "uint256",
              "name": "limit",
              "type": "uint256"
            },
            {
              "internalType": "bool",
              "name": "fundsLocked",
              "type": "bool"
            },
            {
              "internalType": "bool",
              "name": "cancelled",
              "type": "bool"
            },
            {
              "internalType": "uint256",
              "name": "claimsPaid",
              "type": "uint256"
            },
            {
              "internalType": "uint256",
              "name": "premiumsPaid",
              "type": "uint256"
            },
            {
              "internalType": "bytes32[]",
              "name": "commissionReceivers",
              "type": "bytes32[]"
            },
            {
              "internalType": "uint256[]",
              "name": "commissionBasisPoints",
              "type": "uint256[]"
            }
          ],
          "internalType": "struct SimplePolicy",
          "name": "_simplePolicy",
          "type": "tuple"
        },
        {
          "internalType": "bytes32",
          "name": "_dataHash",
          "type": "bytes32"
        }
      ],
      "name": "createSimplePolicy",
      "outputs": [],
      "stateMutability": "nonpayable",
      "type": "function"
    },
    {
      "inputs": [],
      "name": "domainSeparatorV4",
      "outputs": [
        {
          "internalType": "bytes32",
          "name": "",
          "type": "bytes32"
        }
      ],
      "stateMutability": "view",
      "type": "function"
    },
    {
      "inputs": [
        {
          "internalType": "bytes32",
          "name": "_objectId",
          "type": "bytes32"
        },
        {
          "internalType": "string",
          "name": "_symbol",
          "type": "string"
        },
        {
          "internalType": "string",
          "name": "_name",
          "type": "string"
        }
      ],
      "name": "enableEntityTokenization",
      "outputs": [],
      "stateMutability": "nonpayable",
      "type": "function"
    },
    {
      "inputs": [
        {
          "internalType": "bytes32",
          "name": "_entityId",
          "type": "bytes32"
        }
      ],
      "name": "getEntityInfo",
      "outputs": [
        {
          "components": [
            {
              "internalType": "bytes32",
              "name": "assetId",
              "type": "bytes32"
            },
            {
              "internalType": "uint256",
              "name": "collateralRatio",
              "type": "uint256"
            },
            {
              "internalType": "uint256",
              "name": "maxCapacity",
              "type": "uint256"
            },
            {
              "internalType": "uint256",
              "name": "utilizedCapacity",
              "type": "uint256"
            },
            {
              "internalType": "bool",
              "name": "simplePolicyEnabled",
              "type": "bool"
            }
          ],
          "internalType": "struct Entity",
          "name": "",
          "type": "tuple"
        }
      ],
      "stateMutability": "view",
      "type": "function"
    },
    {
      "inputs": [
        {
          "internalType": "bytes32",
          "name": "structHash",
          "type": "bytes32"
        }
      ],
      "name": "hashTypedDataV4",
      "outputs": [
        {
          "internalType": "bytes32",
          "name": "",
          "type": "bytes32"
        }
      ],
      "stateMutability": "view",
      "type": "function"
    },
    {
      "inputs": [
        {
          "internalType": "bytes32",
          "name": "_entityId",
          "type": "bytes32"
        }
      ],
      "name": "isTokenWrapped",
      "outputs": [
        {
          "internalType": "bool",
          "name": "",
          "type": "bool"
        }
      ],
      "stateMutability": "view",
      "type": "function"
    },
    {
      "inputs": [
        {
          "internalType": "bytes32",
          "name": "_entityId",
          "type": "bytes32"
        },
        {
          "internalType": "uint256",
          "name": "_amount",
          "type": "uint256"
        },
        {
          "internalType": "uint256",
          "name": "_totalPrice",
          "type": "uint256"
        }
      ],
      "name": "startTokenSale",
      "outputs": [],
      "stateMutability": "nonpayable",
      "type": "function"
    },
    {
      "inputs": [
        {
          "internalType": "bytes32",
          "name": "_entityId",
          "type": "bytes32"
        },
        {
          "components": [
            {
              "internalType": "bytes32",
              "name": "assetId",
              "type": "bytes32"
            },
            {
              "internalType": "uint256",
              "name": "collateralRatio",
              "type": "uint256"
            },
            {
              "internalType": "uint256",
              "name": "maxCapacity",
              "type": "uint256"
            },
            {
              "internalType": "uint256",
              "name": "utilizedCapacity",
              "type": "uint256"
            },
            {
              "internalType": "bool",
              "name": "simplePolicyEnabled",
              "type": "bool"
            }
          ],
          "internalType": "struct Entity",
          "name": "_updateEntity",
          "type": "tuple"
        }
      ],
      "name": "updateEntity",
      "outputs": [],
      "stateMutability": "nonpayable",
      "type": "function"
    }
  ],
  "bytecode": {
    "object": "0x608060405234801561001057600080fd5b506150ef806100206000396000f3fe608060405234801561001057600080fd5b50600436106100885760003560e01c806378e890ba1161005b57806378e890ba146100fe578063a2e4569b14610106578063edd2133b14610119578063f17d17f41461017057600080fd5b806304e2e5001461008d57806310b4955d146100a25780634980f288146100ca57806373abdfa5146100eb575b600080fd5b6100a061009b3660046146a1565b610183565b005b6100b56100b036600461472e565b610272565b60405190151581526020015b60405180910390f35b6100dd6100d836600461472e565b610283565b6040519081526020016100c1565b6100a06100f9366004614747565b61028e565b6100dd6102c6565b6100a061011436600461477f565b6102d5565b61012c61012736600461472e565b610418565b6040516100c19190600060a0820190508251825260208301516020830152604083015160408301526060830151606083015260808301511515608083015292915050565b6100a061017e36600461484e565b61044c565b6101de6101a16101916104e1565b60601b6001600160601b03191690565b6101a961053d565b6101d96040518060400160405280600f81526020016e53797374656d204d616e616765727360881b815250610562565b61056d565b6102035760405162461bcd60e51b81526004016101fa906148bb565b60405180910390fd5b8361020d8161063a565b6080015161025d5760405162461bcd60e51b815260206004820152601f60248201527f73696d706c6520706f6c696379206372656174696f6e2064697361626c65640060448201526064016101fa565b61026a86868686866106c5565b505050505050565b600061027d82610dbb565b92915050565b600061027d82610de6565b61029c6101a16101916104e1565b6102b85760405162461bcd60e51b81526004016101fa906148bb565b6102c28282610e34565b5050565b60006102d0611124565b905090565b6000356001600160e01b031916610324816001600160e01b03191660009081527f47f677dbe524b93b2c36e6f8027a75c4906479c31df070fdbea83211f1a26050602052604090205460ff1690565b156103665760405162461bcd60e51b8152602060048201526012602482015271199d5b98dd1a5bdb881a5cc81b1bd8dad95960721b60448201526064016101fa565b6002610370611155565b60030154036103c15760405162461bcd60e51b815260206004820152601f60248201527f5265656e7472616e637947756172643a207265656e7472616e742063616c6c0060448201526064016101fa565b60026103cb611155565b600301556103dd6101a16101916104e1565b6103f95760405162461bcd60e51b81526004016101fa906148bb565b610404848484611179565b600161040e611155565b6003015550505050565b6040805160a08101825260008082526020820181905291810182905260608101829052608081019190915261027d8261063a565b61049061045a6101916104e1565b61046261053d565b6101d96040518060400160405280600d81526020016c53797374656d2041646d696e7360981b815250610562565b6104d15760405162461bcd60e51b81526020600482015260126024820152713737ba10309039bcb9ba32b69030b236b4b760711b60448201526064016101fa565b6104dc8383836113a7565b505050565b600030330361053757600080368080601f0160208091040260200160405190810160405280939291908181526020018383808284376000920191909152505050503601516001600160a01b0316915061053a9050565b50335b90565b60006102d06040518060400160405280600681526020016553797374656d60d01b8152505b600061027d82611548565b600080610578611155565b6000868152601f82016020908152604080832088845290915290205490915080158015906105c157506000818152601d83016020908152604080832087845290915290205460ff165b156105cf5760019250610631565b6000868152601f830160205260408120816105e861053d565b81526020810191909152604001600020549050801580159061062557506000818152601d84016020908152604080832088845290915290205460ff165b1561062f57600193505b505b50509392505050565b6040805160a08101825260008082526020820181905291810182905260608101829052608081018290529061066d611155565b60009384526011016020908152604093849020845160a081018652815481526001820154928101929092526002810154948201949094526003840154606082015260049093015460ff16151560808401525090919050565b60008590036106e75760405163083191a360e41b815260040160405180910390fd5b60006106f1611155565b6000868152600f8201602052604090205490915060ff166107285760405163e1f8801360e01b8152600481018690526024016101fa565b61073560408501856148e9565b905061074460208601866148e9565b9050146107935760405162461bcd60e51b815260206004820152601e60248201527f696e636f7272656374206e756d626572206f66207369676e617475726573000060448201526064016101fa565b6000868152601282016020526040902083906107af8282614aa0565b9050508060120160008781526020019081526020016000206007016107f46040518060400160405280600981526020016813985e5b5cc8131d1960ba1b815250610562565b815460018101835560009283526020808420909101919091558782526012830181526040918290208251808401909352600383526227222360e91b918301919091526007019061084390610562565b81546001810183556000928352602080842090910191909155878252601283018152604091829020825180840190935260118352705374616b696e67204d656368616e69736d60781b91830191909152600701906108a090610562565b81546001818101845560009384526020808520909201929092558883526012840181526040808420602686018054600883018054808801825581895286892061ffff600160501b90940484169181019190915583548254808a018455600160601b90910484169082015592548154808901909255600160701b9004909116910155938a905280516101408101825284548152928401548383015260028401548382015260038401546060840152600484015460ff808216151560808601526101009182900416151560a0850152600585015460c0850152600685015460e0850152600785018054835181860281018601909452808452610a3c968c96959094938601939291908301828280156109d557602002820191906000526020600020905b8154815260200190600101908083116109c1575b5050505050815260200160088201805480602002602001604051908101604052809291908181526020018280548015610a2d57602002820191906000526020600020905b815481526020019060010190808311610a19575b50505050508152505086611563565b60008581526011820160205260408120600181015490919061271090610a66906060880135614964565b610a709190614b67565b905080826003016000828254610a869190614b89565b9091555050600087815260278401602090815260408083208554845290915281208054839290610ab7908490614b89565b9091555060009050610ad986356020880135604089013560608a013589611b05565b9050610ae6898983611b80565b60008981526012850160205260408120600401805460ff19166001179055610b0e88806148e9565b9050905060008060005b83811015610d5557829150610be6610b7d866040517f19457468657265756d205369676e6564204d6573736167653a0a3332000000006020820152603c8101829052600090605c01604051602081830303815290604052805190602001209050919050565b610b8a60408e018e6148e9565b84818110610b9a57610b9a614b9c565b9050602002810190610bac9190614bb2565b8080601f016020809104026020016040519081016040528093929190818152602001838380828437600092019190915250611c3e92505050565b9250826001600160a01b0316826001600160a01b031610610c2d5760405163d953cdd960e01b81526001600160a01b038084166004830152841660248201526044016101fa565b610c3a60208c018c6148e9565b82818110610c4a57610c4a614b9c565b90506020020135610c5a84611c62565b14610cf25784610c6d60408d018d6148e9565b83818110610c7d57610c7d614b9c565b9050602002810190610c8f9190614bb2565b610ca38660601b6001600160601b03191690565b610cac87611c62565b8f8060200190610cbc91906148e9565b87818110610ccc57610ccc614b9c565b9050602002013560405163ed7dd8af60e01b81526004016101fa96959493929190614bf9565b610d43610d0260208d018d6148e9565b83818110610d1257610d12614b9c565b602002919091013590508e610d278e806148e9565b85818110610d3757610d37614b9c565b90506020020135611c9e565b80610d4d81614c47565b915050610b18565b5060008c815260108801602052604090819020805460ff19166001179055518c907f56eae0275a21a12b30f91b02a57d763a8da5067e40cc082e5d2717e56a2aea2090610da5908e815260200190565b60405180910390a2505050505050505050505050565b600080610dc6611155565b6000938452600e01602052505060409020546001600160a01b0316151590565b600061027d610df3611124565b8360405161190160f01b6020820152602281018390526042810182905260009060620160405160208183030381529060405280519060200120905092915050565b6000610e3e611155565b6000848152600f8201602052604090205490915060ff16610e755760405163e1f8801360e01b8152600481018490526024016101fa565b610e7e82611f70565b6000838152601182016020526040902060018101546003820154915490919084358114610eed5760405162461bcd60e51b815260206004820152601a60248201527f61737365744964206368616e6765206e6f7420616c6c6f77656400000000000060448201526064016101fa565b60008681526011850160205260409081902090860135600290910155610f1960a0860160808701614c60565b60008781526011860160205260409020600401805460ff19169115159190911790558015801590610f4e575082856020013514155b156110f157600083610f64602088013585614964565b610f6e9190614b67565b60008881526027870160209081526040808320868452909152812054919250908290610f9b908690614c84565b610fa59190614b89565b905080610fb289856121e1565b10156110155760405162461bcd60e51b815260206004820152602c60248201527f636f6c6c61746572616c20726174696f20696e76616c69642c206e6f7420656e60448201526b6f7567682062616c616e636560a01b60648201526084016101fa565b866040013582111561107b5760405162461bcd60e51b815260206004820152602960248201527f6d6178206361706163697479206d757374206265203e3d207574696c697a656460448201526820636170616369747960b81b60648201526084016101fa565b600088815260118701602090815260408083208a83013560018201819055600390910186905560278a018352818420878552835292819020849055805192835290820184905289917f859dcf182c6cdb0b87490f406c38a81a37e53defb3f5f9e20d5525ae9757a700910160405180910390a250505b60405186907fad70f6507f1aeb0fd1f13346cb14180cc3c76c7a31441dcd28a5e1b78c6f7a7390600090a2505050505050565b60008061112f611155565b9050806001015446146111495761114461220b565b61114f565b80600201545b91505090565b7f1ab5ce5b595c6e94c5fba2e588bf4eafa8b384a4fb6e188b892768e695c1bfc790565b600082116111c95760405162461bcd60e51b815260206004820152601760248201527f6d696e7420616d6f756e74206d757374206265203e203000000000000000000060448201526064016101fa565b600081116112195760405162461bcd60e51b815260206004820152601760248201527f746f74616c207072696365206d757374206265203e203000000000000000000060448201526064016101fa565b611222836122b3565b6112645760405162461bcd60e51b81526020600482015260136024820152726d75737420626520746f6b656e697a61626c6560681b60448201526064016101fa565b600061126e611155565b6000858152600f8201602052604090205490915060ff166112a55760405163e1f8801360e01b8152600481018590526024016101fa565b6112ae846122b3565b6112ce57604051639262bf2960e01b8152600481018590526024016101fa565b6000848152601182016020908152604091829020825160a081018452815481526001820154928101929092526002810154928201929092526003820154606082015260049091015460ff161515608082015261132b8580866122e7565b6000611340868787856000015188600161249d565b50506000878152600c850160209081526040808320600d880190925291829020915192935088927f1e0fe2db2ce2d56ef315966bafe53189281e5297e62c10199727acdc3b547f7e92611397928692909190614d4e565b60405180910390a2505050505050565b60006113b1611155565b905082516000036113d857604051633276fee960e11b8152600481018590526024016101fa565b6000848152600f8201602052604090205460ff1661140c5760405163e1f8801360e01b8152600481018590526024016101fa565b611415846122b3565b156114625760405162461bcd60e51b815260206004820152601860248201527f6f626a65637420616c726561647920746f6b656e697a6564000000000000000060448201526064016101fa565b60108351106114c25760405162461bcd60e51b815260206004820152602660248201527f73796d626f6c206d757374206265206c657373207468616e203136206368617260448201526561637465727360d01b60648201526084016101fa565b600082511161150c5760405162461bcd60e51b81526020600482015260166024820152756e616d65206d757374206e6f7420626520656d70747960501b60448201526064016101fa565b6000848152600c8201602052604090206115268482614db2565b506000848152600d8201602052604090206115418382614db2565b5050505050565b6000815160000361155b57506000919050565b506020015190565b60008260600151116115a75760405162461bcd60e51b815260206004820152600d60248201526c06c696d6974206e6f74203e203609c1b60448201526064016101fa565b6115b48260400151612529565b6115d05760405162461bcd60e51b81526004016101fa90614e72565b60c0820151156115f35760405163c96caacd60e01b815260040160405180910390fd5b60e08201511561161657604051632696d55d60e11b815260040160405180910390fd5b8160a0015115611639576040516313b4184f60e31b815260040160405180910390fd5b6000611643611155565b6000858152601182016020908152604091829020825160a08101845281548152600182015492810192909252600281015482840152600381015460608301526004015460ff161515608082015290850151919250906116a190612529565b6116bd5760405162461bcd60e51b81526004016101fa90614e72565b80516040850151146117115760405162461bcd60e51b815260206004820152601e60248201527f6173736574206e6f74206d61746368696e67207769746820656e74697479000060448201526064016101fa565b60006127108260200151866060015161172a9190614964565b6117349190614b67565b82606001516117439190614b89565b905080826040015110156117995760405162461bcd60e51b815260206004820152601d60248201527f6e6f7420656e6f75676820617661696c61626c6520636170616369747900000060448201526064016101fa565b806117a88787604001516121e1565b10156117eb5760405162461bcd60e51b81526020600482015260126024820152711b9bdd08195b9bdd59da0818d85c1a5d185b60721b60448201526064016101fa565b845142111561183c5760405162461bcd60e51b815260206004820152601c60248201527f73746172742064617465203c20626c6f636b2e74696d657374616d700000000060448201526064016101fa565b84516020860151116118905760405162461bcd60e51b815260206004820152601c60248201527f73746172742064617465203e206d617475726174696f6e20646174650000000060448201526064016101fa565b8451602086015162015180916118a591614c84565b116119005760405162461bcd60e51b815260206004820152602560248201527f706f6c69637920706572696f64206d757374206265206d6f7265207468616e20604482015264612064617960d81b60648201526084016101fa565b61010085015151600381116119575760405162461bcd60e51b815260206004820152601e60248201527f6d757374206861766520636f6d6d697373696f6e20726563656976657273000060448201526064016101fa565b61012086015151600381116119b85760405162461bcd60e51b815260206004820152602160248201527f6d757374206861766520636f6d6d697373696f6e20626173697320706f696e746044820152607360f81b60648201526084016101fa565b808214611a005760405162461bcd60e51b8152602060048201526016602482015275636f6d6d697373696f6e73206c656e6774687320213d60501b60448201526064016101fa565b6000805b82811015611a48578861012001518181518110611a2357611a23614b9c565b602002602001015182611a369190614b89565b9150611a4181614c47565b9050611a04565b50612710811115611a925760405162461bcd60e51b8152602060048201526014602482015273062702063616e6e6f74206265203e2031303030360641b60448201526064016101fa565b611a9f60208801886148e9565b9050611aab88806148e9565b905014611afa5760405162461bcd60e51b815260206004820152601b60248201527f7374616b65686f6c6465727320726f6c6573206d69736d61746368000000000060448201526064016101fa565b505050505050505050565b604080517f0d40926ea0fad01711c674b0c53bbf6604490695a7201d351f27085bd6747be56020820152908101869052606081018590526080810184905260a0810183905260c08101829052600090611b769060e00160405160208183030381529060405280519060200120610de6565b9695505050505050565b6000611b8a611155565b600085815260098201602052604090205490915060ff1615611c075760405162461bcd60e51b815260206004820152603060248201527f6f626a656374496420697320616c7265616479206265696e672075736564206260448201526f1e48185b9bdd1a195c881bd89a9958dd60821b60648201526084016101fa565b60009384526009810160209081526040808620805460ff19166001179055600a8301825280862094909455600b9091019052912055565b6000806000611c4d8585612569565b91509150611c5a816125ae565b509392505050565b600080611c6d611155565b90506000611c858460601b6001600160601b03191690565b6000908152600a90920160205250604090205492915050565b6000611ca8611155565b905083600003611cee5760405162461bcd60e51b81526020600482015260116024820152701a5b9d985b1a59081bd89a9958dd081251607a1b60448201526064016101fa565b82600003611d335760405162461bcd60e51b81526020600482015260126024820152711a5b9d985b1a590818dbdb9d195e1d08125160721b60448201526064016101fa565b81600003611d755760405162461bcd60e51b815260206004820152600f60248201526e1a5b9d985b1a59081c9bdb19481251608a1b60448201526064016101fa565b6000848152601f820160209081526040808320868452825291829020548251808401909352600c83526b29bcb9ba32b69020b236b4b760a11b9183019190915290611dbf90610562565b81148015611dcd5750828114155b15611e3257600182602a015411611e325760405162461bcd60e51b815260206004820152602360248201527f6d7573742068617665206174206c65617374206f6e652073797374656d20616460448201526236b4b760e91b60648201526084016101fa565b611e3a61053d565b84148015611e735750611e706040518060400160405280600c81526020016b29bcb9ba32b69020b236b4b760a11b815250610562565b83145b15611eee57611e81856126f8565b6001600160a01b0316611ebb7fc8fcad8db84d3cc18b4c41d551ea0ee66dd599cde068d998e57d5e09332c1320546001600160a01b031690565b6001600160a01b031603611ee257604051633fb6eaed60e11b815260040160405180910390fd5b602a8201805460010190555b6000858152601f83016020908152604080832087845282529182902085905581518681529081018590526060818301819052600b908201526a5f61737369676e526f6c6560a81b6080820152905186917fe084640a30256726ae800352d16104f622b1744c561cad2d04e14cec8b490ee8919081900360a00190a25050505050565b8035156120e057611f818135612529565b611f9d5760405162461bcd60e51b81526004016101fa90614e72565b8060200135600111158015611fb85750612710816020013511155b6120125760405162461bcd60e51b815260206004820152602560248201527f636f6c6c61746572616c20726174696f2073686f756c64206265203120746f20604482015264031303030360dc1b60648201526084016101fa565b61202260a0820160808301614c60565b1580612032575060008160400135115b6120a45760405162461bcd60e51b815260206004820152603960248201527f6d61782063617061636974792073686f756c642062652067726561746572207460448201527f68616e203020666f7220706f6c696379206372656174696f6e0000000000000060648201526084016101fa565b8060400135816060013511156120dd5760408051630102498560e11b8152606083013560048201529082013560248201526044016101fa565b50565b6020810135156121325760405162461bcd60e51b815260206004820152601e60248201527f6f6e6c792063656c6c2068617320636f6c6c61746572616c20726174696f000060448201526064016101fa565b61214260a0820160808301614c60565b1561218f5760405162461bcd60e51b815260206004820152601c60248201527f6f6e6c792063656c6c2063616e20697373756520706f6c69636965730000000060448201526064016101fa565b6040810135156120dd5760405162461bcd60e51b815260206004820152601c60248201527f6f6e6c792063656c6c732068617665206d61782063617061636974790000000060448201526064016101fa565b6000806121ec611155565b6000938452601501602090815260408085209585529490525050205490565b600080612216611155565b90507f8b73c3c69bb8fe3d512ecc4cf759cc79239f7b179b0ffacaa9a75d522b39400f8160040160405161224a9190614ea9565b6040805191829003822060208301939093528101919091527fc89efdaa54c0f20c7adf612882df0950f5a951637e0307cdcb4c672f298b8bc660608201524660808201523060a082015260c0016040516020818303038152906040528051906020012091505090565b6000806122be611155565b6000848152600c8201602052604090208054919250906122dd90614c97565b1515949350505050565b826000036123435760405162461bcd60e51b815260206004820152602360248201527f5f696e7465726e616c4d696e743a206d696e7420746f207a65726f206164647260448201526265737360e81b60648201526084016101fa565b600081116123935760405162461bcd60e51b815260206004820152601f60248201527f5f696e7465726e616c4d696e743a206d696e74207a65726f20746f6b656e730060448201526064016101fa565b600061239d611155565b90506123ae6000858585600161275d565b6000838152601682016020526040812080548492906123ce908490614b89565b909155505060008381526015820160209081526040808320878452909152812080548492906123fe908490614b89565b909155505060008381526016820160205260409081902054905184917fb265507be3deb826a9f1ee89ff597f0214103a39d059c667755462fb004475509161244891903390614f1f565b60405180910390a26000838152601582016020908152604080832087845290915290819020549051859160008051602061509a8339815191529161248f9187913390614f69565b60405180910390a250505050565b60008060006124b0898989898989612926565b60006124bf8a8a8a8a8a612d1c565b905080604001519250806060015191506124e78a8a83602001518b8b86600001518c8c612fa7565b935060006124f3611155565b60008681526021820160205260409020600801549091506000190161251b5761251b856131cc565b505096509650969350505050565b600080612534611155565b9050806013016000612545856126f8565b6001600160a01b0316815260208101919091526040016000205460ff169392505050565b600080825160410361259f5760208301516040840151606085015160001a61259387828585613351565b945094505050506125a7565b506000905060025b9250929050565b60008160048111156125c2576125c2614fba565b036125ca5750565b60018160048111156125de576125de614fba565b0361262b5760405162461bcd60e51b815260206004820152601860248201527f45434453413a20696e76616c6964207369676e6174757265000000000000000060448201526064016101fa565b600281600481111561263f5761263f614fba565b0361268c5760405162461bcd60e51b815260206004820152601f60248201527f45434453413a20696e76616c6964207369676e6174757265206c656e6774680060448201526064016101fa565b60038160048111156126a0576126a0614fba565b036120dd5760405162461bcd60e51b815260206004820152602260248201527f45434453413a20696e76616c6964207369676e6174757265202773272076616c604482015261756560f01b60648201526084016101fa565b60006bffffffffffffffffffffffff8216156127565760405162461bcd60e51b815260206004820152601e60248201527f496e76616c69642065787465726e616c20746f6b656e2061646472657373000060448201526064016101fa565b5060601c90565b6000612767611155565b9050600061277485613415565b60008681526018840160209081526040808320805482518185028101850190935280835294955092939092918301828280156127cf57602002820191906000526020600020905b8154815260200190600101908083116127bb575b5050505050905060005b8151811015611afa5760008282815181106127f6576127f6614b9c565b60209081029190910181015160008a8152601b880183526040808220838352909352918220549092509061282c89878484613435565b60008b8152601c89016020908152604080832087845282528083208f8452909152812080549293508392909190612864908490614b89565b90915550508b156128a85760008a8152601c88016020908152604080832086845282528083208f8452909152812080548392906128a2908490614c84565b90915550505b87156129125760008a8152601b88016020908152604080832086845290915290205486906128d7908b90614964565b6128e19190614b67565b60008b8152601b8901602090815260408083208784529091528120805490919061290c908490614b89565b90915550505b5050508061291f90614c47565b90506127d9565b6000612930611155565b9050861580159061295157506000878152600f8201602052604090205460ff165b6129ae5760405162461bcd60e51b815260206004820152602860248201527f6f66666572206d757374206265206d61646520627920616e206578697374696e6044820152676720656e7469747960c01b60648201526084016101fa565b6000868152600f8201602052604081205460ff169060138301816129d18a6126f8565b6001600160a01b031681526020808201929092526040908101600090812054898252600f87019093529081205460ff9283169350909116906013850181612a178a6126f8565b6001600160a01b0316815260208101919091526040016000205460ff169050612a408988613485565b8380612a495750825b612a955760405162461bcd60e51b815260206004820152601860248201527f73656c6c20746f6b656e206d7573742062652076616c6964000000000000000060448201526064016101fa565b8180612a9e5750805b612aea5760405162461bcd60e51b815260206004820152601760248201527f62757920746f6b656e206d7573742062652076616c696400000000000000000060448201526064016101fa565b878a03612b395760405162461bcd60e51b815260206004820152601e60248201527f63616e6e6f742073656c6c20616e64206275792073616d6520746f6b656e000060448201526064016101fa565b838015612b435750805b80612b535750828015612b535750815b612bbe5760405162461bcd60e51b815260206004820152603660248201527f6d757374206265206f6e652070617274696369706174696f6e20746f6b656e2060448201527530b7321037b7329032bc3a32b93730b6103a37b5b2b760511b60648201526084016101fa565b60008a815260158601602090815260408083208e8452909152902054891115612c205760405162461bcd60e51b8152602060048201526014602482015273696e73756666696369656e742062616c616e636560601b60448201526064016101fa565b60008b815260278601602090815260408083208d84528252808320546015890183528184208f8552909252909120548a91612c5a91614c84565b1015612cbd5760405162461bcd60e51b815260206004820152602c60248201527f696e73756666696369656e742062616c616e636520617661696c61626c652c2060448201526b199d5b991cc81b1bd8dad95960a21b60648201526084016101fa565b6002861480612ccc5750600186145b612d0f5760405162461bcd60e51b8152602060048201526014602482015273199959481cd8da19591d5b19481a5b9d985b1a5960621b60448201526064016101fa565b5050505050505050505050565b612d476040518060800160405280600081526020016000815260200160008152602001600081525090565b6000612d51611155565b83835260208301869052905060006013820181612d6d876126f8565b6001600160a01b0316815260208101919091526040016000205460ff1690505b602083015115801590612da757508080612da75750825115155b15612f9c57600085815260228301602090815260408083208a845290915281205490819003612dd65750612f9c565b60008181526021840160209081526040909120600581015460029091015491860151909190612e059082614964565b8651612e119084614964565b1115612e1f57505050612f9c565b6000808515612ec957602080890151600087815260218a0190925260409091206005015410612e52578760200151612e67565b60008581526021880160205260409020600501545b60008681526021890160205260409020600581015460029091015491935090612e909084614964565b612e9a9190614b67565b90506000612eab868f84868b6135ce565b90508089604001818151612ebf9190614b89565b905250612f5d9050565b8751600086815260218901602052604090206002015410612eeb578751612f00565b60008581526021880160205260409020600201545b60008681526021890160205260409020600281015460059091015491925090612f299083614964565b612f339190614b67565b91506000612f44868f84868b6135ce565b90508089606001818151612f589190614b89565b905250505b8188602001818151612f6f9190614c84565b90525087518111612f8c578751612f87908290614c84565b612f8f565b60005b885250612d8d9350505050565b505095945050505050565b600080612fb2611155565b905060008160200160008154612fc790614c47565b919050819055905061303560405180610160016040528060008019168152602001600080191681526020016000815260200160008152602001600080191681526020016000815260200160008152602001600081526020016000815260200160008152602001600081525090565b8b8152602081018b9052604081018a9052606081018990526080810188905260a0810187905260c0810186905260e081018590526001871080613078575060018a105b1561308a5760036101008201526130c3565b600161010082015260008c815260278401602090815260408083208e8452909152812080548c92906130bd908490614b89565b90915550505b80836021016000848152602001908152602001600020600082015181600001556020820151816001015560408201518160020155606082015181600301556080820151816004015560a0820151816005015560c0820151816006015560e082015181600701556101008201518160080155610120820151816009015561014082015181600a01559050508a8160000151837fb5cf98fe77c5b4c06e3bb6a62e9589418ff5d382b8da474d04cdc38e223a18d18d8d8d8d8d8961010001516040516131b596959493929190958652602086019490945260408501929092526060840152608083015260a082015260c00190565b60405180910390a4509a9950505050505050505050565b60006131d6611155565b90506131e1826137a8565b1561322e5760405162461bcd60e51b815260206004820152601c60248201527f6f6666657220616c726561647920696e20736f72746564206c6973740000000060448201526064016101fa565b60008281526021820160209081526040808320600181015460049091015481855260228601845282852081865290935290832054909290815b811580159061327b575061327b878361383d565b1561329b575060008181526021860160205260409020600a015490613267565b8080156132ce576000818152602188016020526040808220600a018054908b90558a8352912060090182905593506132f2565b60008681526022880160209081526040808320888452909152902080549089905593505b831561331b5760008481526021880160205260408082206009018a90558982529020600a018490555b60008681526023880160209081526040808320888452909152812080549161334283614c47565b91905055505050505050505050565b6000807f7fffffffffffffffffffffffffffffff5d576e7357a4501ddfe92f46681b20a0831115613388575060009050600361340c565b6040805160008082526020820180845289905260ff881692820192909252606081018690526080810185905260019060a0016020604051602081039080840390855afa1580156133dc573d6000803e3d6000fd5b5050604051601f1901519150506001600160a01b0381166134055760006001925092505061340c565b9150600090505b94509492505050565b600080613420611155565b60009384526016016020525050604090205490565b6000806134428685614964565b90506000851561345b576134568683614b67565b61345e565b60005b905080841015613477576134728482614c84565b61347a565b60005b979650505050505050565b6001600160801b038211156134e65760405162461bcd60e51b815260206004820152602160248201527f73656c6c20616d6f756e7420657863656564732075696e74313238206c696d696044820152601d60fa1b60648201526084016101fa565b6001600160801b0381111561353d5760405162461bcd60e51b815260206004820181905260248201527f62757920616d6f756e7420657863656564732075696e74313238206c696d697460448201526064016101fa565b600082116135865760405162461bcd60e51b8152602060048201526016602482015275073656c6c20616d6f756e74206d757374206265203e360541b60448201526064016101fa565b600081116102c25760405162461bcd60e51b8152602060048201526015602482015274062757920616d6f756e74206d757374206265203e3605c1b60448201526064016101fa565b6000806135d9611155565b90506135e687868661389d565b60008781526021820160205260409020600701546000190161365c5782156136345760008781526021820160205260409020805460019091015461362d91908890886139c2565b915061365c565b60008781526021820160205260409020805460049091015461365991908890876139c2565b91505b6000878152602182016020908152604080832080548452602785018352818420600190910154845290915281208054879290613699908490614c84565b90915550506000878152602182016020526040902080546001909101546136c39190889088613bf6565b506000878152602182016020526040902080546004909101546136e891889187613bf6565b506000878152602182016020526040902060020154600111156137265760008781526021820160205260409020600360089091015561372687613e40565b6000878152602182016020908152604091829020600181015460028201546004830154600584015460089094015486519283529482015293840191909152606083019190915290879089907ff6cd95e7491084abac93a47460beaee4f922948104ea1fe7e3fc7e4481c3fce49060800160405180910390a45095945050505050565b6000806137b3611155565b6000848152602182016020526040902060018101546004909101549192509084158015906138345750600085815260218401602052604090206009015415158061380f575060008581526021840160205260409020600a015415155b8061383457506000828152602284016020908152604080832084845290915290205485145b95945050505050565b600080613848611155565b6000858152602182016020526040808220600280820154600592830154898652939094209081015491015493945091929091906138858482614964565b61388f8385614964565b101598975050505050505050565b60006138a7611155565b90506000806138b586613fa2565b915091506138c38585613485565b80602001518411156139175760405162461bcd60e51b815260206004820152601e60248201527f7265717565737465642062757920616d6f756e7420746f6f206c61726765000060448201526064016101fa565b816020015185111561396b5760405162461bcd60e51b815260206004820181905260248201527f63616c63756c617465642073656c6c20616d6f756e7420746f6f206c6172676560448201526064016101fa565b84826020015161397b9190614c84565b60008781526021850160209081526040909120600201919091558101516139a3908590614c84565b6000968752602190930160205250506040909320600501929092555050565b6000806139cd611155565b602681015490915061271061ffff9091161115613a365760405162461bcd60e51b815260206004820152602160248201527f636f6d6d697373696f6e20746f74616c206d7573742062653c3d3130303030626044820152600760fc1b60648201526084016101fa565b60268101546127109061ffff600160401b820481169166010000000000008104821691613a759164010000000081048216916201000090910416614fd0565b613a7f9190614fd0565b613a899190614fd0565b61ffff161115613adb5760405162461bcd60e51b815260206004820152601d60248201527f636f6d6d697373696f6e732073756d206f76657220313030303020627000000060448201526064016101fa565b6000613ae684614018565b9050613b2186613b166040518060400160405280600981526020016813985e5b5cc8131d1960ba1b815250610562565b878460200151613bf6565b50613b5586613b4a6040518060400160405280600381526020016227222360e91b815250610562565b878460400151613bf6565b50613b9786613b8c604051806040016040528060118152602001705374616b696e67204d656368616e69736d60781b815250610562565b878460600151613bf6565b50613ba88688878460800151613bf6565b5060a0810151604080518781526020810183905291945087917f8b95974c6b09572b97a218c031984bc5fea45144a012bb6e7fcf5a45f278d532910160405180910390a25050949350505050565b600080613c01611155565b600085815260158201602090815260408083208a8452909152902054909150831115613c7f5760405162461bcd60e51b815260206004820152602760248201527f5f696e7465726e616c5472616e736665723a20696e73756666696369656e742060448201526662616c616e636560c81b60648201526084016101fa565b600086815260278201602090815260408083208784528252808320546015850183528184208a8552909252909120548491613cb991614c84565b1015613d2d5760405162461bcd60e51b815260206004820152603f60248201527f5f696e7465726e616c5472616e736665723a20696e73756666696369656e742060448201527f62616c616e636520617661696c61626c652c2066756e6473206c6f636b65640060648201526084016101fa565b613d378685614176565b6000848152601582016020908152604080832089845290915281208054859290613d62908490614c84565b90915550506000848152601582016020908152604080832088845290915281208054859290613d92908490614b89565b90915550613da6905086868686600061275d565b6000848152601582016020908152604080832089845290915290819020549051879160008051602061509a83398151915291613de59188913390614ff2565b60405180910390a26000848152601582016020908152604080832088845290915290819020549051869160008051602061509a83398151915291613e2c9188913390614ff2565b60405180910390a250600195945050505050565b6000613e4a611155565b9050613e55826137a8565b15613e6357613e6382614222565b60008281526021820160209081526040918290208251610160810184528154815260018201549281019290925260028101549282018390526003810154606083015260048101546080830152600581015460a0830152600681015460c0830152600781015460e083015260088101546101008301526009810154610120830152600a01546101408201529015613f3b5760408082015160008581526021850160209081528382208054835260278701825284832060019091015483529052918220805491929091613f35908490614c84565b90915550505b6003816101000151146104dc576000838152602183016020908152604091829020600260089091015582518382015192519283529185917fc5ccc63c607b224c3650887a47d3852b5acbc0d610aa5ee44c108c042cce8631910160405180910390a3505050565b604080518082019091526000808252602082015260408051808201909152600080825260208201526000613fd4611155565b600085815260219091016020818152604083206001810154875260028101548783015260048101548652969092528152600590940154938201939093529092909150565b6140516040518060c001604052806000815260200160008152602001600081526020016000815260200160008152602001600081525090565b600061405b611155565b60268101549091506127109061407690859061ffff16614964565b6140809190614b67565b80835260268201546127109161409f9162010000900461ffff16614964565b6140a99190614b67565b602083015281516026820154612710916140ce91640100000000900461ffff16614964565b6140d89190614b67565b604083015281516026820154612710916140ff916601000000000000900461ffff16614964565b6141099190614b67565b6060830152815160268201546127109161412d91600160401b900461ffff16614964565b6141379190614b67565b608083018190526060830151604084015160208501516141579190614b89565b6141619190614b89565b61416b9190614b89565b60a083015250919050565b6000614180611155565b60008381526018820160209081526040808320805482518185028101850190935280835294955092939092918301828280156141db57602002820191906000526020600020905b8154815260200190600101908083116141c7575b5050505050905060005b815181101561154157614212858584848151811061420557614205614b9c565b60200260200101516144b8565b61421b81614c47565b90506141e5565b600061422c611155565b9050614237826137a8565b6142835760405162461bcd60e51b815260206004820152601860248201527f6f66666572206e6f7420696e20736f72746564206c697374000000000000000060448201526064016101fa565b6000828152602182016020908152604080832060018101546004909101548185526023860184528285208186529093529220546143025760405162461bcd60e51b815260206004820152601e60248201527f746f6b656e2070616972206c69737420646f6573206e6f74206578697374000060448201526064016101fa565b6000828152602284016020908152604080832084845290915290205484146143a7576000848152602184016020526040808220600901548083529120600a015485146143845760405162461bcd60e51b81526020600482015260116024820152701cdbdc9d0818da1958dac819985a5b1959607a1b60448201526064016101fa565b6000858152602185016020526040808220600a90810154938352912001556143d5565b60008481526021840160209081526040808320600a0154858452602287018352818420858552909252909120555b60008481526021840160205260409020600a01541561446d576000848152602184016020526040808220600a0154808352912060090154851461444e5760405162461bcd60e51b81526020600482015260116024820152701cdbdc9d0818da1958dac819985a5b1959607a1b60448201526064016101fa565b6000858152602185016020526040808220600990810154938352912001555b6000848152602184016020908152604080832060098101849055600a0183905584835260238601825280832084845290915281208054916144ad8361503a565b919050555050505050565b60006144c2611155565b905060006144f46040518060400160405280600d81526020016c4469766964656e642042616e6b60981b815250610562565b6000858152601584016020908152604080832089845290915281205491925061451c86613415565b6000878152601b8601602090815260408083208984528252808320548a8452601c890183528184208a855283528184208c8552909252822054929350919061456685858585613435565b90508015614695576000898152601c8801602090815260408083208b845282528083208d8452909152812080548392906145a1908490614b89565b909155505060008881526015880160209081526040808320898452909152812080548392906145d1908490614c84565b9091555050600088815260158801602090815260408083208d845290915281208054839290614601908490614b89565b90915550506000888152601588016020908152604080832089845290915290819020549051879160008051602061509a83398151915291614645918c913390615051565b60405180910390a2600088815260158801602090815260408083208d8452909152908190205490518b9160008051602061509a8339815191529161468c918c913390615051565b60405180910390a25b50505050505050505050565b600080600080600060a086880312156146b957600080fd5b8535945060208601359350604086013567ffffffffffffffff808211156146df57600080fd5b908701906060828a0312156146f357600080fd5b9093506060870135908082111561470957600080fd5b508601610140818903121561471d57600080fd5b949793965091946080013592915050565b60006020828403121561474057600080fd5b5035919050565b60008082840360c081121561475b57600080fd5b8335925060a0601f198201121561477157600080fd5b506020830190509250929050565b60008060006060848603121561479457600080fd5b505081359360208301359350604090920135919050565b634e487b7160e01b600052604160045260246000fd5b600082601f8301126147d257600080fd5b813567ffffffffffffffff808211156147ed576147ed6147ab565b604051601f8301601f19908116603f01168101908282118183101715614815576148156147ab565b8160405283815286602085880101111561482e57600080fd5b836020870160208301376000602085830101528094505050505092915050565b60008060006060848603121561486357600080fd5b83359250602084013567ffffffffffffffff8082111561488257600080fd5b61488e878388016147c1565b935060408601359150808211156148a457600080fd5b506148b1868287016147c1565b9150509250925092565b6020808252601490820152733737ba10309039bcb9ba32b69036b0b730b3b2b960611b604082015260600190565b6000808335601e1984360301811261490057600080fd5b83018035915067ffffffffffffffff82111561491b57600080fd5b6020019150600581901b36038213156125a757600080fd5b80151581146120dd57600080fd5b6000813561027d81614933565b634e487b7160e01b600052601160045260246000fd5b808202811582820484141761027d5761027d61494e565b67ffffffffffffffff831115614993576149936147ab565b600160401b8311156149a7576149a76147ab565b8054838255808410156149de576000828152602081208581019083015b808210156149da578282556001820191506149c4565b5050505b5060008181526020812083915b8581101561026a578235828201556020909201916001016149eb565b5b818110156102c25760008155600101614a08565b67ffffffffffffffff831115614a3457614a346147ab565b600160401b831115614a4857614a486147ab565b805483825580841015614a6e57816000526020600020614a6c828201868301614a07565b505b50818160005260208060002060005b86811015614a975783358282015592820192600101614a7d565b50505050505050565b8135815560208201356001820155604082013560028201556060820135600382015560048101614ae9614ad560808501614941565b825490151560ff1660ff1991909116178255565b614b12614af860a08501614941565b82805461ff00191691151560081b61ff0016919091179055565b5060c0820135600582015560e08201356006820155614b356101008301836148e9565b614b4381836007860161497b565b5050614b536101208301836148e9565b614b61818360088601614a1c565b50505050565b600082614b8457634e487b7160e01b600052601260045260246000fd5b500490565b8082018082111561027d5761027d61494e565b634e487b7160e01b600052603260045260246000fd5b6000808335601e19843603018112614bc957600080fd5b83018035915067ffffffffffffffff821115614be457600080fd5b6020019150368190038213156125a757600080fd5b86815260a060208201528460a0820152848660c0830137600060c08683010152600060c0601f19601f8801168301019050846040830152836060830152826080830152979650505050505050565b600060018201614c5957614c5961494e565b5060010190565b600060208284031215614c7257600080fd5b8135614c7d81614933565b9392505050565b8181038181111561027d5761027d61494e565b600181811c90821680614cab57607f821691505b602082108103614ccb57634e487b7160e01b600052602260045260246000fd5b50919050565b60008154614cde81614c97565b808552602060018381168015614cfb5760018114614d1557614d43565b60ff1985168884015283151560051b880183019550614d43565b866000528260002060005b85811015614d3b5781548a8201860152908301908401614d20565b890184019650505b505050505092915050565b838152606060208201526000614d676060830185614cd1565b8281036040840152611b768185614cd1565b601f8211156104dc57806000526020600020601f840160051c81016020851015614da05750805b611541601f850160051c830182614a07565b815167ffffffffffffffff811115614dcc57614dcc6147ab565b614de081614dda8454614c97565b84614d79565b602080601f831160018114614e155760008415614dfd5750858301515b600019600386901b1c1916600185901b17855561026a565b600085815260208120601f198616915b82811015614e4457888601518255948401946001909101908401614e25565b5085821015614e625787850151600019600388901b60f8161c191681555b5050505050600190811b01905550565b6020808252601f908201527f65787465726e616c20746f6b656e206973206e6f7420737570706f7274656400604082015260600190565b6000808354614eb781614c97565b60018281168015614ecf5760018114614ee457614f13565b60ff1984168752821515830287019450614f13565b8760005260208060002060005b85811015614f0a5781548a820152908401908201614ef1565b50505082870194505b50929695505050505050565b828152606060208201526000614f5260608301600d81526c17da5b9d195c9b985b135a5b9d609a1b602082015260400190565b905060018060a01b03831660408301529392505050565b838152826020820152608060408201526000614fa260808301600d81526c17da5b9d195c9b985b135a5b9d609a1b602082015260400190565b905060018060a01b0383166060830152949350505050565b634e487b7160e01b600052602160045260246000fd5b61ffff818116838216019080821115614feb57614feb61494e565b5092915050565b9283526020830191909152608060408301819052601190830152702fb4b73a32b93730b62a3930b739b332b960791b60a08301526001600160a01b0316606082015260c00190565b6000816150495761504961494e565b506000190190565b92835260208301919091526080604083018190526011908301527017ddda5d1a191c985dd11a5d9a59195b99607a1b60a08301526001600160a01b0316606082015260c0019056fe2a6b96e51c5252b8e3666030ed958aec041736a7af1773a4e5833bac27b47e3ba2646970667358221220f10395b8474d6856143ae74fd92dd58dbfbfa673e4548ee4140f35e767db111464736f6c63430008110033",
    "linkReferences": {}
  },
  "methodIdentifiers": {
    "createSimplePolicy(bytes32,bytes32,(bytes32[],bytes32[],bytes[]),(uint256,uint256,bytes32,uint256,bool,bool,uint256,uint256,bytes32[],uint256[]),bytes32)": "04e2e500",
    "domainSeparatorV4()": "78e890ba",
    "enableEntityTokenization(bytes32,string,string)": "f17d17f4",
    "getEntityInfo(bytes32)": "edd2133b",
    "hashTypedDataV4(bytes32)": "4980f288",
    "isTokenWrapped(bytes32)": "10b4955d",
    "startTokenSale(bytes32,uint256,uint256)": "a2e4569b",
    "updateEntity(bytes32,(bytes32,uint256,uint256,uint256,bool))": "73abdfa5"
  },
  "id": 45
}